:020000040800F2
:10000000481C0020AD030008410400084304000818
:10001000470400084B0400084F04000800000000DB
:100020000000000000000000000000005304000871
:100030005504000800000000570400085904000897
:10004000C7030008C7030008C7030008C703000868
:10005000C7030008C7030008C7030008C703000858
:10006000C7030008C7030008C7030008C703000848
:10007000C7030008C7030008C7030008C703000838
:10008000C7030008C7030008C7030008C703000828
:10009000C7030008C7030008C70300081F060008BD
:1000A000C7030008C7030008C7030008C703000808
:1000B00009060008C7030008C7030008C7030008B3
:1000C000C7030008C7030008C7030008C7030008E8
:1000D000C7030008C7030008C7030008C7030008D8
:1000E000C7030008C7030008C7030008C7030008C8
:1000F000C7030008C7030008C7030008C7030008B8
:10010000C7030008C7030008C7030008C7030008A7
:10011000C70300087F040008C7030008C7030008DE
:10012000C7030008C7030008C7030008C703000887
:10013000C7030008C7030008C7030008C703000877
:10014000C7030008C7030008C7030008C703000867
:10015000C7030008C7030008C70300087F0500089D
:10016000C7030008C7030008C7030008C703000847
:10017000C7030008C7030008C7030008C703000837
:10018000C7030008C7030008DFF80CD00CF00AFE14
:1001900000480047D1030008481C00200CB500208F
:1001A000019000907648006840F4803074490860FF
:1001B00000BF7348006800F4003000900198401CB4
:1001C0000190009818B90198B0F5A06FF1D16C4872
:1001D000006800F4003010B10120009001E0002020
:1001E00000900098012846D165484030006840F0F2
:1001F00080506349403108606248006840F48040A4
:10020000604908605E48083000685D490831086050
:100210000846006840F4004008600846006840F462
:10022000A05008605848091F0860081F006840F087
:100230008070091F086000BF5148006800F000701E
:100240000028F9D040F20560504908604C48083059
:10025000006820F003004A49083108600846006839
:1002600040F00200086000BF45480830006800F018
:100270000C000828F8D10CBD10B54548006840F4C2
:100280007000434908603E48006840F001003C4966
:10029000086000203A4908310860394800683D4943
:1002A0000840374908603C48091D0860081F00687D
:1002B00020F48020091F0860002031490C310860BB
:1002C000FFF76CFF4FF0006031498039086010BDC6
:1002D00070B500200022022300240221284D083599
:1002E0002D6805F00C0020B1042806D0082834D170
:1002F00007E02A4D2A4E356033E02A4D284E3560FE
:100300002FE01F4D2D1D2D68C5F380541C4D2D1D54
:100310002D6805F03F0154B1224DB5FBF1F5184EA3
:10032000361D3668C6F3881605FB06F209E01B4D3C
:10033000B5FBF1F5124E361D3668C6F3881605FB7F
:1003400006F20F4D2D1D2D68C5F301456D1C6B0088
:10035000B2FBF3F5124E356003E0104D104E3560E0
:1003600000BF00BF064D08352D68C5F303150E4EBE
:10037000705D0B4D2D68C540094E356070BD0000A5
:10038000003802400070004019544007003C024011
:1003900088ED00E0FFFFF6FE103000240024F4009A
:1003A0000000002040787D010400002006488047BE
:1003B00006480047FEE7FEE7FEE7FEE7FEE7FEE74A
:1003C000FEE7FEE7FEE7FEE7790200088901000884
:1003D00010B5002402F012FE02F09EFF02F0D4FFDE
:1003E00002F060FE04F0BFF909F0BCF80BF09CFECF
:1003F00002F0A0FC4FF4165002F074FD4FF41650BA
:1004000002F0FAFC042002F007FFC82002F023FEED
:1004100009F0E4F90849086880471F200749088067
:1004200006F035FE044603E006F049FF08F004FC40
:10043000002CF9D1002010BD5C00002094000020A9
:10044000704700BFFEE700BFFEE700BFFEE700BF4A
:10045000FEE770477047704710B577480068401C4A
:100460007549086008460068B0F5FA7F04D300209B
:10047000086001207149087002F003FE10BD1FB52D
:100480006F4903C9CDE902016D49083103C9CDE9BE
:10049000000140F225516B4802F005FC00286CD0A9
:1004A00040F22551674802F035FC664802F039FBFE
:1004B00065490968644A526888546348406840B98D
:1004C000614800680078242803D000205E49486015
:1004D0001FBD5D484068052813D15B490968C81CE9
:1004E000032202A90CF026F958B157490968C81C23
:1004F000032269460CF01EF918B1002052494860E9
:10050000E6E751484068072832D94F4800684E490D
:100510004968405C0A282BD14B4801684068401E5E
:10052000085C0D2824D148484268016847480068A3
:10053000801C0CF0CDF844488088000A43490968C3
:100540000870414800794149096848703F4800688F
:1005500064303E490860084600683D4909688842A1
:1005600002D13C4839490860002037494860AFE76C
:1005700035484068401C3449486000BFA8E710B5C2
:1005800040F22551344802F08EFB00283AD040F268
:100590002551314802F0BEFB2F4802F0C2FA2F4924
:1005A00009682E4A526888542C48406840B92B4844
:1005B00000680078552803D000202849486010BD05
:1005C00026484068012808D124480068407853280C
:1005D00003D0002021494860F1E720484068401CD2
:1005E0001E494860084640680B280BD10846142273
:1005F00001681B480CF06CF801201A4908700020B3
:100600001649486000BFDAE710B50121880702F0FB
:1006100096F818B10121880702F0A2F810BD10B5B4
:10062000202000F0D9FC30B1202000F0E6FC00F0E2
:10063000BCF80D49087010BD140000202D000020EA
:1006400018E1000800500040640300203000002042
:1006500038000020980300200014014058030020B7
:10066000700300202C000020B500002030B58BB0B6
:1006700004460D460121480400F0C0FF012102207C
:1006800000F078FF032208211E4800F0B8FD4FF467
:100690008070099002208DF8280003208DF8290031
:1006A00000208DF82A0001208DF82B0009A915489B
:1006B00000F01AFDA8B2ADF818000020ADF81A003D
:1006C0000794ADF8200006A90F4801F080FB6020D8
:1006D000ADF804000120ADF806000020ADF81000D0
:1006E00001A9094801F008FC0821074801F091FD23
:1006F0000121054801F0D6FB0121034801F0F0FB80
:100700000BB030BD000402400044014000B585B08C
:100710000121402000F02EFF0121880300F06EFF30
:1007200000208DF8080001208DF80B00202001909A
:1007300001A9244800F0D8FC0521062001F062FA46
:100740002020039000208DF810000C208DF811005F
:1007500001208DF8120003A800F0D8FB17208DF8B7
:1007600000000F208DF801008DF8020001208DF8A7
:100770000300684600F01FF905B000BD10B500F099
:100780003AF8FFF7C3FF10BD10B5044600F070F84B
:10079000E10901F03E0141F0400000F0BCF8E0B298
:1007A00000F0B9F800F015F810BD10B500F060F8D1
:1007B0004F2000F0B0F800F0D3F8044600F009F83C
:1007C000204610BD0018024010B50A2002F04BFC74
:1007D00010BD10B50421744800F002FD10217248CC
:1007E00000F000FDFFF7F0FF10216F4800F0F8FC6B
:1007F000FFF7EAFF10BD1CB50121402000F0BAFE52
:100800001420009001208DF8040000208DF80600CF
:1008100002208DF8050001208DF807006946624826
:1008200000F062FCFFF7D5FF1CBD1CB51020009046
:1008300000208DF807008DF806008DF80400694649
:10084000594800F051FC1CBD1CB51020009001203F
:100850008DF8070000208DF8060001208DF80400B7
:1008600002208DF8050069464F4800F03DFC1CBD94
:1008700010B510214C4800F0B3FC04214A4800F0A8
:10088000AFFCFFF7A1FF1021474800F0ABFCFFF7DA
:100890009BFF0421444800F0A5FCFFF795FF10BD25
:1008A00010B50446012C04D110213F4800F098FCFB
:1008B00003E010213C4800F095FC04213A4800F088
:1008C0008FFCFFF781FF0421374800F08BFCFFF716
:1008D0007BFF10BD10B51424FFF7A7FFFFF774FFCF
:1008E0000421314800F07CFCFFF76EFF04E0601E3D
:1008F000C4B20CB9FFF76DFF10212B4800F056FC75
:100900000028F4D10421284800F06CFCFFF79CFF7C
:10091000FFF75AFF10BD70B5044600251BE004F038
:10092000800020B11021204800F05AFC03E0102183
:100930001D4800F057FC6006040E04211A4800F020
:100940004FFCFFF741FF0421174800F04BFCFFF775
:100950003BFF681CC5B2082DE1DBFFF7BBFF70BD94
:1009600070B50024FFF761FF002516E06006040E55
:1009700004210D4800F034FCFFF726FF10210A483F
:1009800000F014FC08B144F001040421064800F012
:1009900029FCFFF719FF681CC5B2082DE6DBFFF73D
:1009A00053FF204670BD0000001802403249014349
:1009B000324A1160704770B5002100230F22C478BD
:1009C0001CB32E4C246804F4E064C4F5E064C4F362
:1009D0000721C1F10404E3B20A4144789C40E1B22A
:1009E0008478144021430C07210E254C057861556D
:1009F000047804F01F050124AC4005786D11AD00AA
:100A000005F1E025C5F8004109E0047804F01F0570
:100A10000124AC401B4D0678761145F8264070BD88
:100A2000194A0A400243154B1B1F1A60704739B11F
:100A3000124A121D12680243104B1B1D1A6006E079
:100A40000E4A121D126882430C4B1B1D1A60704720
:100A5000042808D14FF0E021096941F004014FF06A
:100A6000E022116107E04FF0E021096921F0040163
:100A70004FF0E022116170470000FA050CED00E034
:100A800000E400E080E100E080FFFF1F10B50121DD
:100A9000080200F01BFE00214FF4807000F016FEEB
:100AA00010BD30B50246002000235068F84C2040AD
:100AB0000D790C6844EA0524204350609068F54C99
:100AC0002040D1E903542C438D682C434D7944EAEE
:100AD000450420439060D06A20F470000C7D641EB1
:100AE000E4B2234340EA0350D06230BD00210160EC
:100AF000017141718160C16001610121017570471F
:100B00000021E54A1168E54A1140D0E900231A4363
:100B100083681A43C3681A431143E14AC2F80413B5
:100B200070470021016041608160C160704721B160
:100B3000826842F00102826003E0826822F00102D2
:100B4000826070470A4600214168D64B1940114324
:100B5000416070474162826270470A4600214168E5
:100B600021F01F0111434160704738B1CA4909683B
:100B700041F40001CA4AC2F8041306E0C6490968F4
:100B800021F40001C64AC2F80413704738B1C249C3
:100B9000096841F48001C24AC2F8041306E0BE4964
:100BA000096821F48001BE4AC2F804137047F0B509
:100BB00004460D4600200021092D11DDE068A5F155
:100BC0000A0606EB4607072606FA07F18843A5F151
:100BD0000A0606EB460603FA06F10843E0600CE05D
:100BE000206905EB4507072606FA07F1884305EB60
:100BF000450603FA06F108432061072A0FDA606B05
:100C0000561E06EB86071F2606FA07F18843561E76
:100C100006EB860605FA06F10843606322E00D2A1A
:100C20000FDA206BD61F06EB86071F2606FA07F1A0
:100C30008843D61F06EB860605FA06F108432063B3
:100C400010E0E06AA2F10D0606EB86071F2606FA01
:100C500007F18843A2F10D0606EB860605FA06F1B8
:100C60000843E062F0BD816841F0804181607047D7
:100C7000014600208A6802F480020AB1012000E0E7
:100C80000020704721B1826842F48062826003E0F4
:100C9000826822F480628260704721B1826842F0EB
:100CA0000202826003E0826822F0020282607047E2
:100CB00010B50A4600210023416821F46041531E0B
:100CC00041EA4331416010BD21B1426842F4006203
:100CD000426003E0426822F40062426070470146CD
:100CE000C86C80B270476C48001D0068704721B125
:100CF000826842F48072826003E0826822F480722B
:100D00008260704721B1826842F40072826003E021
:100D1000826822F400728260704738B15E490968C7
:100D200041F400515E4AC2F8041306E05A490968CA
:100D300021F400515A4AC2F804137047F0B5044632
:100D40001546002000220026092911DDE068A1F1E6
:100D50000A0707EB470C072707FA0CF29043A1F1AB
:100D60000A0707EB470703FA07F21043E0600CE0BD
:100D7000206901EB410C072707FA0CF2904301EBC5
:100D8000410703FA07F210432061A06BC0F301563C
:100D9000EF1C06F1010CA7EB0C0707EB870C1F27D4
:100DA00007FA0CF29043EF1C06F1010CA7EB0C07BD
:100DB00007EB870701FA07F21043A063F0BD10B5F7
:100DC0000A4600210023816B21F44011531E41EAA1
:100DD0000351816310BD08B5002300930090009B70
:100DE0000B440093009B1A6008BD0A4600218168ED
:100DF00021F470211143816070470A460021816807
:100E000021F44011114381607047816841F48001F1
:100E100081607047014600208A6802F480020AB1AE
:100E2000012000E00020704721B1426842F4806256
:100E3000426003E0426822F480624260704721B160
:100E4000426842F48052426003E0426822F48052D9
:100E50004260704708B5024600200090009201F100
:100E60002800009B184400900098006880B208BDDC
:100E700010B50B460021D9B2012404FA01F11AB1D0
:100E800044680C43446002E044688C43446010BDF5
:100E9000FFFEFFFCFDF7FFC004230140E030FCFF34
:100EA00000200140FFFD3FFF0246002013680B4079
:100EB0000BB1012000E000207047CA430260704778
:100EC00070B502460020002300240B12556801264D
:100ED0008E4005EA060415681D4015B10CB10120CD
:100EE00000E0002070BD00220A12D3430360704767
:100EF000002044490860091D0860091D0860091D9B
:100F0000086041483F4914310860704700213D495D
:100F10008279002A3AD00A46126803689A430B463F
:100F20001A600A1D126803689A430B1D1A60027941
:100F300011440A6803681A430A60324A0832126888
:100F400003689A432F4B08331A601A1D126803680E
:100F50009A432C4B0C331A604279102A0ED11A1F77
:100F6000126803681A43274B08331A601A1D126867
:100F700003681A43234B0C331A600DE02149427970
:100F800011440A6803681A430A6005E002791144B3
:100F90000A6803689A430A60704700210160017182
:100FA0000C21417100218171704716491031096887
:100FB0000143144A10321160704701460020114A63
:100FC000143212680A400AB1012000E00020704784
:100FD0000C49143108607047014600200022094B7B
:100FE0001B6803EA0102074B14331B680B4013B163
:100FF0000AB1012000E00020704702491431086066
:1010000070470000003C0140FFFF7F0010B5044620
:101010008C48844208D10121084600F000FB0021E1
:10102000012000F0FCFA5EE08748844208D10121EB
:10103000022000F0F4FA0021022000F0F0FA52E061
:101040008248844208D10121042000F0E8FA0021FE
:10105000042000F0E4FA46E07D48844208D10121F2
:10106000082000F0DCFA0021082000F0D8FA3AE06D
:101070007848844208D10121102000F0D0FA0021E4
:10108000102000F0CCFA2EE07348844208D10121F0
:10109000202000F0C4FA0021202000F0C0FA22E055
:1010A0006E48844208D10121402000F0B8FA0021A6
:1010B000402000F0B4FA16E06948844208D10121CA
:1010C000802000F0ACFA0021802000F0A8FA0AE0AD
:1010D0006448844207D10121801500F0A0FA002164
:1010E000A01500F09CFA10BDF0B50A4600210023BF
:1010F000002400BF3DE0012505FA01F3156805EA6B
:1011000003049C4234D105684F000326BE40B5431A
:10111000056015794E00B5400668354305601579C0
:10112000012D02D01579022D16D185684F000326B6
:10113000BE40B543856055794E00B540866835435D
:101140008560456801268E40B543456045689679BF
:101150008E40B6B235434560C5684F000326BE4099
:10116000B543C560D5794E00B540C6683543C56006
:10117000491C1029BFD3F0BD4FF6FF71016000215B
:10118000017141718171C171704708B54FF48032AE
:101190000092009A0A430092009AC261C161009ACB
:1011A000C261C2690092C269009208BD0246002075
:1011B00013690B400BB1012000E00020704701468D
:1011C000086980B270470246002053690B400BB19A
:1011D000012000E0002070470146486980B2704756
:1011E00001837047418370470AB1018300E0418366
:1011F00070474161704742694A4042617047F0B5AB
:10120000002300244D07ED0E02FA05F3CE1000F185
:10121000200555F826504E07F70E0F26BE40B54361
:10122000CF1000F1200646F82750CE1000F120051F
:1012300055F8265045EA0304CE1000F1200545F884
:101240002640F0BD000002400004024000080240B9
:10125000000C02400010024000140240001802403E
:10126000001C024000200240FA48006840F00100E3
:10127000F84908600020F74908310860F54800681F
:10128000F5490840F3490860F448091D0860081F43
:10129000006820F48020091F08600020ED490C310F
:1012A000086070470021EB4A921C117011460870CB
:1012B000704710B501460022002300204A11012A80
:1012C00002D1E44C236808E0022A03D1E14C7034D7
:1012D000236802E0DF4C7434236801F01F0201240C
:1012E00094401C400CB1012000E0002010BD38B536
:1012F000002000900024002500BF3120FFF7D9FF17
:1013000005460098401C00900098B0F5A06F01D0F1
:10131000002DF2D03120FFF7CCFF08B1012400E00E
:101320000024204638BD01460020CA4A106820F03B
:10133000F80040EAC10010607047C9490860704772
:101340000021C44A703211701170012802D00428A3
:101350000AD104E00121BF4A7032117005E0052175
:10136000BC4A7032117000E000BF00BF7047BD4939
:101370000860704770B5049C41EA82150126C6EBEF
:10138000530645EA0645054345EA0465B14E361D58
:10139000356070BDB24908667047820142EA017249
:1013A000AC4B84331A607047AD4988667047AC49CE
:1013B000C864704702460020A64B0833186820F026
:1013C000EC6042EA01031843A24B083318607047EF
:1013D000024600209F4B0833186820F0784042EA0C
:1013E000010318439B4B08331860704701460020E7
:1013F000984A0832106820F00300084310607047D4
:1014000094480830006800F00C0070470146002046
:10141000904A0832106820F0F000084310607047CE
:10142000014600208B4A0832106820F4E05008433F
:101430001060704701460020864A0832106820F488
:10144000604040EAC10010607047F0B50021002202
:1014500000240225002602237E4F08373F6807F04C
:101460000C0121B1042905D0082937D105E07E4FB0
:10147000076036E07D4F076033E0764F3F1D3F68E1
:10148000C7F38056734F3F1D3F6807F03F036EB1AF
:10149000764FB7FBF3F7DFF8BCC10CF1040CDCF8B6
:1014A00000C0CCF3881C07FB0CF40CE06E4FB7FBBC
:1014B000F3F7DFF8A0C10CF1040CDCF800C0CCF3AA
:1014C000881C07FB0CF4634F3F1D3F68C7F30147BF
:1014D0007F1C7D00B4FBF5F7076002E0624F0760F8
:1014E00000BF00BF5B4F08373F6807F0F0010909F4
:1014F0005F4F7A5C0768D7404760564F08373F68B0
:1015000007F4E051890A5A4F7A5C4768D7408760F0
:10151000504F08373F6807F46041490B544F7A5CDD
:101520004768D740C760F0BD002100F44072B2F5B3
:10153000407F0AD1474A0832116821F4F8114D4A18
:1015400002401143434A08321160424A7032126825
:10155000C0F30B031A433F4B70331A607047414985
:101560004439086070473F49403908607047424934
:101570000860704739B1374A303212680243354B40
:1015800030331A6006E0334A303212688243314BFE
:1015900030331A60704739B12E4A34321268024330
:1015A0002C4B34331A6006E02A4A343212688243E4
:1015B000284B34331A60704739B1264A38321268E2
:1015C0000243244B38331A6006E0224A383212684C
:1015D0008243204B38331A60704739B11D4A40327C
:1015E000126802431B4B40331A6006E0194A40322E
:1015F00012688243174B40331A60704739B1154A5D
:10160000443212680243134B44331A6006E0114A15
:101610004432126882430F4B44331A60704739B129
:101620000C4A1032126802430A4B10331A6006E06B
:10163000084A103212688243064B10331A60704712
:10164000E1B1044A143212680243024B14331A60A7
:1016500019E0000000380240FFFFF6FE10300024C1
:1016600000004742800E47420024F40040787D018C
:1016700018000020FFFCFF0F5C0147425B4A126824
:1016800082435A4B1A60704739B1584A121D12688A
:101690000243564B1B1D1A6006E0544A121D126885
:1016A0008243524B1B1D1A60704739B14F4A0C32AE
:1016B000126802434D4B0C331A6006E04B4A0C3261
:1016C00012688243494B0C331A60704739B1474A5C
:1016D000103212680243454B10331A6006E0434A49
:1016E000103212688243414B10331A60704739B18F
:1016F0003E4A3C32126802433C4B3C331A6006E0DF
:101700003A4A3C3212688243384B3C331A60704785
:1017100039B1364A403212680243344B40331A60C2
:1017200006E0324A403212688243304B40331A603E
:10173000704739B12D4A4432126802432B4B44336F
:101740001A6006E0294A443212688243274B443328
:101750001A60704739B1254A4C3212680243234B54
:101760004C331A6006E0214A4C32126882431F4B08
:101770004C331A60704739B11C4A50321268024328
:101780001A4B50331A6006E0184A503212688243EE
:10179000164B50331A60704739B1144AD21F127871
:1017A0000243124BDB1F1A7006E0104AD21F127858
:1017B00082430E4BDB1F1A7070470C486030006884
:1017C00040F0807009496031086070470146002090
:1017D000064A083A12680A400AB1012000E00020D7
:1017E00070470249891F0870704700001438024092
:1017F00010B50446F748844208D101218014FFF750
:1018000065FF0021A014FFF761FF16E0F248844253
:1018100008D101210014FFF748FF00212014FFF731
:1018200044FF0AE0ED48844207D10121C013FFF7CD
:101830003CFF0021E013FFF738FF10BD10B5002278
:10184000028802F441520B884C8823438C8823433E
:10185000CC8823430C8923434C8923438C8923431D
:10186000CC8923431A430280838B4FF2FF742340B9
:1018700083830B8A038210BD2DE9F04F00250223DC
:101880000024012700220026944690469146B0F895
:101890001CA04FF2400B0AEA0B0AA0F81CA04FF064
:1018A000020AA0F820A0858BD1F808A0BAF1020F97
:1018B00001D100BF6CE0B1F804A0BAF1000F01D172
:1018C000012700E00227DFF818A3DAF800A00AF4E5
:1018D000000ABAF1000F09D0DFF804A3DAF800A07B
:1018E0002AF4000ADFF8F8B2CBF800A0DFF8F0A283
:1018F0000AF17C0ADAF800A0CAF38818DFF8E0A23F
:101900000AF17C0ADAF800A0CAF30279DFF8D0A263
:10191000AAF1040ADAF800A00AF03F0CDFF8C4A22A
:10192000BAFBFCFA0AFB08FABAFBF9F6B1F806A012
:10193000BAF5007F0ED14FEA162A0AEB8A0A4FEA5F
:101940004A0AD1F808B0BAFBFBFA0AF1050A1FFAF5
:101950008AF20FE04FEA471AB6FBFAFA0AEB8A0A54
:101960004FEA4A0AD1F808B0BAFBFBFA0AF1050AB5
:101970001FFA8AF24FF00A0AB2FBFAF202F00104EF
:10198000A2EB040ACAF34F034FF6FF7A0AEA0424D3
:10199000022B01DBFF2B01DD02230024B1F806A09E
:1019A0004AEA040A4AEA030AA0F820A0B1F804A00F
:1019B000B1F80CB04AEA0B0AB1F802B04AEA0B0AD5
:1019C000B1F800B04AEA0B0A4AF4006A4AEA05058F
:1019D0008583BDE8F08F0021018041808180C18036
:1019E000018141818181C1810721018270470021EC
:1019F000018041808180C18002218160002181813C
:101A0000704721B1028842F04002028004E002885F
:101A10004FF6BF731A400280704721B1828B42F4A7
:101A20008062828304E0828B4FF6FF331A40828308
:101A3000704702884FF2FF731A40028002880A43FF
:101A400002807047B1F5804F04D1028842F4804291
:101A5000028004E002884BF6FF731A400280704750
:101A60004FF6FF62914204D0028842F480720280F5
:101A700004E002884FF6FF631A400280704721B1EC
:101A8000828842F00402828004E082884FF6FB7371
:101A90001A408280704721B1828842F01002828011
:101AA00004E082884FF6EF731A408280704730B5A9
:101AB00000220023848B4FF240052C4084830224B3
:101AC0000484828B0C88B4F5007F01D00C8814B993
:101AD0004FF4807308E00C88B4F5407F03D00C8885
:101AE000B4F5807F00D100238C888D892C434D88EC
:101AF0002C431C4344F400642243828330BD0146DE
:101B0000888970478181704721B1028842F4005270
:101B1000028004E002884DF6FF731A40028070478D
:101B2000018841F48051018070470246002001295C
:101B300001D0108B00E0908A70470146088A7047F8
:101B40001AB183880B43838002E083888B438380B0
:101B5000704730B5002400230C110125A540ABB21D
:101B60001AB185881D43858002E085889D43858064
:101B700030BD0246002013890B400BB1012000E06C
:101B800000207047CA4302817047F0B5024600202A
:101B900000240023002501F00F070126BE40B4B247
:101BA0000B1101269E40B3B2968806EA03051689FA
:101BB000264016B10DB1012000E00020F0BD10B5A7
:101BC000002201F00F040123A3409AB2D343038102
:101BD00010BD00000030014000380040003C0040D3
:101BE0000838024040787D0110B501218803FFF7D5
:101BF0006DFD00214FF48040FFF768FD10BD1A49CC
:101C00000860704730B500228B071C0F0F2303FAC2
:101C100004F2154B08338C1053F824309343124CC4
:101C200008348D1044F8253023468C1053F82430A6
:101C30008C07240F00FA04F423430B4C08348D1056
:101C400044F8253030BD09490860704708490860EC
:101C50007047002004492031096801F4807109B1FE
:101C6000012000E00020704700380140DC002742DE
:101C70000004274210B50446FE48844208D10121E1
:101C80000846FFF723FD00210120FFF71FFD9DE01F
:101C9000B4F1804F08D101210846FFF706FD00216D
:101CA0000120FFF702FD91E0F348844208D10121B1
:101CB0000220FFF7FAFC00210220FFF7F6FC85E086
:101CC000EE48844208D101210420FFF7EEFC0021F8
:101CD0000420FFF7EAFC79E0E948844208D10121B9
:101CE0000820FFF7E2FC00210820FFF7DEFC6DE092
:101CF000E448844208D101211020FFF7D6FC0021DE
:101D00001020FFF7D2FC61E0DF48844208D10121B6
:101D10002020FFF7CAFC00212020FFF7C6FC55E079
:101D2000DA48844208D101210220FFF7CFFC0021CC
:101D30000220FFF7CBFC49E0D548844209D10121BC
:101D40000804FFF7C3FC00214FF48030FFF7BEFC0E
:101D50003CE0D048844209D101214804FFF7B6FC99
:101D600000214FF40030FFF7B1FC2FE0CA48844255
:101D700009D101218804FFF7A9FC00214FF480203C
:101D8000FFF7A4FC22E0C548844208D1012140208D
:101D9000FFF78BFC00214020FFF787FC16E0C048CE
:101DA000844208D101218020FFF77FFC00218020A0
:101DB000FFF77BFC0AE0BB48844207D10121801574
:101DC000FFF773FC0021A015FFF76FFC10BD002288
:101DD0000288A84B98420ED0AC4B98420BD0B0F181
:101DE000804F08D0A44B984205D0A44B984202D013
:101DF000A34B984204D14FF68F731A404B881A4375
:101E0000A04B984207D0A04B984204D04FF6FF4316
:101E10001A400B891A4302804B68C3620B88038502
:101E2000944B984202D0994B984201D18B7A038609
:101E30000123838270474FF0FF3141600021018010
:101E400001814180817270470185828270470A4614
:101E5000002101884FF68F731940114301807047AC
:101E600041627047C16270470146486A7047014647
:101E7000088D704721B1028842F00202028004E01E
:101E800002884FF6FD731A400280704721B1028824
:101E900042F00402028004E002884FF6FB731A400D
:101EA0000280704721B1028842F08002028004E083
:101EB00002884FF67F731A400280704702884FF6FF
:101EC000F7731A40028002880A4302807047028832
:101ED0004FF6FF431A40028002880A43028070478F
:101EE00021B1028842F00102028004E002884FF62C
:101EF000FE731A400280704770B500240022002350
:101F0000058C4FF6FE7635400584028C8388048B61
:101F10004FF68F752C40B51E2C400D882C43751E36
:101F20002A408D892A434D882A43524DA84202D027
:101F3000564DA84213D14FF6F7752A40CD892A4352
:101F40004FF6FB752A408D882A434FF6FF652B40DC
:101F50004FF6FF552B400D8A2B434D8A2B43838030
:101F600004838D684563028470BD70B5002400222F
:101F70000023058C4FF6EF7635400584028C83886C
:101F8000048B48F6FF752C404FF6FF452C400D881A
:101F90004FF6FF7606EA05252C434FF6DF752A40FB
:101FA0008D8906EA05152A434D8806EA05152A4358
:101FB000304DA84202D0354DA8421DD14FF67F7555
:101FC0002A40CD894FF6FF7606EA05152A434FF6DB
:101FD000BF752A408D8806EA05152A434FF6FF355E
:101FE0002B404FF2FF752B400D8A06EA85052B43E7
:101FF0004D8A06EA85052B43838004838D688563BB
:10200000028470BD70B5002400220023058C4FF6B9
:10201000FF6635400584028C8388848B4FF68F756C
:102020002C404FF6FC752C400D882C434FF6FF5585
:102030002A408D894FF6FF7606EA05252A434D880A
:1020400006EA05252A430B4DA84202D00F4DA842AF
:1020500038D14FF2FF752A40CD894FF6FF7606EA58
:1020600005252A434FF6FF352A408D8806EA0525C7
:102070002A4319E00000014000040040000800402D
:10208000000C00400010004000140040000401401B
:102090000040014000440140004801400018004059
:1020A000001C0040002000404EF6FF752B404DF60E
:1020B000FF752B400D8A06EA05152B434D8A06EA6B
:1020C00005152B43838084838D68C563028470BDAE
:1020D00070B5002200230024058C4EF6FF763540B3
:1020E0000584038C8488828B48F6FF752A404FF65E
:1020F000FF452A400D884FF6FF7606EA05252A435C
:102100004DF6FF752B408D8906EA05352B434D882A
:1021100006EA05352B43FE4DA84202D0FD4DA842EC
:1021200008D14BF6FF752C400D8A4FF6FF7606EA74
:1021300085152C43848082838D680564038470BD7B
:10214000002101804180818081608181C181018283
:102150004182704770B503460020002418461830AD
:1021600001258D40ACB21D8CA5431D8409B1082901
:102170000AD100EB610005684FF68F7635400560A7
:102180000568154305600FE00D1FC5F34E05284493
:10219000056848F6FF763540056005684FF6FF761E
:1021A00006EA02263543056070BD416370478163CE
:1021B0007047C1637047016470470A460021018B74
:1021C0004FF68F7319401143018370470A4600216F
:1021D000018B48F6FF7319404FF6FF7303EA0223A1
:1021E0001943018370470A460021818B4FF68F7394
:1021F00019401143818370470A460021818B48F6BC
:10220000FF7319404FF6FF7303EA022319438183DA
:1022100070470A460021018B4FF6F77319401143AE
:10222000018370470A460021018B4FF2FF7319406A
:102230004FF6FF7303EA02231943018370470A46EE
:102240000021818B4FF6F77319401143818370474A
:102250000A460021818B4FF2FF7319404FF6FF733E
:1022600003EA02231943818370470A460021018B48
:102270004FF6FB7319401143018370470A46002152
:10228000018B4FF6FF3319404FF6FF7303EA022329
:102290001943018370470A460021818B4FF6FB7377
:1022A00019401143818370470A460021818B4FF604
:1022B000FF3319404FF6FF7303EA0223194381836A
:1022C00070470A460021018B4FF67F731940114376
:1022D000018370470A460021018BC1F30E014FF6BE
:1022E000FF7303EA02231943018370470A46002162
:1022F000818B4FF67F7319401143818370470A46E3
:102300000021818BC1F30E014FF6FF7303EA022314
:102310001943818370470A460021018C4FF6FD73F3
:1023200019401143018470470A460021018C4FF681
:10233000F77319401143018470470A460021018C4C
:102340004FF6DF7319404FF6FF7303EA0213194388
:10235000018470470A460021018C4FF67F731940B3
:102360004FF6FF7303EA02131943018470470A46CC
:102370000021018C4FF6FF5319404FF6FF7303EA1B
:1023800002231943018470470A460021018C4FF251
:10239000FF7319404FF6FF7303EA022319430184C8
:1023A00070470A460021018C4DF6FF7319404FF625
:1023B000FF7303EA023319430184704730B50023E9
:1023C00001248C40A3B2048C9C430484048C02FA44
:1023D00001F5ADB22C43048430BD30B50023042494
:1023E0008C40A3B2048C9C430484048C02FA01F553
:1023F000ADB22C43048430BD828B4FF2FF331A40C0
:102400008283828B4FF6FF7303EA01231A43828390
:102410007047F0B50C461546002100220026078CB7
:102420004EF6FF7C07EA0C070784818B028C4FF67F
:10243000FF7707EA043640F6FF4739404FF6FF774B
:1024400007EA052739434FF6FF7707EA0337394391
:1024500045F6FF773A4046F480573A438183028439
:10246000F0BD828B4FF6F3731A408283828B0A434E
:1024700082837047F0B50C461546002100220026E5
:10248000078C4FF6FF6C07EA0C070784818B028CE0
:102490004FF6FF7707EA04264FF60C7739404FF6E0
:1024A000FF7707EA03172F4339434FF2FF573A40AC
:1024B00046F480773A4381830284F0BD028B4FF269
:1024C000FF331A400283028B4FF6FF7303EA0123A6
:1024D0001A4302837047F0B50C46154600210022CE
:1024E0000026078C4FF6EF7C07EA0C070784018B68
:1024F000028C4FF6FF7707EA041640F6FF47394093
:102500004FF6FF7707EA033739434FF6FF7703E0CB
:10251000000001400004014007EA052739434FF657
:102520005F773A4046F010073A4301830284F0BDDA
:10253000028B4FF6F3731A400283028B0A43028325
:102540007047F0B50C46154600210022068C4FF668
:10255000FE773E400684018B028C4FF60C763140AC
:102560007E1C06EA03162E4331434FF6F5763240C1
:1025700044F00106324301830284F0BD70B5054684
:102580000C46208850B92389A28861882846FFF725
:10259000D8FFE1882846FFF7CBFF25E020880428F4
:1025A0000AD12389A28861882846FFF794FFE18831
:1025B0002846FFF783FF17E0208808280AD12389DF
:1025C000A28861882846FFF755FFE1882846FFF773
:1025D00048FF09E02389A28861882846FFF719FF90
:1025E000E1882846FFF708FF70BD00210180418087
:1025F000012181800021C180018170472DE9F041D6
:1026000005460C4600260127608808B9022600E02E
:102610000026A088012801D1022700E00127208898
:10262000A0B92389A28861882846FFF78AFFE1883C
:102630002846FFF77DFF23893A4631462846FFF7B3
:102640004AFFE1882846FFF739FF13E02389A28873
:1026500061882846FFF73FFFE1882846FFF72EFFF5
:1026600023893A4631462846FFF76BFFE188284622
:10267000FFF75EFFBDE8F0810146486B70470146F9
:10268000886B70470146C86B70470146086C7047FD
:102690000A884B881A438B881A43CB881A430B89C4
:1026A0001A434B891A438B891A43A0F84420704778
:1026B0000021018041808180C1800181418181812F
:1026C000704731B1B0F8442042F40042A0F84420F1
:1026D00005E0B0F84420C2F30E02A0F84420704791
:1026E00021B1828842F00402828004E082884FF6A1
:1026F000FB731A408280704721B1828842F0010248
:10270000828004E082884FF6FE731A408280704710
:102710001AB183890B43838102E083898B438381D0
:1027200070478182704702460020138A0B400BB12C
:10273000012000E000207047CA430282704730B594
:102740000246002000230024158A05EA010395892A
:1027500005EA010413B10CB1012000E0002030BDF6
:10276000CA430282704741EA0203A0F8483070472A
:102770001AB183890B43838102E083898B43838170
:10278000704721B1828842F00802828004E082888A
:102790004FF6F7731A408280704701894FF6F8723E
:1027A0001140018170470A46002101894FF68F735D
:1027B000194011430181704730B504460D46294642
:1027C0002046FFF7F0FF208940F00700208130BD50
:1027D0002DE9F04104460D4616461F46602D06D1F0
:1027E0003B46012231462046FFF775FE05E03B4699
:1027F000012231462046FFF7A4FE29462046FFF776
:10280000D2FF208940F007002081BDE8F08130B57B
:102810000C4600210189C9B24FF6FF7505EA032570
:10282000154325432943018130BD2DE9F04105467B
:102830000E4617469846002443463A4631462846F7
:10284000FFF7E5FF2C894FF6F870044044F00704C9
:102850004FF68F70044044F070042C81BDE8F08185
:10286000F0B504460D4616461F463B4632462946FD
:102870002046FFF7CCFF208940F480402081F0BD46
:1028800082884FF68F731A40828082880A43828042
:10289000704702894FF6F8731A40028102890A4391
:1028A0000281704702894FF67F731A4002810289C4
:1028B0000A4302817047F0B50C4615461E460021BA
:1028C000002200230189028B038C4FF6F8773940F0
:1028D00021434FF6FC473A4040F201173A434FF686
:1028E000DD773B404FF6FF7707EA06172F433B4360
:1028F000018102830384F0BD21B1828842F080020D
:10290000828004E082884FF67F731A40828070478D
:10291000A0F850107047000010B50446F7488442F4
:1029200008D101211020FEF7D1FE00211020FEF772
:10293000CDFE3EE0F248844209D101214804FEF771
:10294000B4FE00214FF40030FEF7AFFE31E0ED4859
:10295000844209D101218804FEF7A7FE00214FF42B
:102960008020FEF7A2FE24E0E748844209D101213D
:10297000C804FEF79AFE00214FF40020FEF795FEF2
:1029800017E0E248844209D101210805FEF78DFED7
:1029900000214FF48010FEF788FE0AE0DC488442F4
:1029A00007D101212020FEF791FE00212020FEF713
:1029B0008DFE10BD2DE9FF4705460E460024A146B9
:1029C00000BFA046B08900B100BF2C8A24F4405457
:1029D000F08804432C82AC8941F20C608443B088B7
:1029E00031890843718908430443AC81AC8A24F4DB
:1029F0004074B0890443AC826846FEF726FDBF48A8
:102A0000854202D0C248854202D1DDF80C9001E037
:102A1000DDF80890A88900F4004040B109EBC90036
:102A200000EB091031684900B0FBF1F707E009EB52
:102A3000C90000EB091031688900B0FBF1F7642090
:102A4000B7FBF0F004012009642101FB1078A8898C
:102A500000F4004040B1322000EBC800B0FBF1F0C0
:102A600000F00700044308E0322000EB0810642166
:102A7000B0FBF1F000F00F0004432C81BDE8FF87AC
:102A80004FF41651016000218180C18001810C2129
:102A9000418100218181704710B502460020108AD3
:102AA00020F470600B884C8823438C882343CC88A7
:102AB00023431843108210BD002101804180818092
:102AC000C180704721B1828942F40052828104E0C2
:102AD00082894DF6FF731A4082817047028B02F49F
:102AE0007F420283028B0A430283704721B18289AD
:102AF00042F40042828103E08289C2F30E028281A5
:102B0000704721B1828A42F40062828204E0828AA4
:102B10004FF2FF731A4082827047C1F3080282802D
:102B2000704701468888C0F308007047028A4FF654
:102B3000F0731A400282028A0A430282704721B16E
:102B4000828942F00202828104E082894FF6FD739D
:102B50001A408281704782894FF2FF731A40828146
:102B600082890A4382817047028A4FF6DF731A40D6
:102B70000282028A0A430282704721B1028A42F429
:102B80008042028204E0028A4BF6FF731A400282FE
:102B90007047818941F001018181704721B1828AAA
:102BA00042F00802828204E0828A4FF6F7731A40EC
:102BB00082827047028BD2B20283028B42EA0122E8
:102BC0000283704721B1828A42F02002828204E0AF
:102BD000828A4FF6DF731A408282704721B1828A5F
:102BE00042F01002828204E0828A4FF6EF731A40AC
:102BF00082827047828A4FF6FB731A408282828AF1
:102C00000A438282704721B1828A42F002028282A4
:102C100004E0828A4FF6FD731A40828270471AB12F
:102C2000838A0B43838202E0838A8B4383827047CB
:102C3000F0B50346002400260025002040F66A1760
:102C4000B94200D100BF1846C1F3421401F01F067B
:102C5000012707FA06F5012C01D10C3004E0022C03
:102C600001D1103000E014301AB107682F4307601B
:102C700002E00768AF430760F0BD02460020B1F5EF
:102C8000007F00D100BF13880B400BB1012000E092
:102C90000020704701F40072B2F5007F00D100BF40
:102CA000CA430280704770B5024600240023002505
:102CB000002040F66A16B14200D100BFC1F34215B0
:102CC00001F01F03012606FA03F3012D02D19689B4
:102CD000334006E0022D02D1168A334001E0968A85
:102CE00033400C12012606FA04F41688344013B15E
:102CF0000CB1012000E0002070BD00000010014078
:102D00000044004000480040004C0040005000409B
:102D10000014014010B50022002340F66A14A142BD
:102D200000D100BF0A1201249440A3B2DC43048006
:102D300010BD000000B587B001210420FEF71AFC89
:102D400001218804FEF749FC02208DF818000020BC
:102D50008DF81A0001208DF81B0000208DF8190055
:102D60004FF40060059005A99B48FEF7BDF94FF4AC
:102D70008060059005A99848FEF7B6F907220A2158
:102D80009548FEF73CFA07220B219348FEF737FAE5
:102D90004FF4E13001900020ADF80800ADF80A00D2
:102DA000ADF80C00ADF810000C20ADF80E0001A934
:102DB0008A48FFF7FFFD01218848FFF783FE0122C3
:102DC00040F225518548FFF733FF07B000BD70B5CD
:102DD00004460D460BE014F8011B8048FFF79DFEEA
:102DE00000BF40217D48FFF748FF0028F9D0281E8A
:102DF000A5F10105EFD170BD10B588B004460020E3
:102E000077494872486008727648086001210420BA
:102E1000FEF7B0FB01212020FEF7F0FB02208DF829
:102E20001C0000208DF81E0001208DF81F000020DE
:102E30008DF81D00C020069006A96748FEF754F9DA
:102E4000082206216448FEF7DAF9082207216248C1
:102E5000FEF7D5F902940020ADF80C00ADF80E0095
:102E6000ADF81000ADF814000C20ADF8120002A966
:102E70005D48FFF79FFD01215B48FFF723FE01221C
:102E800040F225515848FFF7D3FE4FF4A060FDF7FC
:102E90008DFD47208DF8040000208DF805008DF889
:102EA000060001208DF8070001A8FDF784FD01212F
:102EB0004D48FFF707FE08B010BD70B504460D463B
:102EC0000BE014F8011B4848FFF727FE00BF402124
:102ED0004548FFF7D2FE0028F9D0281EA5F10105CC
:102EE000EFD170BD10B588B0044600203F4948724C
:102EF000486008723E48086001210C20FEF73AFB4A
:102F000001210805FEF769FB02208DF81C00002056
:102F10008DF81E0001208DF81F0000208DF81D0087
:102F20000420069006A93348FEF7DEF84FF48050DF
:102F3000069006A92848FEF7D7F8082202212D4856
:102F4000FEF75DF908220C212348FEF758F9029498
:102F50000020ADF80C00ADF80E00ADF81000ADF893
:102F600014000C20ADF8120002A92348FFF722FD3F
:102F700001212148FFF7A6FD012240F225511E48FC
:102F8000FFF756FE35208DF8040000208DF805006F
:102F900001208DF806008DF8070001A8FDF70BFD54
:102FA00001211548FFF78EFD08B010BD70B504462D
:102FB0000D460BE014F8011B0F48FFF7AEFD00BFF4
:102FC00040210D48FFF759FE0028F9D0281EA5F131
:102FD0000105EFD170BD000000080240004800402C
:102FE00058030020F4000020001401406403002076
:102FF00020020020000C02400050004030B525485F
:1030000000684FF47A72B0FBF2F1481EB0F1807F95
:1030100001D301201BE0481E4FF0E0225061501701
:103020000F22002807DA13071D0E1B4B00F00F04B8
:10303000241F1D5503E013071C0E184B1C5400BF22
:1030400000204FF0E022906107201061002008B1BD
:1030500000BFFEE730BD1249086000BF1049096893
:103060000029FBD17047002106E0082100BF0A1E9D
:10307000A1F1010399B2FAD1021EA0F10100F4D12D
:1030800070470748006820B105480068401E0449A1
:10309000086070470000002018ED00E000E400E048
:1030A000280000201CB501212020FEF763FA4FF410
:1030B000E060009000208DF8040003208DF80500EA
:1030C00001208DF8070069464D48FEF70DF81CBD3C
:1030D00038B50020009000244FF480714848FEF776
:1030E00065F88DF800004FF400714548FEF75EF872
:1030F0008DF801004FF480614148FEF757F88DF8D4
:1031000002004048007800284AD09DF8000028B10D
:103110009DF8010010B19DF80200E8BB002039497C
:1031200008706420FFF797FF4FF480713448FEF772
:103130003DF88DF800004FF400713148FEF736F885
:103140008DF801004FF480612D48FEF72FF88DF8BF
:1031500002009DF8000040B99DF80100012804D14B
:103160009DF80200012800D101249DF800000128EB
:1031700007D19DF8010020B99DF80200012800D177
:1031800002249DF80000012818D19DF801000128B3
:1031900014D19DF8020000E002E078B903240DE0AC
:1031A0009DF80000012809D19DF80100012805D1F2
:1031B0009DF80200012801D112490870204638BD4F
:1031C00038B5012400254FF6FF7001F0B7FA4FF62D
:1031D000FF7000230CA24FF48C710090642002F069
:1031E00043FF09E0FFF774FF0A49087008460078BA
:1031F00010B1084605780024002CF3D1E8B238BDA0
:10320000001402402F000020C7EBCAE4C8EBB0B4A2
:10321000BCFC00002E0000201CB5044630A103C9F0
:10322000CDE900018DF8034005216846FFF745FE12
:103230001CBD1CB504462CA103C9CDE900018DF8C5
:10324000034005216846FFF738FE1CBD08B528A0DD
:103250000068009004216846FFF72FFE08BD08B5FE
:1032600024A00068009004216846FFF726FE08BDF0
:1032700008B521A00068009004216846FFF71DFEF4
:1032800008BD08B51DA00068009004216846FFF73E
:1032900014FE08BD08B51AA0006800900421684615
:1032A000FFF70BFE08BD08B516A0006800900421CA
:1032B0006846FFF702FE08BD1CB513A103C9CDE99E
:1032C000000105216846FFF7F8FD1CBD1CB510A1E3
:1032D00003C9CDE9000105216846FFF7EEFD1CBDDD
:1032E0007E030900EF0000007E033100EF000000C4
:1032F0007E0201EF7E0202EF7E0203EF7E0204EF08
:103300007E0205EF7E0206EF7E030701EF0000005C
:103310007E030700EF0000001CB501212020FEF70E
:1033200029F9FF20009001208DF8040000208DF87D
:10333000060003208DF8050000208DF8070069467F
:103340003B48FDF7D1FE01213948FDF749FF022135
:103350003748FDF745FF04213548FDF741FF0821B7
:103360003348FDF73DFF10213148FDF739FF20219B
:103370002F48FDF735FF40212D48FDF731FF802113
:103380002B48FDF72DFF1CBD1CB501210420FEF7C5
:10339000F1F84FF40050009001208DF80400002057
:1033A0008DF8060003208DF8050000208DF8070039
:1033B00069462048FDF798FE4FF400511D48FDF77F
:1033C00011FF1CBD10B5002410E04FF40051194846
:1033D000FDF706FFC820FFF73EFE4FF400511548E9
:1033E000FDF700FFC820FFF736FE641C032CECDB62
:1033F00010BD10B54FF400510E48FDF7F1FE4FF42B
:10340000FA70FFF728FE4FF400510A48FDF7EAFE74
:1034100010BD10B54FF400510648FDF7E1FEC8207D
:10342000FFF719FE4FF400510248FDF7DBFE10BD17
:103430000014024000080240F648F74908600846B8
:103440000068F6490860F648F649086070472DE9BB
:10345000F04F2DED088B8BB0054600240026002789
:10346000A046A146142101A809F04BF9A24600BFCD
:1034700000BF2046611CCCB2285C2C28F9D1002664
:1034800008E02046611CCCB22A5C3046711CCEB2EA
:1034900006A90A54285D2C28F3D1052E3ADD9DF8A3
:1034A000190030389DF81810303901EB810100EB1C
:1034B000410000F0FF0A0AF1080000F0FF0A0A20AC
:1034C0009AFBF0F03030C0B28DF804000A209AFB6D
:1034D000F0F100FB11A03030C0B28DF805003A20A9
:1034E0008DF806009DF81A008DF807009DF81B0066
:1034F0008DF808003A208DF809009DF81C008DF821
:103500000A009DF81D008DF80B00C748DDE9011287
:1035100006C01AE030208DF804008DF805003A202E
:103520008DF8060030208DF807008DF808003A204D
:103530008DF8090030208DF80A008DF80B00BA488C
:10354000019901609DF808100171601CC4B2002649
:1035500008E02046611CCCB22A5C3046711CCEB219
:1035600006A90A54285D2C28F3D1052E4EDD9DF8BE
:10357000190030389DF81810303901EB810100EB4B
:103580004100C7B29DF81B0030389DF81A10303941
:1035900001EB810100EB410000F0FF089DF81D00E8
:1035A00030384FF47A7110FB01F19DF81E0030386D
:1035B00000EBC00202EB001001EB80019DF81F0040
:1035C000303800EB800001EB40019DF820003038DE
:1035D00001EB0009484609F053FA9FED940B53ECB8
:1035E000102B09F0CDF941EC190B3C2098FBF0F0C1
:1035F00000EB070B584609F032FA53EC192B09F08F
:10360000A6F809F076FA8B49086004E09FED8A0A73
:10361000884880ED000A601CC4B2285D4E2802D1A3
:103620008649087002E05320844908700026A01CD7
:10363000C4B208E02046611CCCB22A5C3046711C42
:10364000CEB206A90A54285D2C28F3D1052E55DDEB
:103650009DF818003038642110FB01F19DF8190025
:10366000303800EB800001EB40019DF81A00303843
:103670000844C7B29DF81C0030389DF81B10303943
:1036800001EB810100EB410000F0FF089DF81E00F6
:1036900030384FF47A7110FB01F19DF81F0030387B
:1036A00000EBC00202EB001001EB80019DF820004E
:1036B000303800EB800001EB40019DF821003038EC
:1036C00001EB0009484609F0DBF99FED580B53EC7C
:1036D000102B09F055F941EC190B3C2098FBF0F048
:1036E00000EB070B584609F0BAF953EC192B09F017
:1036F0002EF809F0FEF95249086004E09FED4E0AE9
:103700004F4880ED000A601CC4B2285D452802D1F4
:103710004C49087002E057204A490870A01CC4B206
:10372000601CC4B20026601CC4B208E02046611CC4
:10373000CCB22A5C3046711CCEB206A90A54285D70
:103740002C28F3D19DF819109DF81800303800EBA3
:10375000800001EB40003038C0B28DF804000BB09F
:10376000BDEC088BBDE8F08FF0B587B006460024AD
:1037700000BF2046611CCCB2305C2C28F9D100255A
:1037800008E02046611CCCB2325C2846691CCDB2F0
:1037900002A90A54305D2C28F3D1012D05D19DF8E2
:1037A000080030382849087002E0002026490870D7
:1037B000601CC4B2002508E02046611CCCB2325C1B
:1037C0002846691CCDB202A90A54305D2C28F3D1D9
:1037D000012D05D19DF8080030381B49487002E0E2
:1037E000002019494870601CC4B2002508E020463A
:1037F000611CCCB2325C2846691CCDB202A90A54C5
:10380000305D2C28F3D1002D34DD00200E49887066
:10381000002728E09803002030000020340000201A
:103820001C07002038000020800700200000000056
:10383000804F22413C000020000000004400002096
:1038400040000020450000208403002002A8C05D45
:1038500030387B49897801EB810100EB41007849E0
:103860008870781CC7B2AF42F0DB7548807820B909
:1038700007B0F0BD002072498870601CC4B20025FA
:1038800008E02046611CCCB2325C2846691CCDB2EF
:1038900002A90A54305D2C28F3D1002D14DD00203C
:1038A0006749486000270CE002A8C05D30386449D1
:1038B000496801EB810100EB410061494860781CD7
:1038C000C7B2AF42F0DB02E000205D494860601CF7
:1038D000C4B2002508E02046611CCCB2325C284608
:1038E000691CCDB202A90A54305D2C28F3D1002DF9
:1038F00014DD00205249087200270CE002A8C05DC8
:1039000030384F49097A01EB810100EB41004C4905
:103910000872781CC7B2AF42F0DB02E000204849D1
:103920000872601CC4B2002508E02046611CCCB2BD
:10393000325C2846691CCDB202A90A54305D2C289D
:10394000F3D1002D14DD00203D49C86000270CE0B4
:1039500002A8C05D30383A49C96801EB810100EB2B
:1039600041003749C860781CC7B2AF42F0DB02E0C3
:1039700000203349C860601CC4B2002508E020461E
:10398000611CCCB2325C2846691CCDB202A90A5433
:10399000305D2C28F3D1002D14DD00202849087457
:1039A00000270CE002A8C05D30382549097C01EBF6
:1039B000810100EB410022490874781CC7B2AF4274
:1039C000F0DB02E000201E4908741D484078012801
:1039D0001ED11CA009F018FA062225A1304608F0D5
:1039E000A9FE30B916488278017823A009F00CFAB4
:1039F0000BE0062229A1304608F09CFE28B91048A9
:103A00008278017827A009F0FFF92FA009F0FCF9CE
:103A10000B48007C0A49C968CDE900100848037AC0
:103A20004268417830A009F0EFF905484078044930
:103A30000978884202D131A009F0E6F900BF17E702
:103A4000840300202D2D2D2D2D2D2D2D2D2D2D2DB3
:103A50002D2D2D2D2D2D2D2D2D2D2D2D2D2D2D2D96
:103A60002D2D2D2D2D2D2D2D2D2D2D2D2D0D0A00F6
:103A70002447504753560000D3EFBEE4D7DCCAFDBD
:103A80003A256420BFC9BCFB475053CEC0D0C7D72E
:103A9000DCCAFD3A25640D0A0D0A000024424447A1
:103AA00053560000D3EFBEE4D7DCCAFD3A256420AC
:103AB000BFC9BCFBB1B1B6B7CEC0D0C7D7DCCAFD59
:103AC0003A25640D0A0D0A0009CEC0D0C7B1E0BA8C
:103AD000C509D1F6BDC709B7BDCEBBBDC709D4D88E
:103AE000D4EBB1C80D0A0000256409256409092535
:103AF000640925640925640D0A0000002D2D2D2D73
:103B00002D2D2D2D2D2D2D2D2D2D2D2D2D2D2D2DE5
:103B10002D2D2D2D2D2D2D2D2D2D2D2D2D2D2D2DD5
:103B20002D2D2D2D2D0D0A0D0A00000070B5044617
:103B30000D4616463848068004F10D018AB219393F
:103B400088B22B46294601F043FF05F10D0083B2F0
:103B5000193881B22246204601F03AFF6A1C91B220
:103B6000621C90B200F0F8FC6A1C91B2621E90B226
:103B700000F0F2FC6A1E91B2621C90B200F0ECFC04
:103B80006A1E91B2621E90B200F0E6FC062229463F
:103B9000204601F097FF70BD70B504460D461646ED
:103BA0001D4806802946204600F0D6FC611C88B2DC
:103BB000294600F0D1FC681C81B2204600F0CCFC04
:103BC0006A1C91B2621C90B200F0C6FC70BD10B5C8
:103BD0001248808845F2105188421AD100F0DCF971
:103BE00010B90F480F4948600E4890F8300040F077
:103BF00080000C4981F83000084690F830000749F1
:103C0000897901F001010843064981F8300000205C
:103C100010BD0120FCE7000094000020C407002034
:103C2000714000085C00002010B50220FFF71BFA6D
:103C300010BD1CB58F48006840F002008D49086037
:103C40000120032100230246CDE9001081028A48A9
:103C500005F01CFB0120032100230246CDE90010E2
:103C6000C103854805F012FB1CBD10B582480068F1
:103C700020F04040804908600846006840F08040DD
:103C8000086001207D4908607D49C1F8A8021E2016
:103C9000FFF7E9F9002079490860FFF7C5FF002028
:103CA0007749C1F8A80210BD10B57348006820F02C
:103CB0004040714908600846006840F08040086054
:103CC00001206E49143908601E20FFF7CCF900204E
:103CD0006B49C1F8BC02FFF7A7FF012067490860E4
:103CE00010BD10B500246448006820F040406249CF
:103CF0000860084600680860012060490860604963
:103D0000C1F8A802FFF790FF09E0601CC4B2FA2CCA
:103D100003DDFFF7C9FF012010BDFFF785FF5748FE
:103D2000803800680028F0D154491439086000BF79
:103D3000F2E710B500205149143908604E48006878
:103D400020F040404C4908600846006840F0804040
:103D50000860FFF769FF00204949C1F8BC02FFF77E
:103D600063FF0120454914390860FFF75DFF00201B
:103D70004349C1F8A80210BD10B500203F491439CD
:103D800008603D48006820F040403B490860084614
:103D9000006840F080400860FFF746FF0120384986
:103DA000C1F8BC02FFF740FF012034491439086014
:103DB000FFF73AFF00203249C1F8A80210BD70B5E4
:103DC00004462D48006820F040402B490860084612
:103DD000006840F0804008600020284914390860DD
:103DE000FFF722FF002512E0E00924490860600681
:103DF000040E01202249C1F8A802FFF715FF002098
:103E00001E4914390860FFF70FFF681CC5B2082D62
:103E1000EADB70BD70B5054600241748006820F045
:103E20004040154908600846006808601E20FFF7FA
:103E30001AF9002613E00020104914390860FFF732
:103E4000F3FE01200E49C1F8A8026006040E0B48DB
:103E50008038006808B1601CC4B2701CC6B2082E5D
:103E6000E9DB15B9FFF788FF01E0FFF762FF2046A5
:103E700070BD00003038024000040240BC82404265
:103E8000008040422DE9F04104460E4617464FF0AF
:103E90000008FFF7EAFE2820FFF791FFFFF721FF58
:103EA0002012FFF78CFFFFF71CFFE0B2FFF787FF40
:103EB000FFF717FF00250BE0705DFFF780FFFFF7AE
:103EC00010FF8046B8F1000F00D003E0681CC5B2B7
:103ED000BD42F1DB00BFFFF7E7FE4046BDE8F081E1
:103EE00038B50546002400208DF800008DF80150FB
:103EF00000BF09E09DF80000D649095D0844C0B242
:103F00008DF80000601CC4B2B82CF3D39DF80000FB
:103F1000C043401CC0B28DF80000B822CD4948F221
:103F20004700FFF7AFFF0222694648F2FF00FFF7A4
:103F3000A9FF002038BD2DE9F04105460F46164681
:103F4000FFF793FE2820FFF73AFFFFF7CAFE28127B
:103F5000FFF735FFFFF7C5FEE8B2FFF730FFFFF7C9
:103F6000C0FEFFF782FE2920FFF729FFFFF7B9FE09
:103F700000240BE0711EA14201D0012100E00021CC
:103F80000846FFF747FF3855601CC4B2B442F1DB66
:103F9000FFF78AFEBDE8F0811FB5AF48006840F02A
:103FA0004000AD490860012000210B460A46CDE9DA
:103FB00000100102A94805F069F90120032100233E
:103FC0000246CDE90010C103A44805F05FF9FFF7F0
:103FD00030FE0020A24908600A20FFF73CF80120CB
:103FE000A049C1F8BC020A20FFF735F80020009074
:103FF000034602464FF480710190984805F046F957
:104000006420FFF728F8042202A948F24010FFF7C5
:1040100092FF00208DF80C0093A102A808F07CFB11
:1040200020BB02208DF80800012202A948F24000BE
:10403000FFF728FF012202A948F24700FFF77BFFA4
:104040009DF80800602802DA0120FFF749FF0A20E6
:10405000FFF701F800208DF80800012202A948F2BC
:104060004000FFF70FFF002004B010BD0020FBE769
:1040700071B583B0002400267D480078401C7C493F
:104080000870084600780A2190FBF1F201FB12004B
:1040900018B1774800780A287EDA012203A948F28D
:1040A0004E10FFF748FF00200190012201A948F2BD
:1040B0004E10FFF7E7FE9DF80C0000F00F000028FF
:1040C0006AD09DF80C0000F00F000628E4DA9DF895
:1040D0000C0000F00F01FF208840C0B2019065483D
:1040E00090F820509DF80400C043C0B240F0C000DA
:1040F000604981F82000084681898182C18AC18394
:1041000000244CE05B4890F820000121A1400840C9
:1041100020B3594931F81400042202A9FFF70BFF1C
:10412000544890F8300000F00100C0B19DF808003C
:104130009DF8091000EB012081B24E48163020F89E
:1041400014109DF80A009DF80B1000EB0120C0F53B
:10415000487081B247480C3020F814101BE09DF8DD
:1041600008009DF8091000EB012044490988081A4D
:1041700081B240480C3020F814109DF80A009DF8D8
:104180000B1000EB01203D494988081A81B23948DB
:10419000163020F8141000E031E0601CC4B2052C89
:1041A000B0DB01263348808934490988884205DC20
:1041B0003048C08A3149498888421DDD9DF80C008D
:1041C00000F00F0001280ADD2A48C08929498881AA
:1041D0000846008BC8820020254908700FE025485A
:1041E000808A244988810846C08BC8828020039039
:1041F000084680F8205002E000201D4908709DF814
:104200000C0000F08F00802819D11A4890F8200087
:1042100000F0800038B1174890F8200020F08000AE
:10422000144981F820004FF6FF7012498881C88236
:10423000084690F8200000F0E00081F820000C48CB
:104240000078F02802DD0A2009490870304604B0E1
:1042500070BD00007EEA05083038024000180240B8
:10426000BC024342000043423931343700000000B1
:10427000900000205C00002036EB0508C4070020F9
:1042800001B5BDF800000090BDF80000FB490880B2
:1042900008BD01B5BDF800000090BDF80000F74969
:1042A000891C088008BD08B5F448801C008800906F
:1042B000BDF8000008BDF14A1080921C11807047C3
:1042C00010B504462046FFF7DBFF0520FEF7CBFEC6
:1042D000FFF7E9FF10BDEA480089E8490880704708
:1042E000E649891C0880704730B5014601F01F047B
:1042F000C1F34513CA0AE50205EB43151544A8B2FC
:1043000030BD00BF011EA0F10102D0B2FAD170474A
:1043100010B502460C46DA48808845F210518842B2
:104320001FD1D7494889FFF7ABFF1012FFF7B1FF44
:10433000D3494989491C88B2FFF7A2FFD0B2FFF7E1
:10434000A8FFCF498889FFF79BFF2012FFF7A1FF45
:10435000CB498989491C88B2FFF792FFE0B2FFF789
:1043600098FF10BD2DE9F04304460D4600260027B6
:10437000B146C3480088A04203DDC1484088A84236
:1043800002DC0020BDE8F08329462046FFF7C0FF8D
:10439000BB48808845F21051884203D14FF4385011
:1043A000FFF76EFFFFF77FFF06460220FFF7A9FF2A
:1043B000FFF779FF0646B248808845F210518842DF
:1043C0000AD10220FFF79DFFFFF76DFF8146F7B28C
:1043D0004FF6FF7000EA0727A948808845F2105180
:1043E000884206D1F012C002B91240EA411040EAF8
:1043F000E9284046C6E700B5A148808845F210513B
:10440000884203D14FF42450FFF73AFF00BD00B5B6
:104410009B48808845F21051884203D14FF42050C8
:10442000FFF72EFF00BD70B5054600240026944816
:10443000808845F2105188427ED1082D1CD2DFE8D9
:1044400005F00406090C0F12151800BF14E044F023
:10445000800411E044F040040EE044F0C0040BE09E
:1044600044F0200408E044F0600405E044F0A004B7
:1044700002E044F0E00400BF00BF8148808845F2BC
:104480001051884201D14FF458567D48808845F23A
:104490001051884201D044F0080421463046FFF70D
:1044A0000AFF7748808845F21051884253D17449F9
:1044B0004889FFF7E5FE0020FFF7EBFE70494989C8
:1044C000491C88B2FFF7DCFE0020FFF7E2FE6C49D2
:1044D0004989891C88B2FFF7D3FE69490988491EBA
:1044E000C1F30F20FFF7D5FE65494989C91C88B281
:1044F000FFF7C6FE62490978491EC8B2FFF7C9FE38
:104500005F498889FFF7BCFE0020FFF7C2FE5C49C7
:104510008989491C88B2FFF7B3FE0020FFF7B9FE76
:1045200057498989891C88B2FFF7AAFE54494988EE
:10453000491EC1F30F2000E00DE0FFF7AAFE50492D
:104540008989C91C88B2FFF79BFE4D498978491EAD
:10455000C8B2FFF79EFE70BD30B504460D46294631
:104560002046FFF7D5FEFFF7B6FE464800884349D0
:10457000891C088030BD70B505460E46144631468C
:104580002846FFF7C5FEFFF7A6FE3C48801C0480C6
:1045900070BD30B504460D463948808845F210514B
:1045A00088421FD136494889FFF76AFE2012FFF77B
:1045B00070FE33494989491C88B2FFF761FEE0B2B9
:1045C000FFF767FE2E498889FFF75AFE2812FFF78A
:1045D00060FE2B498989491C88B2FFF751FEE8B279
:1045E000FFF757FE2648008924490880881C02806E
:1045F00030BD10B50446F4B9002021498871F0207F
:1046000008804FF4A07048800846808845F2105119
:1046100088422ED14FF43050194908814FF4285068
:1046200048814FF42C5088814FF4F07008804FF48B
:10463000487048801DE00120114988714FF4A07036
:104640000880F02048800846808845F21051884252
:104650000FD14FF430500A4908814FF42850488157
:104660004FF42C5088814FF4487008804FF4F0705C
:1046700048800320FFF7D7FE10BD0000FE0F006C3E
:10468000C4070020940000202DE9F04104460D46A7
:104690001E46A018401E87B2A819401E1FFA80F8B7
:1046A000FE48808845F21051884245D1FB4948892F
:1046B000FFF7E6FD2012FFF7ECFDF8494989491C98
:1046C00088B2FFF7DDFDE0B2FFF7E3FDF34949896A
:1046D000891C88B2FFF7D4FD3812FFF7DAFDEF49E5
:1046E0004989C91C88B2FFF7CBFDF8B2FFF7D1FDAD
:1046F000EA498889FFF7C4FD2812FFF7CAFDE74998
:104700008989491C88B2FFF7BBFDE8B2FFF7C1FDFC
:10471000E2498989891C88B2FFF7B2FD4FEA282057
:10472000FFF7B7FDDD498989C91C88B2FFF7A8FDED
:1047300008F0FF00FFF7ADFDBDE8F08170B504465D
:104740000026D64805884088454300210846FFF7E3
:10475000DFFDFFF7C0FD00BF02E0D1480480761CFA
:10476000AE42FAD370BD1CB5CE48006840F0780068
:10477000CC4908600846006840F00200086008461E
:10478000006840F001000860C6480830006840F04A
:104790000100C449083108600120032100230222DE
:1047A000CDE900104CF23371BF4804F06FFD0120D9
:1047B000032100230222CDE900104FF68071BB488F
:1047C00004F064FD0120032100230222CDE9001042
:1047D0001146B74804F05AFD0120032100230222AC
:1047E000CDE900100103B24804F050FD012003217F
:1047F00000230246CDE900104102AE4804F046FD18
:104800000120AD4908600C220021A74804F01EFDDC
:104810000C220121A44804F019FD0C220421A24815
:1048200004F014FD0C2205219F4804F00FFD0C221A
:1048300008219D4804F00AFD0C2209219A4804F041
:1048400005FD0C220A21984804F000FD0C220E21DF
:10485000954804F0FBFC0C220F21934804F0F6FC71
:104860000C220721914804F0F1FC0C2208218F480A
:1048700004F0ECFC0C2209218C4804F0E7FC0C222B
:104880000A218A4804F0E2FC0C220B21874804F03C
:10489000DDFC0C221146854804F0D8FC0C220D21C9
:1048A000824804F0D3FC0C220E21804804F0CEFC98
:1048B0000C220F217D4804F0C9FC0C2201217C4808
:1048C00004F0C4FC0C221146794804F0BFFC00201F
:1048D0004FF020418861C861C1F81C010846806919
:1048E00040F4805088610846806940F480408861C7
:1048F0000846806940F0100088610846C069C861B8
:104900000846C06940F00F00C8610846C06940F41D
:104910007050C86169480068C1F81C010846D0F8A9
:104920001C0140F00900C1F81C010846D0F81C0128
:1049300040F40060C1F81C010846806940F00100A5
:1049400088613220FEF787FB4FF45A40FFF798FC4E
:10495000FFF7A9FC514988804FF45B40FFF790FCBA
:10496000FFF7A1FC4D498880084680884FF6FF710B
:1049700001EA0020494988804FF45C40FFF780FC41
:10498000FFF791FC454989880843444988800846D7
:104990008088B0F5004F02D145F2105088803F4822
:1049A000808845F2105188421CD14448006820F0AC
:1049B0000F004FF02041C1F81C010846D0F81C013F
:1049C00020F47060C1F81C010846D0F81C0140F0CA
:1049D0000300C1F81C010846D0F81C0140F4007027
:1049E000C1F81C012D48808845F21051884267D1DA
:1049F00055214FF47040FFF75EFCAA214FF20100F1
:104A0000FFF759FC52214FF20200FFF754FC082136
:104A10004FF20300FFF74FFC01214FF20400FFF7B4
:104A20004AFC0D214FF43040FFF745FC0D214BF2BD
:104A30000100FFF740FC0D214BF20200FFF73BFCA9
:104A400034214FF43640FFF736FC34214BF201603D
:104A5000FFF731FC34214BF20260FFF72CFC0D21F3
:104A60004FF43140FFF727FC0D214BF20110FFF707
:104A700022FC0D214BF20210FFF71DFC34214FF4F4
:104A80003740FFF718FC34214BF20170FFF713FC9D
:104A900034214BF20270FFF70EFC12E0C407002035
:104AA0000010006C30380240000C02400010024040
:104AB0000018024000000240A40240421C0100A075
:104AC000FDE300214FF43240FFF7F5FB00214BF2EC
:104AD0000120FFF7F0FB00214BF20220FFF7EBFB78
:104AE00024214FF43840FFF7E6FB24214BF6010068
:104AF000FFF7E1FB24214BF60200FFF7DCFB01216D
:104B00004FF43F40FFF7D7FB0F214FF43340FFF73F
:104B1000D2FB0F214BF20130FFF7CDFB0F214BF2FF
:104B20000230FFF7C8FB34214FF43940FFF7C3FBD5
:104B300034214BF60110FFF7BEFB34214BF6021077
:104B4000FFF7B9FB08214FF43540FFF7B4FB08210C
:104B50004BF20150FFF7AFFB08214BF20250FFF779
:104B6000AAFB03214FF44240FFF7A5FB24214FF499
:104B70003A40FFF7A0FB24214BF60120FFF79BFBF7
:104B800024214BF60220FFF796FB00214FF43C4016
:104B9000FFF791FB78214BF60140FFF78CFB0021DA
:104BA0004BF60240FFF787FB00214FF43D40FFF733
:104BB00082FB78214BF60150FFF77DFB00214BF67D
:104BC0000250FFF778FB00214FF43E40FFF773FBE4
:104BD00064214BF60160FFF76EFB00214FF451405A
:104BE000FFF769FB33214DF20110FFF764FB002151
:104BF0004DF20210FFF75FFB34214DF20310FFF777
:104C00005AFB00214DF20410FFF755FB3A214DF2FB
:104C10000510FFF750FB00214DF20610FFF74BFB8C
:104C20004A214DF20710FFF746FB00214DF2081014
:104C3000FFF741FB5C214DF20910FFF73CFB00211F
:104C40004DF20A10FFF737FB81214DF20B10FFF7F1
:104C500032FB00214DF20C10FFF72DFBA6214DF287
:104C60000D10FFF728FB00214DF20E10FFF723FB7C
:104C7000E5214DF20F10FFF71EFB01214DF2101040
:104C8000FFF719FB13214DF21110FFF714FB01215F
:104C90004DF21210FFF70FFB54214DF21310FFF7E6
:104CA0000AFB01214DF21410FFF705FB82214DF2A2
:104CB0001510FFF700FB01214DF21610FFF7FBFA6C
:104CC000CA214DF21710FFF7F6FA02214DF2181023
:104CD000FFF7F1FA00214DF21910FFF7ECFA02216B
:104CE0004DF21A10FFF7E7FA01214DF21B10FFF702
:104CF000E2FA02214DF21C10FFF7DDFA34214DF2E9
:104D00001D10FFF7D8FA02214DF21E10FFF7D3FA5B
:104D100067214DF21F10FFF7CEFA02214DF220104D
:104D2000FFF7C9FA84214DF22110FFF7C4FA0221DE
:104D30004DF22210FFF7BFFAA4214DF22310FFF726
:104D4000BAFA02214DF22410FFF7B5FAB7214DF25D
:104D50002510FFF7B0FA02214DF22610FFF7ABFA4B
:104D6000CF214DF22710FFF7A6FA02214DF22810AD
:104D7000FFF7A1FADE214DF22910FFF79CFA02217C
:104D80004DF22A10FFF797FAF2214DF22B10FFF7A0
:104D900092FA02214DF22C10FFF78DFAFE214DF20E
:104DA0002D10FFF788FA03214DF22E10FFF783FA3A
:104DB00010214DF22F10FFF77EFA03214DF2301033
:104DC000FFF779FA33214DF23110FFF774FA03211E
:104DD0004DF23210FFF76FFA6D214DF23310FFF7ED
:104DE0006AFA00214FF45240FFF765FA33214DF281
:104DF0000120FFF760FA00214DF20220FFF75BFA75
:104E000034214DF20320FFF756FA00214DF2042021
:104E1000FFF751FA3A214DF20520FFF74CFA002135
:104E20004DF20620FFF747FA4A214DF20720FFF71F
:104E300042FA00214DF20820FFF73DFA5C214DF2C5
:104E40000920FFF738FA00214DF20A20FFF733FA64
:104E500081214DF20B20FFF72EFA00214DF20C209C
:104E6000FFF729FAA6214DF20D20FFF724FA0021C1
:104E70004DF20E20FFF71FFAE5214DF20F20FFF74C
:104E80001AFA01214DF21020FFF715FA13214DF205
:104E90001120FFF710FA01214DF21220FFF70BFA53
:104EA00054214DF21320FFF706FA01214DF2142090
:104EB000FFF701FA82214DF21520FFF7FCF90121DD
:104EC0004DF21620FFF7F7F9CA214DF21720FFF730
:104ED000F2F902214DF21820FFF7EDF900214DF211
:104EE0001920FFF7E8F902214DF21A20FFF7E3F944
:104EF00001214DF21B20FFF7DEF902214DF21C20AB
:104F0000FFF7D9F934214DF21D20FFF7D4F9022122
:104F10004DF21E20FFF7CFF967214DF21F20FFF75A
:104F2000CAF902214DF22020FFF7C5F984214DF284
:104F30002120FFF7C0F902214DF22220FFF7BBF933
:104F4000A4214DF22320FFF7B6F902214DF22420CF
:104F5000FFF7B1F9B7214DF22520FFF7ACF9022197
:104F60004DF22620FFF7A7F9CF214DF22720FFF7BA
:104F7000A2F902214DF22820FFF79DF9DE214DF222
:104F80002920FFF798F902214DF22A20FFF793F923
:104F9000F2214DF22B20FFF78EF902214DF22C2049
:104FA000FFF789F9FE214DF22D20FFF784F9032147
:104FB0004DF22E20FFF77FF910214DF22F20FFF741
:104FC0007AF903214DF23020FFF775F933214DF2C4
:104FD0003120FFF770F903214DF23220FFF76BF912
:104FE0006D214DF23320FFF766F900214FF4534055
:104FF000FFF761F933214DF20130FFF75CF9002131
:105000004DF20230FFF757F934214DF20330FFF72C
:1050100052F900214DF20430FFF74DF93A214DF2DB
:105020000530FFF748F900214DF20630FFF743F94C
:105030004A214DF20730FFF73EF900214DF20830CA
:10504000FFF739F95C214DF20930FFF734F90021FF
:105050004DF20A30FFF72FF981214DF20B30FFF7A7
:105060002AF900214DF20C30FFF725F9A6214DF267
:105070000D30FFF720F900214DF20E30FFF71BF93C
:10508000E5214DF20F30FFF716F901214DF21030F6
:10509000FFF711F913214DF21130FFF70CF901213F
:1050A0004DF21230FFF707F954214DF21330FFF79C
:1050B00002F901214DF21430FFF7FDF882214DF283
:1050C0001530FFF7F8F801214DF21630FFF7F3F82D
:1050D000CA214DF21730FFF7EEF802214DF21830D9
:1050E000FFF7E9F800214DF21930FFF7E4F802214B
:1050F0004DF21A30FFF7DFF801214DF21B30FFF7B8
:10510000DAF802214DF21C30FFF7D5F834214DF2C8
:105110001D30FFF7D0F802214DF21E30FFF7CBF81B
:1051200067214DF21F30FFF7C6F802214DF2203003
:10513000FFF7C1F884214DF22130FFF7BCF80221BE
:105140004DF22230FFF7B7F8A4214DF22330FFF7DC
:10515000B2F802214DF22430FFF7ADF8B7214DF23D
:105160002530FFF7A8F802214DF22630FFF7A3F80B
:10517000CF214DF22730FFF79EF802214DF2283063
:10518000FFF799F8DE214DF22930FFF794F802215C
:105190004DF22A30FFF78FF8F2214DF22B30FFF756
:1051A0008AF802214DF22C30FFF785F8FE214DF2EE
:1051B0002D30FFF780F803214DF22E30FFF77BF8FA
:1051C00010214DF22F30FFF776F803214DF23030E9
:1051D000FFF771F833214DF23130FFF76CF80321FE
:1051E0004DF23230FFF767F86D214DF23330FFF7A3
:1051F00062F800214FF45440FFF75DF833214DF27F
:105200000140FFF758F800214DF20240FFF753F834
:1052100034214DF20340FFF74EF800214DF20440D7
:10522000FFF749F83A214DF20540FFF744F8002115
:105230004DF20640FFF73FF84A214DF20740FFF7D5
:105240003AF800214DF20840FFF735F85C214DF2A5
:105250000940FFF730F800214DF20A40FFF72BF824
:1052600081214DF20B40FFF726F800214DF20C4052
:10527000FFF721F8A6214DF20D40FFF71CF80021A1
:105280004DF20E40FFF717F8E5214DF20F40FFF702
:1052900012F801214DF21040FFF70DF813214DF2E5
:1052A0001140FFF708F801214DF21240FFF703F813
:1052B00054214DF21340FEF7FEFF012100E029E3E7
:1052C0004DF21440FEF7F7FF82214DF21540FEF734
:1052D000F2FF01214DF21640FEF7EDFFCA214DF21B
:1052E0001740FEF7E8FF02214DF21840FEF7E3FFFA
:1052F00000214DF21940FEF7DEFF02214DF21A4067
:10530000FEF7D9FF01214DF21B40FEF7D4FF022129
:105310004DF21C40FEF7CFFF34214DF21D40FEF749
:10532000CAFF02214DF21E40FEF7C5FF67214DF274
:105330001F40FEF7C0FF02214DF22040FEF7BBFFE9
:1053400084214DF22140FEF7B6FF02214DF22240AA
:10535000FEF7B1FFA4214DF22340FEF7ACFF02217E
:105360004DF22440FEF7A7FFB7214DF22540FEF78E
:10537000A2FF02214DF22640FEF79DFFCF214DF204
:105380002740FEF798FF02214DF22840FEF793FFD9
:10539000DE214DF22940FEF78EFF02214DF22A4018
:1053A000FEF789FFF2214DF22B40FEF784FF022128
:1053B0004DF22C40FEF77FFFFE214DF22D40FEF70F
:1053C0007AFF03214DF22E40FEF775FF10214DF2BA
:1053D0002F40FEF770FF03214DF23040FEF76BFFC8
:1053E00033214DF23140FEF766FF03214DF232408A
:1053F000FEF761FF6D214DF23340FEF75CFF0021A7
:105400004FF45540FEF757FF33214DF20150FEF7A0
:1054100052FF00214DF20250FEF74DFF34214DF2B4
:105420000350FEF748FF00214DF20450FEF743FF02
:105430003A214DF20550FEF73EFF00214DF2065095
:10544000FEF739FF4A214DF20750FEF734FF0021E5
:105450004DF20850FEF72FFF5C214DF20950FEF788
:105460002AFF00214DF20A50FEF725FF81214DF25F
:105470000B50FEF720FF00214DF20C50FEF71BFFF2
:10548000A6214DF20D50FEF716FF00214DF20E50F1
:10549000FEF711FFE5214DF20F50FEF70CFF012141
:1054A0004DF21050FEF707FF13214DF21150FEF799
:1054B00002FF01214DF21250FEF7FDFE54214DF284
:1054C0001350FEF7F8FE01214DF21450FEF7F3FEE3
:1054D00082214DF21550FEF7EEFE01214DF21650DD
:1054E000FEF7E9FECA214DF21750FEF7E4FE022155
:1054F0004DF21850FEF7DFFE00214DF21950FEF775
:10550000DAFE02214DF21A50FEF7D5FE01214DF2CE
:105510001B50FEF7D0FE02214DF21C50FEF7CBFED1
:1055200034214DF21D50FEF7C6FE02214DF21E50F1
:10553000FEF7C1FE67214DF21F50FEF7BCFE0221AF
:105540004DF22050FEF7B7FE84214DF22150FEF7B8
:10555000B2FE02214DF22250FEF7ADFEA4214DF223
:105560002350FEF7A8FE02214DF22450FEF7A3FEC1
:10557000B7214DF22550FEF79EFE02214DF2265036
:10558000FEF799FECF214DF22750FEF794FE02213F
:105590004DF22850FEF78FFEDE214DF22950FEF726
:1055A0008AFE02214DF22A50FEF785FEF2214DF2CD
:1055B0002B50FEF780FE02214DF22C50FEF77BFEB1
:1055C000FE214DF22D50FEF776FE03214DF22E50B6
:1055D000FEF771FE10214DF22F50FEF76CFE0321F5
:1055E0004DF23050FEF767FE33214DF23150FEF799
:1055F00062FE03214DF23250FEF75DFE6D214DF249
:105600003350FEF758FE00214FF45640FEF753FE8C
:1056100033214DF20160FEF74EFE00214DF2026093
:10562000FEF749FE34214DF20360FEF744FE0021EF
:105630004DF20460FEF73FFE3A214DF20560FEF7A1
:105640003AFE00214DF20660FEF735FE4A214DF28A
:105650000760FEF730FE00214DF20860FEF72BFEDA
:105660005C214DF20960FEF726FE00214DF20A6032
:10567000FEF721FE81214DF20B60FEF71CFE00219A
:105680004DF20C60FEF717FEA6214DF20D60FEF7FD
:1056900012FE00214DF20E60FEF70DFEE5214DF2E7
:1056A0000F60FEF708FE01214DF21060FEF703FEC9
:1056B00013214DF21160FEF7FEFD01214DF2126043
:1056C000FEF7F9FD54214DF21360FEF7F4FD0121C0
:1056D0004DF21460FEF7EFFD82214DF21560FEF7EA
:1056E000EAFD01214DF21660FEF7E5FDCA214DF2FB
:1056F0001760FEF7E0FD02214DF21860FEF7DBFDBA
:1057000000214DF21960FEF7D6FD02214DF21A601C
:10571000FEF7D1FD01214DF21B60FEF7CCFD022109
:105720004DF21C60FEF7C7FD34214DF21D60FEF7FF
:10573000C2FD02214DF21E60FEF7BDFD67214DF254
:105740001F60FEF7B8FD02214DF22060FEF7B3FDA9
:1057500084214DF22160FEF7AEFD02214DF2226060
:10576000FEF7A9FDA4214DF22360FEF7A4FD02215E
:105770004DF22460FEF79FFDB7214DF22560FEF744
:105780009AFD02214DF22660FEF795FDCF214DF2E4
:105790002760FEF790FD02214DF22860FEF78BFD99
:1057A000DE214DF22960FEF786FD02214DF22A60CE
:1057B000FEF781FDF2214DF22B60FEF77CFD022108
:1057C0004DF22C60FEF777FDFE214DF22D60FEF7C5
:1057D00072FD03214DF22E60FEF76DFD10214DF29A
:1057E0002F60FEF768FD03214DF23060FEF763FD88
:1057F00033214DF23160FEF75EFD03214DF2326040
:10580000FEF759FD6D214DF23360FEF754FD552131
:105810004FF47040FEF74FFDAA214FF20100FEF752
:105820004AFD52214FF20200FEF745FD08214FF2DA
:105830000300FEF740FD00214FF20400FEF73BFDA0
:10584000CC214FF43140FEF736FD00214BF2011020
:10585000FEF731FD05214FF43640FEF72CFD702197
:105860004FF43740FEF727FD70214BF20170FEF731
:1058700022FD01214FF43840FEF71DFD03214BF6B8
:105880000100FEF718FD03214BF60200FEF713FDA1
:1058900003214BF60300FEF70EFD02214FF43C40BE
:1058A000FEF709FD00214BF60140FEF704FD002143
:1058B0004BF60240FEF7FFFCD0214FF44940FEF7C3
:1058C000FAFC02214CF60110FEF7F5FC50214CF6D3
:1058D0000210FEF7F0FC50214CF60310FEF7EBFC33
:1058E00050214CF60410FEF7E6FC00214FF4545012
:1058F000FEF7E1FC55214FF46850FEF7DCFC4FF455
:105900008850FEF7BDFC7820FDF7ADFB4FF4245026
:10591000FEF7B6FC0020FEF76CFE4FF6FF70FEF7B8
:105920000DFF1CBD2DE9F04F05460E461746984663
:10593000DDF824A04FF0000B781B401C1FFA80FB01
:10594000344613E021462846FEF7E2FCFEF7C3FC8E
:105950004FF0000906E0FE48A0F800A009F10100A0
:105960001FFA80F9D945F6DB601C84B24445E9DDB5
:10597000BDE8F08F2DE9F84F07460D469046994651
:10598000DDF828B0A8EB0700401C1FFA80FAA9EB4D
:105990000500401C80B20090002414E0281981B258
:1059A0003846FEF7B5FCFEF796FC002607E004FB40
:1059B0000A603BF81000E6490880701C86B2564524
:1059C000F5DB601C84B200988442E7DBBDE8F88F09
:1059D0002DE9FF4F84B081468A4600200390029053
:1059E0000698A0EB09050798A0EB0A06CDF80490ED
:1059F000CDF800A0002D01DD012705E00DB900273D
:105A000002E04FF0FF376D42002E02DD4FF001083B
:105A100006E016B94FF0000802E04FF0FF3876427A
:105A2000B54201DD2C4600E034464FF0000B21E08A
:105A3000009A91B2019A90B2FEF78EFD0398284425
:105A400003900298304402900398A04205DD039829
:105A5000001B03900198384401900298A04205DD94
:105A60000298001B02900098404400900BF1010046
:105A70001FFA80FB601C8345DADD08B0BDE8F08FBB
:105A80002DE9F04104460D4616461F46DDF8188004
:105A90002B46324629462046FFF79AFF3B462246D0
:105AA00029462046FFF794FF3B46324639462046BA
:105AB000FFF78EFF3B46324629463046FFF788FF08
:105AC000BDE8F0812DE9F04306460F4690460024DC
:105AD00045460320A0EB48093CE07A1B91B23219FD
