:020000040800F2
:1000000010990120AD03000875040008770400086A
:100010007B0400087F04000883040008000000003F
:10002000000000000000000000000000870400083D
:1000300089040008000000008B0400088D040008FB
:10004000C7030008C7030008C7030008C703000868
:10005000C7030008C7030008C7030008C703000858
:10006000C7030008C7030008C7030008C703000848
:10007000C7030008C7030008C7030008C703000838
:10008000C7030008C7030008C7030008C703000828
:10009000C7030008C7030008C7030008E3050008FA
:1000A000C7030008C7030008C7030008C703000808
:1000B000C7030008C7030008C7030008C7030008F8
:1000C000C7030008C7030008C7030008C7030008E8
:1000D000C7030008C7030008C70300080905000894
:1000E000C7030008C7030008C7030008C7030008C8
:1000F000C7030008C7030008C7030008C7030008B8
:10010000C7030008C7030008C7030008C7030008A7
:10011000C7030008F9050008C7030008C703000863
:10012000C7030008C7030008C7030008C703000887
:10013000C7030008C7030008C7030008C703000877
:10014000C7030008C7030008C7030008C703000867
:10015000C7030008C7030008C703000859050008C3
:10016000C7030008C7030008C7030008C703000847
:10017000C7030008C7030008C7030008C703000837
:10018000C7030008C7030008DFF80CD03FF07EFF6C
:1001900000480047D1030008109901200CB5002049
:1001A000019000907648006840F4803074490860FF
:1001B00000BF7348006800F4003000900198401CB4
:1001C0000190009818B90198B0F5A06FF1D16C4872
:1001D000006800F4003010B10120009001E0002020
:1001E00000900098012846D165484030006840F0F2
:1001F00080506349403108606248006840F48040A4
:10020000604908605E48083000685D490831086050
:100210000846006840F4004008600846006840F462
:10022000A05008605848091F0860081F006840F087
:100230008070091F086000BF5148006800F000701E
:100240000028F9D040F20560504908604C48083059
:10025000006820F003004A49083108600846006839
:1002600040F00200086000BF45480830006800F018
:100270000C000828F8D10CBD10B54548006840F4C2
:100280007000434908603E48006840F001003C4966
:10029000086000203A4908310860394800683D4943
:1002A0000840374908603C48091D0860081F00687D
:1002B00020F48020091F0860002031490C310860BB
:1002C000FFF76CFF4FF0006031498039086010BDC6
:1002D00070B500200022022300240221284D083599
:1002E0002D6805F00C0020B1042806D0082834D170
:1002F00007E02A4D2A4E356033E02A4D284E3560FE
:100300002FE01F4D2D1D2D68C5F380541C4D2D1D54
:100310002D6805F03F0154B1224DB5FBF1F5184EA3
:10032000361D3668C6F3881605FB06F209E01B4D3C
:10033000B5FBF1F5124E361D3668C6F3881605FB7F
:1003400006F20F4D2D1D2D68C5F301456D1C6B0088
:10035000B2FBF3F5124E356003E0104D104E3560E0
:1003600000BF00BF064D08352D68C5F303150E4EBE
:10037000705D0B4D2D68C540094E356070BD0000A5
:10038000003802400070004019544007003C024011
:1003900088ED00E0FFFFF6FE103000240024F4009A
:1003A0000000002040787D010400002006488047BE
:1003B00006480047FEE7FEE7FEE7FEE7FEE7FEE74A
:1003C000FEE7FEE7FEE7FEE7790200088901000884
:1003D00008B502F0F5FB02F047FC02F083FD07F0E0
:1003E000A3FC02F07BFC0020009007F0F9FC0090D9
:1003F0001BA03FF089FE4FF4165002F0EEFCBDF852
:1004000000004EF61471884205D0BDF8000040F699
:100410001531884203D18021144800F029FE05F0EF
:1004200030FD04F063FF04F0EEF906F002F84FF639
:10043000FF7005F0E8FF0E490868804736F0C7FEF8
:1004400008F0A7FD08F00CFE00BF08E003F098FFDD
:100450000748416800208847012002F0DEFBF5E7ED
:1004600053504920746573740D0A00000014024053
:1004700018010020704700BFFEE700BFFEE700BF85
:10048000FEE700BFFEE770477047704710B50120D8
:100490001BF060FB6F480068401C6E49086008460E
:1004A0000068B0F57A7F12D30020086001216A4805
:1004B00000F0CFFD08B9012000E0002004462246EC
:1004C0000121654800F0D6FD01206449087002F062
:1004D000BAFB6348007A48B16148007A401E60491F
:1004E00008720846007A08B9012048725D48017810
:1004F0000078401C5B4A1070032904D119F0B2F84F
:1005000000205849087010BD10B540F225515648DA
:1005100002F00FFBF8B140F22551534802F040FBC6
:10052000514802F044FAC1B24D4842684068401C4C
:100530004B4B58601846006881544B4802F037FA1C
:1005400030384A4908700846017849A03FF0DCFD80
:1005500003204349087210BD10B540F225514748A9
:1005600002F0E7FA00283AD040F22551434802F061
:1005700017FB424802F01BFA41490968404A526899
:1005800088543F48406840B93D4800680078552885
:1005900003D000203A49486010BD3948406801281E
:1005A00008D1374800684078532803D000203449E8
:1005B0004860F1E732484068401C314948600846CD
:1005C00040680B280BD10846142201682D483FF0E3
:1005D000D4FC01202C49087000202949486000BF44
:1005E000DAE710B54FF4807000F038F918B14FF425
:1005F000807000F044F910BD70B540F225512348D9
:1006000002F097FAB0B1214802F0D1F9C5B2204802
:1006100005F0E4FB044664B1A18820684554A08835
:10062000401C80B2A0801E2804DB194805F0F0FBB6
:1006300000E070BD40F22441144802F07AFA01282B
:1006400006D1134805F0E4FB104802F0B0F9C5B23A
:1006500000BFEEE720000020001402400D01002042
:10066000F405002024000020004800401400002071
:100670006E756D5F613A2564000000000014014052
:10068000E80500208C1600200C01002000500040DE
:100690001C06002032490143324A1160704770B590
:1006A000002100230F22C4781CB32E4C246804F4CC
:1006B000E064C4F5E064C4F30721C1F10404E3B2CB
:1006C0000A4144789C40E1B28478144021430C07ED
:1006D000210E254C05786155047804F01F0501248E
:1006E000AC4005786D11AD0005F1E025C5F800417D
:1006F00009E0047804F01F050124AC401B4D067886
:10070000761145F8264070BD194A0A400243154B40
:100710001B1F1A60704739B1124A121D126802433A
:10072000104B1B1D1A6006E00E4A121D1268824310
:100730000C4B1B1D1A607047042808D14FF0E021B4
:10074000096941F004014FF0E022116107E04FF028
:10075000E021096921F004014FF0E02211617047A6
:100760000000FA050CED00E000E400E080E100E0AC
:1007700080FFFF1F002044490860091D0860091D13
:100780000860091D086041483F49143108607047FE
:1007900000213D498279002A3AD00A46126803684E
:1007A0009A430B461A600A1D126803689A430B1D90
:1007B0001A60027911440A6803681A430A60324ACF
:1007C0000832126803689A432F4B08331A601A1DC7
:1007D000126803689A432C4B0C331A604279102A32
:1007E0000ED11A1F126803681A43274B08331A6088
:1007F0001A1D126803681A43234B0C331A600DE06C
:100800002149427911440A6803681A430A6005E0E5
:10081000027911440A6803689A430A60704700210C
:10082000016001710C2141710021817170471649ED
:10083000103109680143144A1032116070470146B3
:100840000020114A143212680A400AB1012000E067
:10085000002070470C4914310860704701460020A1
:100860000022094B1B6803EA0102074B14331B6883
:100870000B4013B10AB1012000E00020704702498B
:100880001431086070470000003C0140FFFF7F000A
:1008900030B943F2DB028100A1F1C0410A6005E0FA
:1008A00043F2D2028100A1F1C0410A606FF07042B0
:1008B000411C8900A1F1C0410A608100A1F1C04141
:1008C000C1F804217047D0E901121143C2681143F5
:1008D000026911434269114382691143C26911439C
:1008E000026A1143426A1143826A1143C26A114388
:1008F000026B114302689200A2F1C042116081684C
:1009000008290BD101688900A1F1C041096841F0B3
:10091000400201688900A1F1C0410A60416B096889
:10092000426B526841EA0211426B926841EA02212D
:10093000426B928941EA0241426B128A41EA0251BA
:10094000426B127D41EA0261426B92691143026877
:10095000521C9200A2F1C0421160C16AB1F5804FF1
:100960001BD1816B0968826B526841EA0211826B6C
:10097000926841EA0221826B128A41EA0251826B3B
:10098000127D41EA0261826B926911430268920012
:10099000A2F1C042C2F8041107E06FF07042016892
:1009A0008900A1F1C041C1F8042170470021016014
:1009B0000221416000218160C1600161416181616A
:1009C000C16101624FF4805141624900816200219E
:1009D000C16201630F21426B1160426B5160FF21C4
:1009E000426B91600F21426BD160426B1161426B8F
:1009F00051610021426B91610F21826B1160826B0A
:100A00005160FF21826B91600F21826BD160826BFC
:100A10001161826B51610021826B9161704751B10C
:100A20008200A2F1C042126842F001038200A2F1EA
:100A3000C042136009E08200A2F1C0421268F94B83
:100A40001A408300A3F1C0431A60704710280AD1EE
:100A500018214FF020421166402151664FF0FC31C1
:100A60009166D16610E01821EF4A116040214FF0E5
:100A70002042C2F884104FF0FC31EB4A083211607A
:100A80004FF02042C2F88C10704730B50021002290
:100A90000023446844F0080485682C43C5682C434F
:100AA00005692C43456944EA4524856944EA453192
:100AB000C4692468C5696D6844EA0524C5692D893F
:100AC00044EA0544C5692D7B44EA0562046A24684A
:100AD000056A6D6844EA0524056A2D8944EA0544DF
:100AE000056A2D7B44EA05630468102C05D14FF09C
:100AF00020442166A266E36608E0CB4C21604FF0FB
:100B00002044C4F88820C84C0C34236030BD102128
:100B10000160002141608160C160016141618161CA
:100B2000FC21C2691160C2695160C2699160C269E9
:100B3000D160026A1160026A5160026A9160026AC1
:100B4000D160704799B1102808D14FF02042126E41
:100B500042F004024FF020431A661DE0B24A1268C8
:100B600042F004024FF02043C3F8802014E0102824
:100B700009D14FF02042126EAA4BDB1E1A404FF0F3
:100B800020431A6608E0A84A1268A64BDB1E1A40EA
:100B90004FF02043C3F88020704799B1102808D146
:100BA0004FF02042126E42F040024FF020431A668E
:100BB0001DE09D4A126842F040024FF02043C3F806
:100BC000802014E0102809D14FF02042126E954B7E
:100BD0003F3B1A404FF020431A6608E0924A1268E1
:100BE000904B3F3B1A404FF02043C3F880207047A2
:100BF00001460020102903D14FF02042506F02E03F
:100C0000894A1432106870471820874920310860DB
:100C100000200906C1F8A4004FF0FC3082492831B9
:100C20000860091D0860091D08607047016841F0EF
:100C30001001426841EA4221826841EA42317A4A1F
:100C400020321160C1680968C268526841EA022115
:100C5000C268128941EA0241C268127B41EA02611C
:100C6000714A28321160016909680269526841EAD3
:100C700002210269128941EA02410269127B41EABA
:100C80000261694A2C3211604169096842695268FF
:100C900041EA02214269128941EA02414269127B1A
:100CA00041EA02614FF02042C2F8B01070470021C3
:100CB000016041608160FC21C2681160C2685160BE
:100CC000C2689160C268D1600269116002695160B6
:100CD000026991600269D1604269116042695160A4
:100CE000426991604269D160704748B14E492031F4
:100CF000096841F004014FF02042C2F8A01009E059
:100D0000494920310968474AD21E11404FF020421C
:100D1000C2F8A010704710B5F2B1102807D14FF0FB
:100D200020435B6E0B434FF02044636632E0B0F526
:100D3000807F08D13C4B1B1D1B680B434FF02044A8
:100D4000C4F8843026E0384B24331B680B434FF043
:100D50002044C4F8A4301DE0102807D14FF02043F0
:100D60005B6E8B434FF02044636613E0B0F5807FE9
:100D700008D12D4B1B1D1B688B434FF02044C4F83A
:100D8000843007E0284B24331B688B434FF020440A
:100D9000C4F8A43010BD10B5024600200023102A6C
:100DA00003D14FF02044636E09E0B2F5807F03D198
:100DB0001D4C241D236802E01B4C2434236803EAE5
:100DC00001040CB1012000E0002010BD102807D163
:100DD0004FF02042526E8A434FF020435A6613E090
:100DE000B0F5807F08D1104A121D12688A434FF077
:100DF0002043C3F8842007E00B4A243212688A4358
:100E00004FF02043C3F8A420704770B5024600207D
:100E1000002300240025102A08D14FF02046736ECD
:100E20000DE00000FEFF0F00800000A0B2F5807F03
:100E300002D1184E336802E0164E2036336803EABA
:100E4000010403EAD10514B10DB1012000E0002036
:100E500070BD102808D14FF02042526E22EAD10214
:100E60004FF020435A6614E0B0F5807F08D1094A5C
:100E7000126822EAD1024FF02043C3F8842008E030
:100E8000044A2032126822EAD1024FF02043C3F80C
:100E9000A4207047840000A010B504468C4884420A
:100EA00008D10121084600F000FB0021012000F0DC
:100EB000FCFA5EE08748844208D10121022000F05C
:100EC000F4FA0021022000F0F0FA52E08248844255
:100ED00008D10121042000F0E8FA0021042000F0EC
:100EE000E4FA46E07D48844208D10121082000F060
:100EF000DCFA0021082000F0D8FA3AE07848844271
:100F000008D10121102000F0D0FA0021102000F0BB
:100F1000CCFA2EE07348844208D10121202000F051
:100F2000C4FA0021202000F0C0FA22E06E4884427A
:100F300008D10121402000F0B8FA0021402000F043
:100F4000B4FA16E06948844208D10121802000F0FB
:100F5000ACFA0021802000F0A8FA0AE0644884423C
:100F600007D10121801500F0A0FA0021A01500F0A2
:100F70009CFA10BDF0B50A4600210023002400BFF2
:100F80003DE0012505FA01F3156805EA03049C42DA
:100F900034D105684F000326BE40B543056015797E
:100FA0004E00B5400668354305601579012D02D025
:100FB0001579022D16D185684F000326BE40B54332
:100FC000856055794E00B540866835438560456833
:100FD00001268E40B5434560456896798E40B6B28D
:100FE00035434560C5684F000326BE40B543C56024
:100FF000D5794E00B540C6683543C560491C1029F7
:10100000BFD3F0BD4FF6FF71016000210171417146
:101010008171C171704708B54FF480320092009A17
:101020000A430092009AC261C161009AC261C2691A
:101030000092C269009208BD0246002013690B406D
:101040000BB1012000E0002070470146086980B222
:1010500070470246002053690B400BB1012000E0AD
:10106000002070470146486980B27047018370478D
:10107000418370470AB1018300E0418370474161B9
:10108000704742694A4042617047F0B5002300242E
:101090004D07ED0E02FA05F3CE1000F1200555F8CC
:1010A00026504E07F70E0F26BE40B543CF1000F175
:1010B000200646F82750CE1000F1200555F826509E
:1010C00045EA0304CE1000F1200545F82640F0BDA6
:1010D000000002400004024000080240000C0240F0
:1010E000001002400014024000180240001C0240A0
:1010F00000200240FA48006840F00100F84908600A
:101100000020F74908310860F5480068F5490840B3
:10111000F3490860F448091D0860081F006820F4BE
:101120008020091F08600020ED490C3108607047DD
:101130000021EB4A921C117011460870704710B5DF
:1011400001460022002300204A11012A02D1E44C6A
:10115000236808E0022A03D1E14C7034236802E0DE
:10116000DF4C7434236801F01F02012494401C40BA
:101170000CB1012000E0002010BD38B50020009027
:101180000024002500BF3120FFF7D9FF0546009855
:10119000401C00900098B0F5A06F01D0002DF2D057
:1011A0003120FFF7CCFF08B1012400E000242046E5
:1011B00038BD01460020CA4A106820F0F80040EA15
:1011C000C10010607047C949086070470021C44AD7
:1011D000703211701170012802D004280AD104E085
:1011E0000121BF4A7032117005E00521BC4A7032FE
:1011F000117000E000BF00BF7047BD490860704734
:1012000070B5049C41EA82150126C6EB530645EAF7
:101210000645054345EA0465B14E361D356070BD8F
:10122000B24908667047820142EA0172AC4B8433CE
:101230001A607047AD4988667047AC49C86470470A
:1012400002460020A64B0833186820F0EC6042EA02
:1012500001031843A24B0833186070470246002070
:101260009F4B0833186820F0784042EA0103184386
:101270009B4B08331860704701460020984A08329B
:10128000106820F00300084310607047944808304D
:10129000006800F00C00704701460020904A0832B8
:1012A000106820F0F00008431060704701460020ED
:1012B0008B4A0832106820F4E050084310607047F1
:1012C00001460020864A0832106820F4604040EA57
:1012D000C10010607047F0B50021002200240225F3
:1012E000002602237E4F08373F6807F00C0121B12A
:1012F000042905D0082937D105E07E4F076036E084
:101300007D4F076033E0764F3F1D3F68C7F380563F
:10131000734F3F1D3F6807F03F036EB1764FB7FB39
:10132000F3F7DFF8BCC10CF1040CDCF800C0CCF31F
:10133000881C07FB0CF40CE06E4FB7FBF3F7DFF8EB
:10134000A0C10CF1040CDCF800C0CCF3881C07FB36
:101350000CF4634F3F1D3F68C7F301477F1C7D00BE
:10136000B4FBF5F7076002E0624F076000BF00BF03
:101370005B4F08373F6807F0F00109095F4F7A5C5F
:101380000768D7404760564F08373F6807F4E05179
:10139000890A5A4F7A5C4768D7408760504F0837B0
:1013A0003F6807F46041490B544F7A5C4768D74067
:1013B000C760F0BD002100F44072B2F5407F0AD151
:1013C000474A0832116821F4F8114D4A024011438E
:1013D000434A08321160424A70321268C0F30B036C
:1013E0001A433F4B70331A607047414944390860D3
:1013F00070473F494039086070474249086070476C
:1014000039B1374A303212680243354B30331A60F3
:1014100006E0334A303212688243314B30331A606F
:10142000704739B12E4A3432126802432C4B3433A0
:101430001A6006E02A4A343212688243284B343359
:101440001A60704739B1264A383212680243244B79
:1014500038331A6006E0224A383212688243204B41
:1014600038331A60704739B11D4A4032126802435E
:101470001B4B40331A6006E0194A4032126882431F
:10148000174B40331A60704739B1154A443212681D
:101490000243134B44331A6006E0114A4432126887
:1014A00082430F4B44331A60704739B10C4A1032F3
:1014B000126802430A4B10331A6006E0084A1032E1
:1014C00012688243064B10331A607047E1B1044A38
:1014D000143212680243024B14331A6019E0000000
:1014E00000380240FFFFF6FE1030002400004742A3
:1014F000800E47420024F40040787D012500002042
:10150000FFFCFF0F5C0147425B4A126882435A4B63
:101510001A60704739B1584A121D12680243564B7F
:101520001B1D1A6006E0544A121D12688243524B7A
:101530001B1D1A60704739B14F4A0C3212680243C2
:101540004D4B0C331A6006E04B4A0C321268824352
:10155000494B0C331A60704739B1474A1032126850
:101560000243454B10331A6006E0434A10321268BA
:101570008243414B10331A60704739B13E4A3C32C6
:10158000126802433C4B3C331A6006E03A4A3C3254
:1015900012688243384B3C331A60704739B1364A7F
:1015A000403212680243344B40331A6006E0324A3C
:1015B000403212688243304B40331A60704739B171
:1015C0002D4A4432126802432B4B44331A6006E022
:1015D000294A443212688243274B44331A607047C9
:1015E00039B1254A4C3212680243234B4C331A60FE
:1015F00006E0214A4C32126882431F4B4C331A607A
:10160000704739B11C4A5032126802431A4B5033AA
:101610001A6006E0184A503212688243164B503363
:101620001A60704739B1144AD21F12780243124B24
:10163000DB1F1A7006E0104AD21F127882430E4B4D
:10164000DB1F1A7070470C486030006840F08070F3
:10165000094960310860704701460020064A083A8F
:1016600012680A400AB1012000E0002070470249D8
:10167000891F0870704700001438024010B50446F6
:10168000F748844208D101218014FFF765FF00214B
:10169000A014FFF761FF16E0F248844208D101214F
:1016A0000014FFF748FF00212014FFF744FF0AE071
:1016B000ED48844207D10121C013FFF73CFF002110
:1016C000E013FFF738FF10BD10B50022028802F4C6
:1016D00041520B884C8823438C882343CC88234376
:1016E0000C8923434C8923438C892343CC8923438E
:1016F0001A430280838B4FF2FF74234083830B8A4B
:10170000038210BD2DE9F04F00250223002401279C
:1017100000220026944690469146B0F81CA04FF255
:10172000400B0AEA0B0AA0F81CA04FF0020AA0F82E
:1017300020A0858BD1F808A0BAF1020F01D100BF1B
:101740006CE0B1F804A0BAF1000F01D1012700E06C
:101750000227DFF818A3DAF800A00AF4000ABAF1A9
:10176000000F09D0DFF804A3DAF800A02AF4000A79
:10177000DFF8F8B2CBF800A0DFF8F0A20AF17C0A9B
:10178000DAF800A0CAF38818DFF8E0A20AF17C0AB0
:10179000DAF800A0CAF30279DFF8D0A2AAF1040AAD
:1017A000DAF800A00AF03F0CDFF8C4A2BAFBFCFA9A
:1017B0000AFB08FABAFBF9F6B1F806A0BAF5007F01
:1017C0000ED14FEA162A0AEB8A0A4FEA4A0AD1F8E2
:1017D00008B0BAFBFBFA0AF1050A1FFA8AF20FE019
:1017E0004FEA471AB6FBFAFA0AEB8A0A4FEA4A0AA4
:1017F000D1F808B0BAFBFBFA0AF1050A1FFA8AF21F
:101800004FF00A0AB2FBFAF202F00104A2EB040A5A
:10181000CAF34F034FF6FF7A0AEA0424022B01DBD6
:10182000FF2B01DD02230024B1F806A04AEA040AD6
:101830004AEA030AA0F820A0B1F804A0B1F80CB05D
:101840004AEA0B0AB1F802B04AEA0B0AB1F800B052
:101850004AEA0B0A4AF4006A4AEA05058583BDE8AC
:10186000F08F0021018041808180C1800181418110
:101870008181C1810721018270470021018041805F
:101880008180C1800221816000218181704721B166
:10189000028842F04002028004E002884FF6BF73E3
:1018A0001A400280704721B1828B42F480628283A9
:1018B00004E0828B4FF6FF331A4082837047028820
:1018C0004FF2FF731A40028002880A430280704779
:1018D000B1F5804F04D1028842F48042028004E0D6
:1018E00002884BF6FF731A40028070474FF6FF6282
:1018F000914204D0028842F48072028004E002889F
:101900004FF6FF631A400280704721B1828842F08F
:101910000402828004E082884FF6FB731A408280C2
:10192000704721B1828842F01002828004E08288F0
:101930004FF6EF731A408280704730B500220023C3
:10194000848B4FF240052C40848302240484828BD4
:101950000C88B4F5007F01D00C8814B94FF4807363
:1019600008E00C88B4F5407F03D00C88B4F5807F84
:1019700000D100238C888D892C434D882C431C4337
:1019800044F400642243828330BD01468889704755
:101990008181704721B1028842F40052028004E044
:1019A00002884DF6FF731A4002807047018841F4A7
:1019B00080510180704702460020012901D0108B20
:1019C00000E0908A70470146088A70471AB1838800
:1019D0000B43838002E083888B438380704730B55C
:1019E000002400230C110125A540ABB21AB1858853
:1019F0001D43858002E085889D43858030BD024679
:101A0000002013890B400BB1012000E0002070473B
:101A1000CA4302817047F0B502460020002400232B
:101A2000002501F00F070126BE40B4B20B110126BC
:101A30009E40B3B2968806EA03051689264016B181
:101A40000DB1012000E00020F0BD10B5002201F032
:101A50000F040123A3409AB2D343038110BD0000B9
:101A60000030014000380040003C0040083802408F
:101A700040787D0110B501218803FFF76DFD00213D
:101A80004FF48040FFF768FD10BD1A4908607047A9
:101A900030B500228B071C0F0F2303FA04F2154BFD
:101AA00008338C1053F824309343124C08348D10B3
:101AB00044F8253023468C1053F824308C07240F2B
:101AC00000FA04F423430B4C08348D1044F82530FD
:101AD00030BD094908607047084908607047002018
:101AE00004492031096801F4807109B1012000E046
:101AF0000020704700380140DC00274200042742E4
:101B000010B50446FE48844208D101210846FFF77B
:101B100023FD00210120FFF71FFD9DE0B4F1804F60
:101B200008D101210846FFF706FD00210120FFF73B
:101B300002FD91E0F348844208D101210220FFF721
:101B4000FAFC00210220FFF7F6FC85E0EE48844213
:101B500008D101210420FFF7EEFC00210420FFF74B
:101B6000EAFC79E0E948844208D101210820FFF726
:101B7000E2FC00210820FFF7DEFC6DE0E44884422F
:101B800008D101211020FFF7D6FC00211020FFF71B
:101B9000D2FC61E0DF48844208D101212020FFF718
:101BA000CAFC00212020FFF7C6FC55E0DA48844239
:101BB00008D101210220FFF7CFFC00210220FFF70E
:101BC000CBFC49E0D548844209D101210804FFF744
:101BD000C3FC00214FF48030FFF7BEFC3CE0D0484E
:101BE000844209D101214804FFF7B6FC00214FF4DB
:101BF0000030FFF7B1FC2FE0CA48844209D101212F
:101C00008804FFF7A9FC00214FF48020FFF7A4FC13
:101C100022E0C548844208D101214020FFF78BFC17
:101C200000214020FFF787FC16E0C048844208D11D
:101C300001218020FFF77FFC00218020FFF77BFC43
:101C40000AE0BB48844207D101218015FFF773FCED
:101C50000021A015FFF76FFC10BD00220288A84BE1
:101C600098420ED0AC4B98420BD0B0F1804F08D0C8
:101C7000A44B984205D0A44B984202D0A34B984263
:101C800004D14FF68F731A404B881A43A04B9842E9
:101C900007D0A04B984204D04FF6FF431A400B895F
:101CA0001A4302804B68C3620B880385944B9842A9
:101CB00002D0994B984201D18B7A0386012383820B
:101CC00070474FF0FF314160002101800181418068
:101CD000817270470185828270470A46002101881F
:101CE0004FF68F731940114301807047416270476E
:101CF000C16270470146486A70470146088D7047C7
:101D000021B1028842F00202028004E002884FF60C
:101D1000FD731A400280704721B1028842F004022C
:101D2000028004E002884FF6FB731A40028070477D
:101D300021B1028842F08002028004E002884FF65E
:101D40007F731A400280704702884FF6F7731A407B
:101D5000028002880A430280704702884FF6FF43E0
:101D60001A40028002880A430280704721B102882B
:101D700042F00102028004E002884FF6FE731A402E
:101D80000280704770B5002400220023058C4FF6B6
:101D9000FE7635400584028C8388048B4FF68F7560
:101DA0002C40B51E2C400D882C43751E2A408D8971
:101DB0002A434D882A43524DA84202D0564DA8428C
:101DC00013D14FF6F7752A40CD892A434FF6FB759C
:101DD0002A408D882A434FF6FF652B404FF6FF556A
:101DE0002B400D8A2B434D8A2B43838004838D68BF
:101DF0004563028470BD70B5002400220023058C69
:101E00004FF6EF7635400584028C8388048B48F6C4
:101E1000FF752C404FF6FF452C400D884FF6FF769E
:101E200006EA05252C434FF6DF752A408D8906EA20
:101E300005152A434D8806EA05152A43304DA84268
:101E400002D0354DA8421DD14FF67F752A40CD896D
:101E50004FF6FF7606EA05152A434FF6BF752A406E
:101E60008D8806EA05152A434FF6FF352B404FF2C1
:101E7000FF752B400D8A06EA85052B434D8A06EA3D
:101E800085052B43838004838D688563028470BD40
:101E900070B5002400220023058C4FF6FF66354004
:101EA0000584028C8388848B4FF68F752C404FF607
:101EB000FC752C400D882C434FF6FF552A408D8928
:101EC0004FF6FF7606EA05252A434D8806EA0525E2
:101ED0002A430B4DA84202D00F4DA84238D14FF2F1
:101EE000FF752A40CD894FF6FF7606EA05252A437D
:101EF0004FF6FF352A408D8806EA05252A4319E06A
:101F0000000001400004004000080040000C0040B8
:101F10000010004000140040000401400040014057
:101F2000004401400048014000180040001C0040EF
:101F3000002000404EF6FF752B404DF6FF752B40FC
:101F40000D8A06EA05152B434D8A06EA05152B4333
:101F5000838084838D68C563028470BD70B5002260
:101F600000230024058C4EF6FF7635400584038C53
:101F70008488828B48F6FF752A404FF6FF452A4039
:101F80000D884FF6FF7606EA05252A434DF6FF75C4
:101F90002B408D8906EA05352B434D8806EA053529
:101FA0002B43FE4DA84202D0FD4DA84208D14BF66E
:101FB000FF752C400D8A4FF6FF7606EA85152C43F7
:101FC000848082838D680564038470BD0021018054
:101FD0004180818081608181C1810182418270471D
:101FE00070B50346002000241846183001258D40A6
:101FF000ACB21D8CA5431D8409B108290AD100EBA0
:10200000610005684FF68F76354005600568154319
:1020100005600FE00D1FC5F34E052844056848F61E
:10202000FF763540056005684FF6FF7606EA022622
:102030003543056070BD4163704781637047C1637C
:102040007047016470470A460021018B4FF68F7379
:1020500019401143018370470A460021018B48F65D
:10206000FF7319404FF6FF7303EA022319430183FC
:1020700070470A460021818B4FF68F731940114338
:10208000818370470A460021818B48F6FF7319400F
:102090004FF6FF7303EA02231943818370470A4610
:1020A0000021018B4FF6F7731940114301837047EC
:1020B0000A460021018B4FF2FF7319404FF6FF7360
:1020C00003EA02231943018370470A460021818BEA
:1020D0004FF6F77319401143818370470A46002178
:1020E000818B4FF2FF7319404FF6FF7303EA02230F
:1020F0001943818370470A460021018B4FF6FB7319
:1021000019401143018370470A460021018B4FF6A5
:10211000FF3319404FF6FF7303EA0223194301838B
:1021200070470A460021818B4FF6FB73194011431B
:10213000818370470A460021818B4FF6FF33194097
:102140004FF6FF7303EA02231943818370470A465F
:102150000021018B4FF67F731940114301837047B3
:102160000A460021018BC1F30E014FF6FF7303EA0B
:1021700002231943018370470A460021818B4FF6E1
:102180007F7319401143818370470A460021818B78
:10219000C1F30E014FF6FF7303EA02231943818353
:1021A00070470A460021018C4FF6FD731940114318
:1021B000018470470A460021018C4FF6F7731940DD
:1021C0001143018470470A460021018C4FF6DF73EA
:1021D00019404FF6FF7303EA021319430184704755
:1021E0000A460021018C4FF67F7319404FF6FF73AA
:1021F00003EA02131943018470470A460021018C47
:102200004FF6FF5319404FF6FF7303EA02231943B9
:10221000018470470A460021018C4FF2FF73194078
:102220004FF6FF7303EA02231943018470470A46FD
:102230000021018C4DF6FF7319404FF6FF7303EA3E
:10224000023319430184704730B5002301248C40C8
:10225000A3B2048C9C430484048C02FA01F5ADB251
:102260002C43048430BD30B5002304248C40A3B239
:10227000048C9C430484048C02FA01F5ADB22C4317
:10228000048430BD828B4FF2FF331A408283828BED
:102290004FF6FF7303EA01231A4382837047F0B5B8
:1022A0000C461546002100220026078C4EF6FF7CC6
:1022B00007EA0C070784818B028C4FF6FF7707EA49
:1022C000043640F6FF4739404FF6FF7707EA052707
:1022D00039434FF6FF7707EA0337394345F6FF776F
:1022E0003A4046F480573A4381830284F0BD828BA2
:1022F0004FF6F3731A408283828B0A4382837047BE
:10230000F0B50C461546002100220026078C4FF63A
:10231000FF6C07EA0C070784818B028C4FF6FF776E
:1023200007EA04264FF60C7739404FF6FF7707EAA5
:1023300003172F4339434FF2FF573A4046F4807753
:102340003A4381830284F0BD028B4FF2FF331A407F
:102350000283028B4FF6FF7303EA01231A430283C1
:102360007047F0B50C461546002100220026078C68
:102370004FF6EF7C07EA0C070784018B028C4FF6BF
:10238000FF7707EA041640F6FF4739404FF6FF771C
:1023900007EA033739434FF6FF7703E000000140B7
:1023A0000004014007EA052739434FF65F773A40BA
:1023B00046F010073A4301830284F0BD028B4FF6CA
:1023C000F3731A400283028B0A4302837047F0B50D
:1023D0000C46154600210022068C4FF6FE773E4043
:1023E0000684018B028C4FF60C7631407E1C06EA87
:1023F00003162E4331434FF6F576324044F0010682
:10240000324301830284F0BD70B505460C46208836
:1024100050B92389A28861882846FFF7D8FFE18850
:102420002846FFF7CBFF25E0208804280AD123891E
:10243000A28861882846FFF794FFE1882846FFF7C5
:1024400083FF17E0208808280AD12389A2886188A1
:102450002846FFF755FFE1882846FFF748FF09E0C7
:102460002389A28861882846FFF719FFE18828465A
:10247000FFF708FF70BD00210180418001218180AC
:102480000021C180018170472DE9F04105460C46CD
:1024900000260127608808B9022600E00026A088EF
:1024A000012801D1022700E001272088A0B9238953
:1024B000A28861882846FFF78AFFE1882846FFF74F
:1024C0007DFF23893A4631462846FFF74AFFE188D7
:1024D0002846FFF739FF13E02389A2886188284640
:1024E000FFF73FFFE1882846FFF72EFF23893A4692
:1024F00031462846FFF76BFFE1882846FFF75EFF6D
:10250000BDE8F0810146486B70470146886B704713
:102510000146C86B70470146086C70470A884B88B3
:102520001A438B881A43CB881A430B891A434B8969
:102530001A438B891A43A0F8442070470021018078
:1025400041808180C180018141818181704731B1A9
:10255000B0F8442042F40042A0F8442005E0B0F86E
:102560004420C2F30E02A0F84420704721B18288B3
:1025700042F00402828004E082884FF6FB731A4026
:102580008280704721B1828842F00102828004E09B
:1025900082884FF6FE731A40828070471AB1838991
:1025A0000B43838102E083898B438381704781825F
:1025B000704702460020138A0B400BB1012000E057
:1025C00000207047CA430282704730B5024600209F
:1025D00000230024158A05EA0103958905EA010410
:1025E00013B10CB1012000E0002030BDCA430282CB
:1025F000704741EA0203A0F8483070471AB1838956
:102600000B43838102E083898B438381704721B12F
:10261000828842F00802828004E082884FF6F773D5
:102620001A408280704701894FF6F872114001818B
:1026300070470A46002101894FF68F7319401143F4
:102640000181704730B504460D4629462046FFF704
:10265000F0FF208940F00700208130BD2DE9F041D6
:1026600004460D4616461F46602D06D13B46012204
:1026700031462046FFF775FE05E03B460122314614
:102680002046FFF7A4FE29462046FFF7D2FF208907
:1026900040F007002081BDE8F08130B50C460021F4
:1026A0000189C9B24FF6FF7505EA03251543254395
:1026B0002943018130BD2DE9F04105460E461746FC
:1026C0009846002443463A4631462846FFF7E5FF40
:1026D0002C894FF6F870044044F007044FF68F70D1
:1026E000044044F070042C81BDE8F081F0B504464C
:1026F0000D4616461F463B46324629462046FFF702
:10270000CCFF208940F480402081F0BD82884FF6C4
:102710008F731A40828082880A43828070470289C0
:102720004FF6F8731A40028102890A43028170470A
:1027300002894FF67F731A40028102890A4302819F
:102740007047F0B50C4615461E46002100220023B6
:102750000189028B038C4FF6F877394021434FF6FD
:10276000FC473A4040F201173A434FF6DD773B40D1
:102770004FF6FF7707EA06172F433B430181028399
:102780000384F0BD21B1828842F08002828004E09F
:1027900082884FF67F731A4082807047A0F85010ED
:1027A0007047000010B50446F748844208D1012163
:1027B0001020FEF7D1FE00211020FEF7CDFE3EE0F6
:1027C000F248844209D101214804FEF7B4FE0021F9
:1027D0004FF40030FEF7AFFE31E0ED48844209D1FE
:1027E00001218804FEF7A7FE00214FF48020FEF7A8
:1027F000A2FE24E0E748844209D10121C804FEF783
:102800009AFE00214FF40020FEF795FE17E0E24803
:10281000844209D101210805FEF78DFE00214FF405
:102820008010FEF788FE0AE0DC48844207D10121CF
:102830002020FEF791FE00212020FEF78DFE10BD26
:102840002DE9FF4705460E460024A14600BFA046DD
:10285000B08900B100BF2C8A24F44054F0880443AE
:102860002C82AC8941F20C608443B08831890843E2
:10287000718908430443AC81AC8A24F44074B08964
:102880000443AC826846FEF726FDBF48854202D06D
:10289000C248854202D1DDF80C9001E0DDF80890D5
:1028A000A88900F4004040B109EBC90000EB091011
:1028B00031684900B0FBF1F707E009EBC90000EB14
:1028C000091031688900B0FBF1F76420B7FBF0F024
:1028D00004012009642101FB1078A88900F400405C
:1028E00040B1322000EBC800B0FBF1F000F007006F
:1028F000044308E0322000EB08106421B0FBF1F043
:1029000000F00F0004432C81BDE8FF874FF41651FF
:10291000016000218180C18001810C214181002161
:102920008181704710B502460020108A20F4706043
:102930000B884C8823438C882343CC88234318433B
:10294000108210BD0021018041808180C1807047CC
:1029500021B1828942F40052828104E082894DF6DD
:10296000FF731A4082817047028B02F47F42028318
:10297000028B0A430283704721B1828942F40042EC
:10298000828103E08289C2F30E028281704721B105
:10299000828A42F40062828204E0828A4FF2FF73EC
:1029A0001A4082827047C1F3080282807047014654
:1029B0008888C0F308007047028A4FF6F0731A4007
:1029C0000282028A0A430282704721B1828942F060
:1029D0000202828104E082894FF6FD731A408281EF
:1029E000704782894FF2FF731A40828182890A43BD
:1029F00082817047028A4FF6DF731A400282028A90
:102A00000A430282704721B1028A42F48042028264
:102A100004E0028A4BF6FF731A40028270478189F4
:102A200041F001018181704721B1828A42F00802A0
:102A3000828204E0828A4FF6F7731A4082827047DE
:102A4000028BD2B20283028B42EA012202837047D8
:102A500021B1828A42F02002828204E0828A4FF60B
:102A6000DF731A408282704721B1828A42F01002DD
:102A7000828204E0828A4FF6EF731A4082827047A6
:102A8000828A4FF6FB731A408282828A0A438282CC
:102A9000704721B1828A42F00202828204E0828A77
:102AA0004FF6FD731A40828270471AB1838A0B4336
:102AB000838202E0838A8B4383827047F0B50346AA
:102AC000002400260025002040F66A17B94200D1F4
:102AD00000BF1846C1F3421401F01F06012707FA90
:102AE00006F5012C01D10C3004E0022C01D110308C
:102AF00000E014301AB107682F43076002E007684E
:102B0000AF430760F0BD02460020B1F5007F00D161
:102B100000BF13880B400BB1012000E0002070477C
:102B200001F40072B2F5007F00D100BFCA430280F9
:102B3000704770B50246002400230025002040F6AF
:102B40006A16B14200D100BFC1F3421501F01F0364
:102B5000012606FA03F3012D02D19689334006E0DF
:102B6000022D02D1168A334001E0968A33400C12BE
:102B7000012606FA04F41688344013B10CB1012082
:102B800000E0002070BD0000001001400044004043
:102B900000480040004C004000500040001401403C
:102BA00010B50022002340F66A14A14200D100BFF4
:102BB0000A1201249440A3B2DC43048010BD00003B
:102BC00030B5254800684FF47A72B0FBF2F1481E28
:102BD000B0F1807F01D301201BE0481E4FF0E022BE
:102BE000506150170F22002807DA13071D0E1B4BE8
:102BF00000F00F04241F1D5503E013071C0E184B93
:102C00001C5400BF00204FF0E022906107201061AB
:102C1000002008B100BFFEE730BD1249086000BFC8
:102C2000104909680029FBD17047002106E00821FE
:102C300000BF0A1EA1F1010399B2FAD1021EA0F150
:102C40000100F4D170470748006820B105480068CA
:102C5000401E0449086070470000002018ED00E0A5
:102C600000E400E0380000201CB501212020FEF720
:102C7000C7FBFF20009001208DF8040000208DF894
:102C8000060003208DF8050000208DF80700694636
:102C90001148FEF76FF901210F48FEF7E7F902210D
:102CA0000D48FEF7E3F904210B48FEF7DFF9082190
:102CB0000948FEF7DBF910210748FEF7D7F9202174
:102CC0000548FEF7D3F940210348FEF7CFF98021EC
:102CD0000148FEF7CBF91CBD0014024000B587B0D7
:102CE00000207949487248600872784808600121DC
:102CF0000420FEF785FB01218804FEF7B4FB0220C7
:102D00008DF8180000208DF81A0001208DF81B00A6
:102D100000208DF819004FF40060059005A96C485B
:102D2000FEF728F94FF48060059005A96848FEF782
:102D300021F907220A216648FEF7A7F907220B218D
:102D40006348FEF7A2F94FF4E13001900020ADF89E
:102D50000800ADF80A00ADF80C00ADF810000C202A
:102D6000ADF80E0001A95B48FFF76AFD0121594843
:102D7000FFF7EEFD012240F225515648FFF79EFE77
:102D80004FF4A060FDF786FC27208DF8000000209E
:102D90008DF801008DF8020001208DF803006846CF
:102DA000FDF77DFC01214B48FFF7D2FD07B000BDC8
:102DB00070B504460D460BE014F8011B4548FFF7BB
:102DC000F2FD00BF40214348FFF79DFE0028F9D0E7
:102DD000281EA5F10105EFD170BD10B588B00446DD
:102DE00000203D494872486008723C480860012153
:102DF0000420FEF705FB01212020FEF745FB022001
:102E00008DF81C0000208DF81E0001208DF81F0099
:102E100000208DF81D00C020069006A92C48FEF762
:102E2000A9F8082206212A48FEF72FF908220721CF
:102E30002748FEF72AF902940020ADF80C00ADF8FF
:102E40000E00ADF81000ADF814000C20ADF8120023
:102E500002A92348FFF7F4FC01212148FFF778FD80
:102E6000012240F225511E48FFF728FE4FF4A060D2
:102E7000FDF710FC47208DF8040000208DF80500B8
:102E80008DF8060001208DF8070001A8FDF707FC6A
:102E900001211348FFF75CFD08B010BD70B5044672
:102EA0000D460BE014F8011B0D48FFF77CFD00BF39
:102EB00040210B48FFF727FE0028F9D0281EA5F176
:102EC0000105EFD170BD0000F40500209003002043
:102ED0000008024000480040E8050020BC04002033
:102EE000001401401CB501212020FEF789FA4FF49F
:102EF000E060009000208DF8040003208DF80500AC
:102F000001208DF8070069464D48FEF733F81CBDD7
:102F100038B50020009000244FF480714848FEF737
:102F20008BF88DF800004FF400714548FEF784F8E7
:102F30008DF801004FF480614148FEF77DF88DF86F
:102F400002004048007800284AD09DF8000028B1CF
:102F50009DF8010010B19DF80200E8BB002039493E
:102F600008706420FFF759FE4FF480713448FEF773
:102F700063F88DF800004FF400713148FEF75CF8FB
:102F80008DF801004FF480612D48FEF755F88DF85B
:102F900002009DF8000040B99DF80100012804D10D
:102FA0009DF80200012800D101249DF800000128AD
:102FB00007D19DF8010020B99DF80200012800D139
:102FC00002249DF80000012818D19DF80100012875
:102FD00014D19DF8020000E002E078B903240DE06E
:102FE0009DF80000012809D19DF80100012805D1B4
:102FF0009DF80200012801D112490870204638BD11
:1030000038B5012400254FF6FF7003F0FCF94FF6A8
:10301000FF7000230CA24FF48C710090642004F028
:1030200093FD09E0FFF774FF0A490870084600782D
:1030300010B1084605780024002CF3D1E8B238BD61
:10304000001402403D000020C7EBCAE4C8EBB0B456
:10305000BCFC00003C0000201CB5FF2001460246DD
:10306000D408BDF8003064F304038C080093BDF865
:10307000003064F34A13C4080093BDF8003064F3D1
:10308000CF230093BDF8004023460193BDF8041000
:1030900008461CBD70B50446204631F0C8F8072824
:1030A0000DD12021FE48FDF7D4FF08B9012000E032
:1030B000002005462A462021F948FDF7DBFF70BDB8
:1030C0002DE9F8434FF6FF7003F09DF902F0DCF8AC
:1030D000044620463BF0CEF8FFF7BEFF0022014633
:1030E000009020463AF04CFC20460BF077FE054657
:1030F000ECA128460CF003FB6FF0310300220921FC
:10310000284637F072FAEE4815F0C2FCED49EC485B
:1031100016F0A4F90022EA49284639F098FB204627
:103120000BF05CFE0646E8A130460CF0E8FA6FF0C2
:10313000090300220921304637F057FA052013F021
:103140003DFC00220146009030463AF035FE204614
:103150000BF044FE0746DFA138460CF0D0FA3223CC
:1031600000220921384637F040FA204607F0A2FF36
:1031700080465A2300220921404637F036FA40465D
:103180000BF02CFE8146D6A148460CF0B8FA00237D
:103190000722D749404631F07CF8BDE8F8832DE995
:1031A000F8434FF6FF7003F02EF902F06DF8044675
:1031B00020463BF05FF8FFF74FFF002201460090EA
:1031C00020463AF0DDFB20460BF008FE0546C9A17B
:1031D00028460CF094FA142300220221284637F0E6
:1031E00004FAC84815F054FCB649C64816F036F93A
:1031F0000022C449284639F02AFB20460BF0EEFD98
:103200000646C1A130460CF07AFA6FF01D03002289
:103210000921304637F0E9F920460BF0DFFD07467B
:10322000BFA138460CF06BFA0A2300220921384668
:1032300037F0DBF920460BF0D1FD8046BBA14046BC
:103240000CF05DFA322300220921404637F0CDF917
:10325000002013F0B3FB00220146009040463AF0F4
:10326000ABFDBDE8F8832DE9F8434FF6FF7003F09E
:10327000CAF802F009F8044620463AF0FBFFFFF7CF
:10328000EBFE00220146009020463AF079FB2046F2
:103290000BF0A4FD0546A7A128460CF030FA142334
:1032A00000220221284637F0A0F9A64815F0F0FBCD
:1032B0008449A44816F0D2F80022A249284639F0E1
:1032C000C6FA20460BF08AFD06469FA130460CF058
:1032D00016FA6FF01D0300220921304637F085F9F8
:1032E00020460BF07BFD07469EA138460CF007FAFE
:1032F0000A2300220921384637F077F920460BF0DF
:103300006DFD804689A140460CF0F9F93223002278
:103310000921404637F069F9002013F04FFB0022E5
:103320000146009040463AF047FDBDE8F8832DE99C
:10333000F84301F0A9FF044620463AF09BFFFFF74F
:103340008BFE00220146009020463AF019FB2046F1
:103350000BF044FD05468AA128460CF0D0F9142351
:1033600000220221284637F040F98A4815F090FBE8
:103370005449884816F072F800228649284639F0E8
:1033800066FA20460BF02AFD064683A130460CF073
:10339000B6F96FF01D0300220921304637F025F9F8
:1033A00020460BF01BFD074683A138460CF0A7F919
:1033B0000A2300220921384637F017F920460BF07E
:1033C0000DFD804659A140460CF099F932230022A8
:1033D0000921404637F009F9002013F0EFFA0022E6
:1033E0000146009040463AF0E7FCBDE8F8832DE93D
:1033F000F84301F049FF044620463AF03BFFFFF74F
:103400002BFE00220146009020463AF0B9FA2046F1
:103410000BF0E4FC05466FA128460CF070F914236C
:1034200000220221284637F0E0F8704815F030FB02
:1034300024496E4816F012F800226C49284639F0EB
:1034400006FA20460BF0CAFC064669A130460CF08D
:1034500056F96FF01D0300220921304637F0C5F8F8
:1034600020460BF0BBFC074666A138460CF047F936
:103470000A2300220921384637F0B7F820460BF01E
:10348000ADFC804629A140460CF039F932230022D8
:103490000921404637F0A9F8002013F08FFABDE06B
:1034A0000014024046696E6765727072696E74201E
:1034B0004163636573732053797374656D00000015
:1034C000B4000020A4FD0808312E20556E6C6F63F7
:1034D0006B000000332E2053657474696E677300AF
:1034E000546F67676C65204C696768740000000062
:1034F00095300008556E6C6F636B204D6574686F76
:1035000064000000BC000020312E2046696E676513
:10351000727072696E7420556E6C6F636B00000080
:10352000322E2050617373776F726400332E204205
:1035300061636B0041646D696E2053657474696EDC
:1035400067730000C4000020312E204368616E675D
:103550006520556E6C6F636B2050617373776F726B
:1035600064000000322E2046696E676572707269D1
:103570006E74204D616E6167656D656E740000004C
:1035800044656C6574652046696E67657270726922
:103590006E740000CC000020312E2044656C6574F0
:1035A000652053696E676C652046696E6765727049
:1035B00072696E7400000000322E2044656C6574E0
:1035C0006520416C6C2046696E6765727072696E29
:1035D0007473000046696E6765727072696E74205C
:1035E0004D616E6167656D656E740000D4000020EA
:1035F000312E204164642046696E6765727072697D
:103600006E740000322E2044656C65746520466936
:103610006E6765727072696E740000000022014668
:10362000009040463AF0C8FBBDE8F8832DE9F84326
:1036300001F02AFE044620463AF01CFEFFF70CFD7E
:1036400000220146009020463AF09AF920460BF0FD
:10365000C5FB0546FCA128460CF051F814230022B6
:103660000221284636F0C1FFFD4815F011FAFD4948
:10367000FB4815F0F3FE0022F949284639F0E7F837
:1036800020460BF0ABFB0646F7A130460CF037F8AE
:1036900028236FF03B020921304636F0A6FF204672
:1036A0000BF09CFB0746F0A138460CF028F82823C5
:1036B00000220921384636F098FF20460BF08EFB99
:1036C0008046E9A140460CF01AF828233C22092143
:1036D000404636F08AFFBDE8F8832DE9F84301F053
:1036E000D3FD044620463AF0C5FDFFF7B5FC0022A5
:1036F0000146009020463AF043F920460BF06EFB5D
:103700000546DAA128460BF0FAFF14230022022115
:10371000284636F06AFFDC4815F0BAF9D149DA4894
:1037200015F09CFE0022D849284639F090F8204632
:103730000BF054FB0646CCA130460BF0E0FF2823EB
:103740006FF03B020921304636F04FFF20460BF068
:1037500045FB0746C4A138460BF0D1FF28230022C1
:103760000921384636F041FF20460BF037FB8046F2
:10377000BDA140460BF0C3FF28233C22092140464F
:1037800036F033FFBDE8F8832DE9F04393B001F044
:103790007BFD804640463AF06DFDFFF75DFC002260
:1037A0000146019040463AF0EBF840460BF016FB1C
:1037B0000446B6A120460BF0A2FF002013F0FEF84D
:1037C00000220146019020463AF0F6FAB14815F081
:1037D0005FF9A449AF4815F041FE0022AD492046EB
:1037E00039F035F8404635F0E5FE054600EBD5707A
:1037F0004710204635F0E7FE40420FFA80F93A467E
:103800004946204635F0BBFB404635F0DCFE074616
:10381000204635F0D8FE3D1A05EBD570461002A8BB
:1038200011F068FE2046029000BF35F0CCFE454204
:1038300037460A950B950C9700BF40F2DC500D906F
:1038400000BF9548039000BF9448099000BF02A8AC
:1038500011F099FE13B0BDE8F08338B54FF6FF7054
:1038600002F0D1FD4FF6FF7000238DA24FF48C7152
:103870000090642004F068F901F098FF044694B9C0
:103880004FF6FF7002F0BFFD4FF6FF70002387A2D6
:103890004FF48C710090642004F056F94FF4FA60F4
:1038A000FFF7BBF902E0204601F09CFF38BD38B5B8
:1038B0004FF6FF7002F0A7FD4FF6FF70002381A2C4
:1038C0004FF48C710090642004F03EF900BF4FF675
:1038D000FF7002F098FD4FF6FF7000237DA24FF4B9
:1038E0008C710090642004F02FF94FF4FA60FFF718
:1038F00094F901F086FE0446F02CE8D2A0B2012132
:1039000001F022FF054695B94FF6FF7002F07BFDEE
:103910004FF6FF70002379A24FF48C710090642061
:1039200004F012F940F6B830FFF777F902E02846C4
:1039300001F058FF38BD7FB5002006460546E9E195
:10394000052E63D2DFE806F003637F7E7D00681CEE
:1039500085B24FF6FF7002F056FD4FF6FF70002360
:103960006DA24FF48C710090642004F0EDF801F02A
:103970009AFD0446002C46D1012001F0B4FD044616
:10398000002C3CD14FF6FF7002F03DFD4FF6FF706A
:10399000002368A24FF48C710090642004F0D4F8E6
:1039A00003ABF0220021012001F05DFE04461CBBA8
:1039B000BDF80C2064A101A83CF0B6FB4FF6FF70E7
:1039C00002F021FD4FF6FF70002360A24FF48C71CE
:1039D0000090642004F0B8F84FF6FF70002301AAAD
:1039E0004FF48C7100904FF4967004F0ADF84FF4E2
:1039F000FA60FFF712F97FBD0025012606E0204698
:103A000001F0F0FE02E0204601F0ECFE6CE1681CE3
:103A100085B24FF6FF7002F0F6FC4FF6FF70002300
:103A20004FA24FF48C710090642004F08DF801F0E7
:103A30003AFD044624B9022001F055FD0446A1E0F8
:103A4000B6E016E1EEE0B7E0496E707574204164AF
:103A50006D696E2050617373776F726400000000AF
:103A6000DC000020A4FD08082D000000496E7075E0
:103A700074204E65772041646D696E2050617373C8
:103A8000776F726400000000E400002045786974DC
:103A900000000000EC0000204F8F0308A35701082E
:103AA000C7E5BFD5D6B8CEC6BFE20000C7E5BFD5D3
:103AB000D6B8CEC6BFE2B3C9B9A6A3A1A3A1A3A19C
:103AC00000000000C9BEB3FDD6B8B6A8D3C3BBA7DB
:103AD000494400002A2A2AC3FCC1EEA3BAC7EBCA94
:103AE000E4C8EBB4E6B4A24944A3ACB7B6CEA7CEC3
:103AF000AA307E3233392A2A2A000000C9BEB3FD1B
:103B0000D6B8B6A8D3C3BBA7D6B8CEC6B3C9B9A6D4
:103B1000A3A1A3A1A3A100002A2A2A2A2A2AC3FC1E
:103B2000C1EEA3BAC7EBB0B4CAD6D6B82A2A2A2A9D
:103B30002A2A0000CAE4C8EBD6B8CEC631D5FDB3F8
:103B4000A32121210000000025640000D6B8CEC6C4
:103B5000D2D1B4E6D4DA2CD6B8CEC649443A000065
:103B60002A2A2A2A2A2AC3FCC1EEA3BAC7EBD4D92F
:103B7000B0B4D2BBB4CECAD6D6B82A2A2A2A2A2AA8
:103B80000000000084B94FF6FF7002F03CFC4FF6D5
:103B9000FF700023F6A24FF48C710090642003F0B4
:103BA000D3FF0025022606E0204601F01BFE02E0BE
:103BB000204601F017FE97E04FF6FF7002F023FC5D
:103BC0004FF6FF700023EFA24FF48C710090642039
:103BD00003F0BAFF01F0DDFC04467CB94FF6FF703C
:103BE00002F011FC4FF6FF700023ECA24FF48C7131
:103BF0000090642003F0A8FF032612E04FF6FF7048
:103C000002F001FC4FF6FF700023EAA24FF48C7122
:103C10000090642003F098FF204601F0E3FD0025AA
:103C2000002661E04FF6FF7002F0EDFB4FF6FF70EB
:103C30000023E8A24FF48C710090642003F084FF0D
:103C400001F0C3FC04467CB94FF6FF7002F0DBFBC9
:103C50004FF6FF700023E4A24FF48C7100906420B3
:103C600003F072FF042603E00026204601F0BAFDAF
:103C70003AE000BF4FF6FF7002F0C5FB4FF6FF7051
:103C80000023AFF2B0124FF48C710090642003F067
:103C90005BFF4FF4FA60FEF7C0FF01F0B2FC80B2A8
:103CA0000390BDF80C00F028E4DABDF80C100220F7
:103CB00001F0ADFC044694B94FF6FF7002F0A3FB8F
:103CC0004FF6FF700023CEA24FF48C710090642059
:103CD00003F03AFF4FF4FA60FEF79FFF8BE60026F1
:103CE000204601F07FFD00BF00BF4FF47A70FEF761
:103CF00094FF042D0ED14FF6FF7002F084FB4FF6B7
:103D0000FF700023C4A24FF48C710090642003F074
:103D10001BFF00E014E600BF00BF6CE670B501F0C9
:103D2000B3FA044620463AF0A5FABF480078BF49E6
:103D3000097888421FD1BC484078BC4949788842FC
:103D400019D1B9488078B9498978884213D1204679
:103D50000BF044F80546B6A128460BF0D0FC14231E
:103D600000220221284636F040FC4FF47A70FEF71C
:103D700054FF012070BD20460BF030F80546B4A179
:103D800028460BF0BCFC142300220221284636F002
:103D90002CFC4FF47A70FEF740FF0020EAE72DE993
:103DA000F04704460D4601F06FFA81460BF016F815
:103DB0000646294630460BF0A2FC00274FF02808A3
:103DC000012C04D0022C05D0032C07D104E06FF0A5
:103DD0003B0705E0002703E03C2701E0642700BF24
:103DE00000BF0FFA88F33AB20921304636F0FDFBE6
:103DF000BDE8F087F8B500240025002600279D487F
:103E0000006840B94FF480619B48FDF715F910B187
:103E10000120984908604FF480619748FDF70CF93C
:103E2000002833D197BB9348006801282ED1322057
:103E3000FEF7F3FE002721E09048007803281DDC00
:103E400003242246AFF2003168463CF06DF9694622
:103E50008A480078FFF7A3FF88480078401E72491F
:103E60000C544FF480618448FDF7E6F830B1834884
:103E70000078401C81490870012706E04FF48061FA
:103E80007D48FDF7D9F80028D6D000BF4FF4007167
:103E90007948FDF7D1F870BB6EBB3220FEF7BDFE4E
:103EA000002620E07548007803281CDC0224224606
:103EB000AFF26C3168463CF037F969466F480078DC
:103EC000FFF76DFF6D480078401E57490C542102E2
:103ED0006948FDF7B1F830B168480078401C67497F
:103EE0000870002606E04FF400716348FDF7A4F85F
:103EF0000028D7D000BF4FF480715F48FDF79CF8D1
:103F000070BB6DBB3220FEF788FE012520E05B48C8
:103F1000007803281CDC01242246AFF2D431684625
:103F20003CF002F9694655480078FFF738FF5348DE
:103F30000078401E3C490C5421024F48FDF77CF8A4
:103F400030B14E480078401C4C490870012506E00D
:103F50004FF480714848FDF76FF80028D7D000BFB4
:103F6000F8BD10B54649474800680BF0C8FB10BDC6
:103F7000CAE4C8EBD6B8CEC632D5FDB3A321212101
:103F800000000000D5FDD4DAB6D4B1C8C1BDB4CEAE
:103F9000CAE4C8EBB5C4D6B8CEC60000CAE4C8EBC4
:103FA000D6B8CEC6B6D4B1C8B3C9B9A6A3A1A3A189
:103FB000A3A10000B6D4B1C8CAA7B0DCA3ACC7EBBC
:103FC000D6D8D0C2C2BCC8EBD6B8CEC6A3A1A3A1D6
:103FD000A3A10000D5FDD4DAC9FAB3C9D6B8CEC6BC
:103FE000C4A3BFE900000000C9FAB3C9D6B8CEC661
:103FF000C4A3BFE9B3C9B9A6A3A1A3A1A3A100000B
:10400000C2BCC8EBD6B8CEC6C4A3BFE9B3C9B9A673
:10401000A3A1A3A1A3A10000C2BCD6B8CEC6CAA7C3
:10402000B0DCA3A1000000005000002053000020DD
:1040300053616D652061732050726576696F757389
:104040002050617373776F7264212121000000009A
:1040500050617373776F7264204368616E67656443
:10406000205375636365737366756C6C79212121C8
:10407000000000005C000020001402404F000020FF
:10408000000600206C000020FE49097808290DDA9E
:10409000FD49FC4A12788854FA490978491CF94AC2
:1040A00011700021F84AF74B1B78D154704710B5B6
:1040B000F6480168F4483BF0A5FF40B9F4A1F9487F
:1040C00000680BF01CFB0120F749088004E0F7A111
:1040D000F44800680BF013FBEB48002101604160DD
:1040E00001720020E7490870FFF73BFF10BDE5486B
:1040F0000078002809DDE3480078401EE149087097
:104100000020E149DF4A1278885470472DE9F041D8
:104110000546284630F085F80646304607F007FB8E
:1041200007463946304607F008FB04460CB9BDE89F
:10413000F081E8A120463BF065FF20B9FFF7D7FFEB
:10414000FFF70FFF0CE0E4A120463BF05BFF10B946
:10415000FFF7ADFF04E02078FFF796FFFFF701FFC0
:1041600000BFE4E72DE9F047002033F089F804466A
:1041700020460AF033FE8146D8A148460BF0BFFA2C
:10418000142300220221484636F02FFA20460AF076
:1041900025FED8490860AFF21821D64800680BF018
:1041A000AEFA0022D449D348006839F021FE3C23FE
:1041B00000220221CF48006836F017FA20460AF0A4
:1041C0000DFEB8490860CDA1B64800680BF097FA1B
:1041D000642300220221B348006836F006FA204624
:1041E00006F08FFF0546CA49284606F0F7FF282348
:1041F00000220921284636F0F8F92E460A274FF00A
:10420000000842463946304639F08AFB4246394674
:10421000304639F091FB42463946304639F068FB6A
:1042200042463946304639F06FFB00BF00220A2172
:10423000284639F08DFB00220A21284639F094FBEC
:10424000FA035021284639F087FAFA033C21284620
:1042500039F0A6FA00231C22AE49284630F019F89E
:10426000264630462FF034FD00BFBDE8F0871FB56D
:10427000002003904FF6FF7002F0C5F84FF6FF7074
:104280000023A5A24FF48C710090642003F05CFC25
:1042900001F009F90446002C3DD1012001F023F979
:1042A0000446002C33D103ABF0220021012001F0A1
:1042B000DAF904463CBBBDF80C20AFF2747101A8DA
:1042C0003BF032FF4FF6FF7002F09DF84FF6FF70A3
:1042D00000239BA24FF48C710090642003F034FC07
:1042E0004FF6FF70002301AA4FF48C7100904FF439
:1042F000967003F029FC0120974908604FF4FA609A
:10430000FEF78BFC0AE0204601F06CFA06E020463E
:1043100001F068FA02E0204601F064FA1FBD08B51A
:104320008E4800788E49097888421AD18B484078A7
:104330008B494978884214D188488078884989789F
:1043400088420ED14FF6FF70002386A2B421009060
:10435000C82003F0F9FB4FF47A70FEF75EFC0120F1
:1043600008BD4FF6FF70002382A2B4210090C82040
:1043700003F0EAFB4FF47A70FEF74FFC0020EFE702
:1043800038B50024FEF7C4FD04467E4800780D28A9
:1043900020D2DFE800F01F0720427574737271703D
:1043A0006F6E6D007848007820B9FEF789FE012015
:1043B00075490870012C05D102207249087001204E
:1043C00072490870032C05D103206E490870012042
:1043D0006F49087015E26D480078012804D1FEF796
:1043E000DEFE002069490870012C05D104206549D2
:1043F0000870012067490870022C05D10520614929
:104400000870012064490870032C05D101205D4922
:10441000087000205C490870F3E15D4800780128CD
:1044200006D1FFF703F90020594908705B4908607D
:104430000A20FEF7F2FB03F0A3FEFFF7DBFC58486F
:104440000078042812D16420FEF7E7FBFFF767FF2E
:104450005449087008460078012808D1504908706E
:1044600006204849087001204F499FE0A5E09FE0E1
:10447000B3E19EE17BE166E143E1F6E0D3E0BBE03E
:104480009CE000006800002000060020640000207E
:10449000556E6C6F636B20737563636573736675BC
:1044A0006C2100007000002040000020496E636F06
:1044B00072726563742070617373776F72642C20FD
:1044C000706C656173652074727920616761696ED3
:1044D0002100000044656C004F4B0000506C65618A
:1044E000736520656E7465722070617373776F7287
:1044F000643A00006C000020A4FD0808417761695F
:1045000074696E6720696E7075742E2E2E0000001F
:10451000740000200D4100082A2A2A2A2A2AC3FCF6
:10452000C1EEA3BAB6D4B1C8D6B8CEC6A3ACC7EB59
:10453000B0B4CAD6D6B82A2A2A2A2A2A00000000ED
:10454000B6D4B1C8D6B8CEC6B3C9B9A6A3ACD6B88E
:10455000CEC64944A3BA00006000002050000020ED
:1045600053000020C3DCC2EBD5FDC8B7A3A1A3A1B3
:10457000A3A10000C3DCC2EBB4EDCEF3A3A1A3A1C1
:10458000A3A10000420000204300002044000020BE
:104590004500002046000020470000205C0000206D
:1045A0004F0000205600002048000020087004E062
:1045B0000120FE490870FE49087022E1FD4800789C
:1045C000012806D1FFF753FEFFF7DEF80020F94976
:1045D0000870F9480068012805D11E2003F0FEFE8E
:1045E0000020F5490860012C05D10120F34908702D
:1045F0000020F349087004E1F2480078012804D152
:10460000FFF7B0FD0020EF490870EF48008801284F
:1046100008D11E2003F0E2FE0120E84908700020C6
:10462000E7490870EDE0E9480078012804D100204E
:10463000E6490870FEF717FE012C05D10720DF4977
:1046400008700120E2490870022C05D10820DB49DE
:1046500008700120DF490870032C05D10120D749DB
:1046600008700020D6490870CBE0D94800780128AE
:1046700007D10020D6490870FFF72FF80020D6494F
:1046800008600A20FEF7C9FA03F07AFDFFF7B2FBD3
:10469000C6480078042833D16420FEF7BEFAFFF73D
:1046A0003DFBCE49087008460078012814D1BF4967
:1046B00008704FF6FF704FF47843C9A24FF4A5710C
:1046C0000090C82003F040FA4FF47A70FEF7A5FA84
:1046D0000120BF49087013E0002004E0C849095CCC
:1046E000C84A1154401C0328F8DB03F017FD0120D1
:1046F000AE4908700620B14908700120B34908701E
:104700007FE0B4480078012804D1FEF770FE002055
:10471000B0490870012C05D10920A8490870012072
:10472000B9490870022C05D10A20A449087001205B
:10473000B6490870032C05D10620A0490870012055
:10474000A24908705DE0B0480078012806D1FFF763
:10475000F2F8FFF719F80020AB490870012C05D1D9
:1047600001209649087000209549087049E0A74843
:104770000078012804D1FEF7DAFD0020A349087073
:10478000012C05D10B208D4908700120A04908702B
:10479000022C05D10C208949087001209D49087020
:1047A000032C05D10620854908700120874908702F
:1047B00027E097480078012806D1FFF778F8FEF740
:1047C000E3FF002092490870012C05D101207B49AC
:1047D000087000207A49087013E08E48007801289C
:1047E00006D1FFF73AF8FEF7CFFF0020894908709D
:1047F000012C05D101207149087000207049087012
:1048000000BF00BF38BD10B5834800F08CFE18B162
:1048100082A03BF079FC04E08CA03BF075FCFEF735
:10482000B3FF10BD2DE9F0438BB00024A1460B2649
:10483000002009900A908D4903C9CDE907010025A0
:10484000A04600278A49086880474FF6FF7001F0AC
:10485000DAFD4FF6FF70002386A29B21009087208F
:1048600003F072F9002040F2FD2340F29F1240F263
:10487000A321009040F2451002F093FF002040F287
:10488000FD2340F21D1240F2A3210090C32002F04C
:1048900088FF002040F277139B2240F21D11009008
:1048A000412002F07EFF002040F2771340F21D12FB
:1048B00011460090C32002F074FF002040F27713ED
:1048C00040F29F1240F21D11009040F2451002F09C
:1048D00068FF002040F2F9139B2240F29F110090E4
:1048E000412002F05EFF002040F2F91340F21D1259
:1048F00040F29F110090C32002F053FF002040F2CD
:10490000F91340F29F121146009040F2451002F058
:1049100048FF002040F27B239B2240F2212100909F
:10492000412002F03EFF002040F27B2340F21D12A6
:1049300040F221210090C32002F033FF002040F21A
:104940007B2340F29F1240F22121009040F245105B
:1049500002F027FF002040F2FD239B2240F2A3211A
:104960000090412002F01DFF4FF6FF70002346A289
:1049700040F2C62100904FF4B47003F0E5F84FF612
:10498000FF70002342A240F2C6210090EB2003F00A
:10499000DBF84FF6FF7000233EA24FF4A0710090A9
:1049A000692003F0D1F84FF6FF7075E04F0000204A
:1049B000450000204600002060000020420000204A
:1049C0004300002047000020400000204800002055
:1049D000490000204A0000205C0000205600002012
:1049E000D3EBC9CFB4CEC3DCC2EBCAE4C8EBD2BBB5
:1049F000D6C2A3ACC7EBD6D8D0C2CAE4C8EB00007D
:104A000050000020530000204B0000204C000020EC
:104A10004D0000204E000020F40000203C3C2D41C1
:104A2000533630382D494E464F2D3E3E20CEB4BC35
:104A3000ECB2E2B5BDD6B8CEC6C4A3BFE9C7EBBCE5
:104A4000ECB2E9C1ACBDD30D0A0A00003C3C2D41DB
:104A5000533630382D494E464F2D3E3E20CDA8D1FD
:104A6000B6B3C9B9A60D0A0A000000003C04040848
:104A700018010020B0B4BCFCC7B0CFC8B0B4CFC2DE
:104A8000C8B7C8CFBCFC0000C9BEB3FD0000000021
:104A900030000000310000000023FBA24FF4A071A1
:104AA0000090EB2003F050F84FF6FF700023F7A2C0
:104AB0004FF4A071009040F26D1003F045F84FF6EE
:104AC000FF700023F2A24FF4E1710090692003F01F
:104AD0003BF84FF6FF700023EEA24FF4E171009017
:104AE000EB2003F031F84FF6FF700023EAA24FF4F9
:104AF000E171009040F26D1003F026F84FF6FF7060
:104B00000023E6A24FF411710090692003F01CF815
:104B10004FF6FF700023E2A24FF411710090EB20DA
:104B200003F012F84FF6FF700023DEA24FF411716C
:104B3000009040F26D1003F007F84FF6FF7000236D
:104B4000D9A240F2C6210090692002F0FDFF96E351
:104B5000D748416800208847002444E2D44890F8B0
:104B600020000121A140084020B3D1480C3030F88A
:104B70001400D049098888421CDACD48163030F834
:104B80001400CC494988884214DA02A830F824007D
:104B90004FF6FF7188420DD1C5480C3030F8140033
:104BA00002A921F82400C248163030F8140001EBA5
:104BB00084014880BE480C3030F81400412815DDCF
:104BC000BB480C3030F814009B280FDAB848163078
:104BD00030F81400B0F5297F08DBB548163030F8FE
:104BE0001400B0F53F7F01DC07B90127B0480C3055
:104BF00030F81400C32821DDAD480C3030F8140023
:104C0000B0F58E7F1ADCAA48163030F81400B0F5E3
:104C1000297F13DBA648163030F81400B0F53F7F2B
:104C20000CDC07B9DDE16D1C042D00DD042500213D
:104C3000681E09AA22F81010884600279C480C30EC
:104C400030F81400412824DD99480C3030F8140065
:104C50009B281EDA9648163030F81400B0F58F7F86
:104C600017DB9348163030F81400B0F5BB7F10DC2A
:104C700007B9B6E16D1C042D00DD04250121681E75
:104C800009AA22F810104FF0000800273220FDF783
:104C9000C4FF87480C3030F81400C32825DD844851
:104CA0000C3030F81400B0F58E7F1EDC80481630D2
:104CB00030F81400B0F58F7F17DB7D48163030F8E0
:104CC0001400B0F5BB7F10DC07B98AE16D1C042D20
:104CD00000DD04250221681E09AA22F810104FF0F9
:104CE000000800273220FDF798FF71480C3030F89B
:104CF0001400B0F5A37F25DB6D480C3030F81400AC
:104D0000B0F5CF7F1EDC6A48163030F81400B0F5DD
:104D10008F7F17DB6648163030F81400B0F5BB7F84
:104D200010DC07B95DE16D1C042D00DD04250321B5
:104D3000681E09AA22F810104FF000080027322040
:104D4000FDF76BFF5A480C3030F81400412824DD81
:104D500057480C3030F814009B281EDA544816309F
:104D600030F81400B0F5D07F17DB5148163030F81A
:104D70001400B0F5FC7F10DC07B932E16D1C042D86
:104D800000DD04250421681E09AA22F810104FF046
:104D9000000800273220FDF740FF45480C3030F86E
:104DA0001400C32825DD42480C3030F81400B0F55B
:104DB0008E7F1EDC3E48163030F81400B0F5D07FF0
:104DC00017DB3B48163030F81400B0F5FC7F10DCE0
:104DD00007B906E16D1C042D00DD04250521681EC0
:104DE00009AA22F810104FF0000800273220FDF722
:104DF00014FF2F480C3030F81400B0F5A37F25DBEA
:104E00002B480C3030F81400B0F5CF7F1EDC28485A
:104E1000163030F81400B0F5D07F17DB2448163078
:104E200030F81400B0F5FC7F10DC07B9D9E06D1C38
:104E3000042D00DD04250621681E09AA22F81010A1
:104E40004FF0000800273220FDF7E7FE18480C302D
:104E500030F8140041283EDD15480C3030F81400BD
:104E60009B2838DA1248163030F8140040F221211D
:104E7000884230DD0E48163030F8140040F27B21B5
:104E8000884228DAC7B9ACE03200000033000000E5
:104E9000340000003500000036000000370000003C
:104EA0003800000039000000C8B7C8CF000000007B
:104EB00018010020740600206D1C042D00DD04255F
:104EC0000721681E09AA22F810104FF000080027D9
:104ED0003220FDF7A2FEF04830F81400C32826DD8A
:104EE000ED4830F81400B0F58E7F20DCEA480A3037
:104EF00030F8140040F22121884218DDE6480A30DB
:104F000030F8140040F27B21884210DA07B968E0DB
:104F10006D1C042D00DD04250821681E09AA22F855
:104F200010104FF0000800273220FDF776FEDA4817
:104F300030F81400B0F5A37F26DBD74830F8140012
:104F4000B0F5CF7F20DCD4480A3030F8140040F2AE
:104F50002121884218DDD0480A3030F8140040F290
:104F60007B21884210DA07B93BE06D1C042D00DD7F
:104F700004250921681E09AA22F810104FF0000824
:104F800000273220FDF749FEC34830F81400B0F581
:104F9000A37F25DBC04830F81400B0F5CF7F1FDCBD
:104FA000BD480A3030F81400B0F5297F18DBBA4844
:104FB0000A3030F81400B0F53F7F11DC6D1E002D73
:104FC00000DA0025002009A921F81500804600BF5D
:104FD000B1480C3840680128FAD03220FDF71DFE98
:104FE00000BF601CC4B2052CFFF6B8AD95BBB8F18C
:104FF000000F0BD14FF6FF70EB234FF4E172CD2180
:105000000090642002F021FB4FF001080020A3492A
:1050100008800B2605E0F2B2DC21B42002F03BFC54
:10502000761E092EF7DA0B2605E0F2B2DC210846DF
:1050300002F031FC761E092EF7DA0B2606E0F2B2FA
:10504000DC214FF4827002F026FC761E092EF6DA7F
:105050000B2607E009E0F2B2DC214FF4967002F073
:105060001AFC761E092EF6DA02E1012D37D1B8F1CD
:10507000000F0AD14FF6FF70EB234FF4E172CD2100
:105080000090642002F0E1FAA846002083490880DD
:1050900000230B22DC21B42002F0E2FD0B2605E008
:1050A000F2B2DC21084602F0F6FB761E092EF7DA92
:1050B0000B2606E0F2B2DC214FF4827002F0EBFB2B
:1050C000761E092EF6DA0B2606E0F2B2DC214FF44A
:1050D000967002F0E0FB761E092EF6DAC8E0022D8B
:1050E00034D1B8F1000F0BD14FF6FF70EB234FF422
:1050F000E172CD210090642002F0A7FA4FF0010880
:1051000000206649088000230B22DC21B42002F035
:10511000A7FD00230B22DC21084602F0A1FD0B268F
:1051200006E0F2B2DC214FF4827002F0B4FB761E8E
:10513000092EF6DA0B2606E0F2B2DC214FF4967067
:1051400002F0A9FB761E092EF6DA91E0032D30D18C
:10515000B8F1000F0BD14FF6FF70EB234FF4E17263
:10516000CD210090642002F070FA4FF00108002079
:105170004A49088000230B22DC21B42002F070FD94
:1051800000230B22DC21084602F06AFD00230B22DB
:10519000DC214FF4827002F063FD0B2606E0F2B2D0
:1051A000DC214FF4967002F076FB761E092EF6DABB
:1051B0005EE0042D5CD1B8F1000F0BD14FF6FF700B
:1051C000EB234FF4E172CD210090642002F03DFA10
:1051D0004FF0010800203149088000230B22DC2118
:1051E000B42002F03DFD00230B22DC21084602F032
:1051F00037FD00230B22DC214FF4827002F030FDDA
:1052000000230B22DC214FF4967002F029FDBDF83B
:105210002400BDF81C1088421FD1BDF82600BDF83F
:105220001E10884219D1BDF82800BDF82010884210
:1052300013D1BDF82A00BDF8221088420DD14FF6D7
:10524000FF70002316A278210090DC2002F07CFC85
:105250004FF4FA70FDF7E1FC12E000250020ADF8F4
:105260002400ADF82600ADF82800ADF82A008046ED
:105270001E20FDF7D2FC09F1010000F0FF0967E4F0
:1052800000BF0BB0BDE8F08310B516F00FF8044670
:105290002EF0B0FA10BD000024010020F80000201C
:1052A000BDE2CBF8B3C9B9A60000000008B54FF4C1
:1052B000A060FBF7EFF935208DF8000000208DF895
:1052C000010001208DF802008DF803006846FBF70D
:1052D000E6F917208DF8000001208DF8010002206A
:1052E0008DF802006846FBF7DAF908BD00B589B011
:1052F00001210220FCF784F801218803FCF7C4F89F
:1053000001210C20FCF77CF801210805FCF7ABF823
:10531000FFF7CCFF4FF48070079000208DF820003D
:105320008DF8230007A9F648FBF724FE0821012089
:10533000FCF7AEFB4FF48070059000208DF818004C
:1053400010208DF8190001208DF81A0005A8FBF730
:105350001FFA00208DF8220001208DF82300022082
:105360008DF821008DF82000C002079007A9E548BC
:10537000FBF700FE02208DF820000420079007A90B
:10538000E148FBF7F7FD08220221DF48FBF77DFE2D
:1053900008220C21DB48FBF778FE4FF461400190B6
:1053A0000020ADF80800ADF80A00ADF80C00ADF82B
:1053B00010000C20ADF80E0001A9D448FDF740FA0A
:1053C000FFF774FF012240F22551D048FDF776FB2C
:1053D000012240F22441CD48FDF770FB0121CB486A
:1053E000FDF7B6FA09B000BD10B504462146C7481E
:1053F000FDF7D9FA00BF8021C448FDF784FB0028DF
:10540000F9D010BD10B5EF20FFF7EEFF0120FFF738
:10541000EBFFBF490968080EFFF7E6FFBC480068CC
:10542000C0F30740FFF7E0FFB9480088C0F307204A
:10543000FFF7DAFFB6490878FFF7D6FF10BD10B5C1
:1054400004462046FFF7D0FF10BD10B504462012D9
:10545000FFF7CAFFE0B2FFF7C7FF10BD10B5044663
:105460002046FFF7C1FF10BD10B504462012FFF71C
:10547000BBFFE0B2FFF7B8FF10BD70B50446A5480A
:1054800000F0C9FC054655B100BF286800BF286878
:10549000407A20809F4800F0D8FC208870BDFF2013
:1054A00020802088FAE738B50020009040F6B83018
:1054B000FDF7B3FBFFF7A6FF0120FFF7C0FF0320B6
:1054C000FFF7C3FF0120FFF7C9FF05242046FFF7C0
:1054D000CBFF4FF4FA70FDF7A0FB6846FFF7CDFF56
:1054E0000546284638BDF8B5044600200090FFF771
:1054F00089FF0120FFF7A3FF0420FFF7A6FF02208A
:10550000FFF7ACFF2046FFF76FFFE51D2846FFF7CA
:10551000ABFF4FF4FA70FDF780FB6846FFF7ADFF75
:1055200006463046F8BD38B50546FFF76BFF01204B
:10553000FFF75AFF0020FFF757FF0020FFF754FF47
:105540006420FDF76AFB734800F065FC0446002CFC
:105550001DD000BF206800BF20680078EF2811D15F
:105560002068407801280DD120688079072809D16A
:1055700020684079009020680379C278817866A01D
:105580003AF0C2FD634800F060FC002038BD012005
:10559000FCE738B500200090FFF734FF0120FFF74B
:1055A0004EFF0320FFF751FF0320FFF757FF0724AB
:1055B0002046FFF759FF4FF4FA70FDF72EFB6846BF
:1055C000FFF75BFF0546284638BD38B50020009040
:1055D000FFF718FF0120FFF732FF0320FFF735FF29
:1055E0000520FFF73BFF09242046FFF73DFF4FF45E
:1055F000FA70FDF712FB6846FFF73FFF05462846A5
:1056000038BD10B5FDF7FCFC0446204610BDF8B5CA
:1056100005460C4600200090FFF7F4FE0120FFF73E
:105620000EFF0620FFF711FF0620FFF717FF2846A1
:10563000FFF7DAFE2012FFF7D7FEE0B2FFF7D4FE45
:1056400005F10D0000EB2420E1B246183046FFF7CB
:105650000BFF4FF4FA70FDF7E0FA6846FFF70DFF15
:1056600007463846F8BD2DE9F04780460C461546FA
:105670009946FFF7C7FE0120FFF7E1FE0820FFF77C
:10568000E4FE1B20FFF7EAFE4046FFF7ADFE2012C6
:10569000FFF7AAFEE0B2FFF7A7FE2812FFF7A4FE6D
:1056A000E8B2FFF7A1FE08F1240000EB2420E1B2EC
:1056B000084400EB2520E9B200EB010A5046FFF751
:1056C000D3FE4FF4FA70FDF7A8FA124800F0A3FBDE
:1056D000064696B100BF306800BF3068477A306830
:1056E000C07A3168897A00EB0120A9F800000948E6
:1056F00000F0ABFB3846BDE8F087FF273846FAE7F5
:105700000004024000080240000C0240005000402B
:10571000F40000201C0600203C3C2D41533630385C
:105720002D494E464F2D3E3E20D6B8CEC6C4A3BF0F
:10573000E9B5C4B5D8D6B7CEAA3A30782578257859
:10574000257825780D0A0A00F8B504460D46002094
:105750000090FFF757FE0120FFF771FE0720FFF7CB
:1057600074FE0C20FFF77AFE2012FFF73DFEE0B238
:10577000FFF73AFE2812FFF737FEE8B2FFF734FED4
:10578000142000EB2420E1B2084400EB2520E9B20C
:1057900046183046FFF768FE4FF4C870FDF73DFA33
:1057A0006846FFF76AFE07463846F8BD38B5002060
:1057B0000090FFF727FE0120FFF741FE0320FFF7CF
:1057C00044FE0D20FFF74AFE11242046FFF74CFE51
:1057D0004FF4C870FDF721FA6846FFF74EFE054604
:1057E000284638BD38B50446212C71D2DFE804F0D4
:1057F0001124374A5D718497AABDD0E37070707030
:10580000FDFC707070FB7070FAF9F8F7F67070F5C7
:10581000F4004FF6FF7000F0F6FD4FF6FF70002326
:10582000DDA24FF48C710090C82002F08DF94FF486
:10583000FA60FDF7F2F9ADE14FF6FF7000F0E3FD1D
:105840004FF6FF700023D5A24FF48C710090C82052
:1058500002F07AF94FF4FA60FDF7DFF99AE14FF6BA
:10586000FF7000F0D0FD4FF6FF700023CFA24FF481
:105870008C710090C82002F067F94FF4FA60FDF7D0
:10588000CCF987E14FF6FF7000F0BDFD4FF6FF70D9
:105890000023CDA24FF48C710090C82002F054F97F
:1058A0004FF4FA60FDF7B9F974E14FF6FF7000F0BC
:1058B000AAFD4FF6FF700023C8A24FF48C71009030
:1058C000C82002F041F94FF4FA60FDF7A6F961E152
:1058D0004DE14FF6FF7000F096FD4FF6FF7000238C
:1058E000C6A24FF48C710090C82002F02DF94FF43D
:1058F000FA60FDF792F94DE14FF6FF7000F083FD7D
:105900004FF6FF700023C5A24FF48C710090C820A1
:1059100002F01AF94FF4FA60FDF77FF93AE14FF619
:10592000FF7000F070FD4FF6FF700023C2A24FF42D
:105930008C710090C82002F007F94FF4FA60FDF76F
:105940006CF927E14FF6FF7000F05DFD4FF6FF7038
:105950000023C7A24FF48C710090C82002F0F4F825
:105960004FF4FA60FDF759F914E14FF6FF7000F0BB
:105970004AFD4FF6FF700023C0A24FF48C710090D7
:10598000C82002F0E1F84FF4FA60FDF746F901E1B2
:105990004FF6FF7000F037FD4FF6FF700023C1A2F5
:1059A0004FF48C710090C82002F0CEF84FF4FA60EA
:1059B000FDF733F9EEE04FF6FF7000F024FD4FF6EF
:1059C000FF700023BBA24FF48C710090C82002F03E
:1059D000BBF84FF4FA6009E0B6E0A2E08EE07AE0AE
:1059E00066E052E03EE02AE016E002E0FDF715F93D
:1059F000D0E04FF6FF7000F006FD4FF6FF70002379
:105A0000B5A24FF48C710090C82002F09DF84FF4BD
:105A1000FA60FDF702F9BDE04FF6FF7000F0F3FC0D
:105A20004FF6FF700023B0A24FF48C710090C82095
:105A300002F08AF84FF4FA60FDF7EFF8AAE04FF6AB
:105A4000FF7000F0E0FC4FF6FF700023AAA24FF4B5
:105A50008C710090C82002F077F84FF4FA60FDF7DF
:105A6000DCF897E04FF6FF7000F0CDFC4FF6FF70CA
:105A70000023AAA24FF48C710090C82002F064F8B1
:105A80004FF4FA60FDF7C9F884E04FF6FF7000F0BC
:105A9000BAFC4FF6FF700023A4A24FF48C71009063
:105AA000C82002F051F84FF4FA60FDF7B6F871E043
:105AB0004FF6FF7000F0A7FC4FF6FF7000239EA288
:105AC0004FF48C710090C82002F03EF84FF4FA6059
:105AD000FDF7A3F85EE04FF6FF7000F094FC4FF680
