:020000040800F2
:10000000C0170020AD03000855040008570400087D
:100010005B0400085F04000863040008000000009F
:10002000000000000000000000000000670400085D
:1000300069040008000000006B0400086D0400085B
:10004000C7030008C7030008C7030008C703000868
:10005000C7030008C7030008C7030008C703000858
:10006000C7030008C7030008C7030008C703000848
:10007000C7030008C7030008C7030008C703000838
:10008000C7030008C7030008C7030008C703000828
:10009000C7030008C7030008C7030008DB05000802
:1000A000C7030008C7030008C7030008C703000808
:1000B000C7030008C7030008C7030008C7030008F8
:1000C000C7030008C7030008C7030008C7030008E8
:1000D000C7030008C7030008C7030008010500089C
:1000E000C7030008C7030008C7030008C7030008C8
:1000F000C7030008C7030008C7030008C7030008B8
:10010000C7030008C7030008C7030008C7030008A7
:10011000C7030008F1050008C7030008C70300086B
:10012000C7030008C7030008C7030008C703000887
:10013000C7030008C7030008C7030008C703000877
:10014000C7030008C7030008C7030008C703000867
:10015000C7030008C7030008C703000851050008CB
:10016000C7030008C7030008C7030008C703000847
:10017000C7030008C7030008C7030008C703000837
:10018000C7030008C7030008DFF80CD008F050FBD5
:1001900000480047D1030008C01700200CB500201C
:1001A000019000907648006840F4803074490860FF
:1001B00000BF7348006800F4003000900198401CB4
:1001C0000190009818B90198B0F5A06FF1D16C4872
:1001D000006800F4003010B10120009001E0002020
:1001E00000900098012846D165484030006840F0F2
:1001F00080506349403108606248006840F48040A4
:10020000604908605E48083000685D490831086050
:100210000846006840F4004008600846006840F462
:10022000A05008605848091F0860081F006840F087
:100230008070091F086000BF5148006800F000701E
:100240000028F9D040F20560504908604C48083059
:10025000006820F003004A49083108600846006839
:1002600040F00200086000BF45480830006800F018
:100270000C000828F8D10CBD10B54548006840F4C2
:100280007000434908603E48006840F001003C4966
:10029000086000203A4908310860394800683D4943
:1002A0000840374908603C48091D0860081F00687D
:1002B00020F48020091F0860002031490C310860BB
:1002C000FFF76CFF4FF0006031498039086010BDC6
:1002D00070B500200022022300240221284D083599
:1002E0002D6805F00C0020B1042806D0082834D170
:1002F00007E02A4D2A4E356033E02A4D284E3560FE
:100300002FE01F4D2D1D2D68C5F380541C4D2D1D54
:100310002D6805F03F0154B1224DB5FBF1F5184EA3
:10032000361D3668C6F3881605FB06F209E01B4D3C
:10033000B5FBF1F5124E361D3668C6F3881605FB7F
:1003400006F20F4D2D1D2D68C5F301456D1C6B0088
:10035000B2FBF3F5124E356003E0104D104E3560E0
:1003600000BF00BF064D08352D68C5F303150E4EBE
:10037000705D0B4D2D68C540094E356070BD0000A5
:10038000003802400070004019544007003C024011
:1003900088ED00E0FFFFF6FE103000240024F4009A
:1003A0000000002040787D010400002006488047BE
:1003B00006480047FEE7FEE7FEE7FEE7FEE7FEE74A
:1003C000FEE7FEE7FEE7FEE7790200088901000884
:1003D00008B502F0F7FB02F049FC02F085FD07F0DA
:1003E00095F802F07DFC0020009007F0EBF80090FB
:1003F00014A008F03FFA07F08BFB4FF4165002F000
:10040000EEFCBDF800004EF61471884205D0BDF830
:10041000000040F61531884203D180210C4800F0DD
:1004200029FE05F054F904F089FB04F004FB05F003
:1004300023FC4FF6FF7005F009FC00BF01E004F05B
:10044000FFF8FCE753504920746573740D0A0000EF
:1004500000140240704700BFFEE700BFFEE700BF88
:10046000FEE700BFFEE770477047704710B577485A
:100470000068401C7549086008460068B0F57A7F3E
:1004800012D3002008600121714800F0E4FD08B992
:10049000012000E000200446224601216C4800F0C3
:1004A000EBFD01206B4908706B480078012817D1DB
:1004B0005A216A4801F0C1FD69480068401C68493A
:1004C00008600846006867490968884208D9002022
:1004D00061490870624908601E21604801F0ADFD65
:1004E00002F0B3FB6048007A48B15F48007A401ED2
:1004F0005D4908720846007A08B90120487210BDAB
:1005000010B540F22551594802F015FBF8B140F200
:100510002551564802F046FB544802F04AFAC1B24F
:10052000514842684068401C4F4B5860184600686C
:1005300081544E4802F03DFA30384D490870084663
:1005400001784CA008F096F903204749087210BDC5
:1005500010B540F225514A4802F0EDFA00283AD091
:1005600040F22551464802F01DFB454802F021FAB1
:1005700044490968434A526888544248406840B92F
:10058000404800680078552803D000203D49486065
:1005900010BD3C484068012808D13A4800684078BE
:1005A000532803D0002037494860F1E735484068B8
:1005B000401C34494860084640680B280BD1084667
:1005C00014220168304808F0BFF801202F49087054
:1005D00000202C49486000BFDAE710B54FF4807066
:1005E00000F03EF918B14FF4807000F04AF910BDE8
:1005F00070B540F22551264802F09DFAB0B124486A
:1006000002F0D7F9C5B2234805F00EF8044664B1EC
:10061000A18820684554A088401C80B2A0801E2874
:1006200004DB1C4805F01AF800E070BD40F22441DC
:10063000174802F080FA012806D1164805F00EF896
:10064000134802F0B6F9C5B200BFEEE72000002063
:1006500000140240750000207600002000000140D8
:10066000180000201C00002020030020004800404B
:10067000140000206E756D5F613A25640000000073
:100680000014014014030020AC130020740000206B
:10069000005000403C03002032490143324A1160BF
:1006A000704770B5002100230F22C4781CB32E4C74
:1006B000246804F4E064C4F5E064C4F30721C1F1E4
:1006C0000404E3B20A4144789C40E1B284781440C7
:1006D00021430C07210E254C05786155047804F060
:1006E0001F050124AC4005786D11AD0005F1E02532
:1006F000C5F8004109E0047804F01F050124AC406E
:100700001B4D0678761145F8264070BD194A0A40FF
:100710000243154B1B1F1A60704739B1124A121D54
:1007200012680243104B1B1D1A6006E00E4A121D90
:10073000126882430C4B1B1D1A607047042808D1B5
:100740004FF0E021096941F004014FF0E02211610E
:1007500007E04FF0E021096921F004014FF0E022A9
:10076000116170470000FA050CED00E000E400E0C4
:1007700080E100E080FFFF1F002044490860091D60
:100780000860091D0860091D086041483F4914318F
:100790000860704700213D498279002A3AD00A4614
:1007A000126803689A430B461A600A1D12680368B0
:1007B0009A430B1D1A60027911440A6803681A43B0
:1007C0000A60324A0832126803689A432F4B083392
:1007D0001A601A1D126803689A432C4B0C331A6076
:1007E0004279102A0ED11A1F126803681A43274B48
:1007F00008331A601A1D126803681A43234B0C331E
:100800001A600DE02149427911440A6803681A43CD
:100810000A6005E0027911440A6803689A430A6095
:1008200070470021016001710C214171002181712B
:1008300070471649103109680143144A103211609B
:10084000704701460020114A143212680A400AB16A
:10085000012000E0002070470C4914310860704707
:10086000014600200022094B1B6803EA0102074BE6
:1008700014331B680B4013B10AB1012000E00020C3
:10088000704702491431086070470000003C014085
:10089000FFFF7F0030B943F2DB028100A1F1C041CC
:1008A0000A6005E043F2D2028100A1F1C0410A6072
:1008B0006FF07042411C8900A1F1C0410A608100C3
:1008C000A1F1C041C1F804217047D0E901121143E0
:1008D000C26811430269114342691143826911439D
:1008E000C2691143026A1143426A1143826A114389
:1008F000C26A1143026B114302689200A2F1C04226
:100900001160816808290BD101688900A1F1C041FB
:10091000096841F0400201688900A1F1C0410A6004
:10092000416B0968426B526841EA0211426B92685E
:1009300041EA0221426B928941EA0241426B128AEA
:1009400041EA0251426B127D41EA0261426B9269B7
:1009500011430268521C9200A2F1C0421160C16AA8
:10096000B1F5804F1BD1816B0968826B526841EAF7
:100970000211826B926841EA0221826B128A41EA7B
:100980000251826B127D41EA0261826B92691143CE
:1009900002689200A2F1C042C2F8041107E06FF0B1
:1009A000704201688900A1F1C041C1F8042170477B
:1009B000002101600221416000218160C16001616C
:1009C00041618161C16101624FF48051416249001E
:1009D00081620021C16201630F21426B1160426B91
:1009E0005160FF21426B91600F21426BD160426BDD
:1009F0001161426B51610021426B91610F21826B49
:100A00001160826B5160FF21826B91600F21826BBC
:100A1000D160826B1161826B51610021826B9161A7
:100A2000704751B18200A2F1C042126842F0010346
:100A30008200A2F1C042136009E08200A2F1C0422C
:100A40001268F94B1A408300A3F1C0431A60704743
:100A500010280AD118214FF020421166402151661A
:100A60004FF0FC319166D16610E01821EF4A116019
:100A700040214FF02042C2F884104FF0FC31EB4A85
:100A8000083211604FF02042C2F88C10704730B528
:100A9000002100220023446844F0080485682C43A8
:100AA000C5682C4305692C43456944EA452485699A
:100AB00044EA4531C4692468C5696D6844EA05247F
:100AC000C5692D8944EA0544C5692D7B44EA056260
:100AD000046A2468056A6D6844EA0524056A2D895C
:100AE00044EA0544056A2D7B44EA05630468102C3A
:100AF00005D14FF020442166A266E36608E0CB4CA6
:100B000021604FF02044C4F88820C84C0C34236086
:100B100030BD10210160002141608160C160016130
:100B200041618161FC21C2691160C2695160C26981
:100B30009160C269D160026A1160026A5160026A02
:100B40009160026AD160704799B1102808D14FF0C6
:100B50002042126E42F004024FF020431A661DE05C
:100B6000B24A126842F004024FF02043C3F88020DA
:100B700014E0102809D14FF02042126EAA4BDB1E60
:100B80001A404FF020431A6608E0A84A1268A64BA4
:100B9000DB1E1A404FF02043C3F88020704799B104
:100BA000102808D14FF02042126E42F040024FF060
:100BB00020431A661DE09D4A126842F040024FF041
:100BC0002043C3F8802014E0102809D14FF02042C0
:100BD000126E954B3F3B1A404FF020431A6608E0D7
:100BE000924A1268904B3F3B1A404FF02043C3F8A3
:100BF0008020704701460020102903D14FF0204289
:100C0000506F02E0894A14321068704718208749F3
:100C10002031086000200906C1F8A4004FF0FC3024
:100C2000824928310860091D0860091D0860704765
:100C3000016841F01001426841EA4221826841EABC
:100C400042317A4A20321160C1680968C26852682C
:100C500041EA0221C268128941EA0241C268127B5C
:100C600041EA0261714A283211600169096802692A
:100C7000526841EA02210269128941EA024102698D
:100C8000127B41EA0261694A2C32116041690968AC
:100C90004269526841EA02214269128941EA0241ED
:100CA0004269127B41EA02614FF02042C2F8B01063
:100CB00070470021016041608160FC21C2681160C1
:100CC000C2685160C2689160C268D16002691160F7
:100CD00002695160026991600269D16042691160E4
:100CE00042695160426991604269D160704748B180
:100CF0004E492031096841F004014FF02042C2F80A
:100D0000A01009E0494920310968474AD21E114024
:100D10004FF02042C2F8A010704710B5F2B1102871
:100D200007D14FF020435B6E0B434FF020446366C6
:100D300032E0B0F5807F08D13C4B1B1D1B680B4394
:100D40004FF02044C4F8843026E0384B24331B682D
:100D50000B434FF02044C4F8A4301DE0102807D105
:100D60004FF020435B6E8B434FF02044636613E0EB
:100D7000B0F5807F08D12D4B1B1D1B688B434FF0B6
:100D80002044C4F8843007E0284B24331B688B438D
:100D90004FF02044C4F8A43010BD10B50246002026
:100DA0000023102A03D14FF02044636E09E0B2F50E
:100DB000807F03D11D4C241D236802E01B4C24348A
:100DC000236803EA01040CB1012000E0002010BDFB
:100DD000102807D14FF02042526E8A434FF0204333
:100DE0005A6613E0B0F5807F08D1104A121D1268D0
:100DF0008A434FF02043C3F8842007E00B4A243293
:100E000012688A434FF02043C3F8A420704770B59E
:100E100002460020002300240025102A08D14FF0AC
:100E20002046736E0DE00000FEFF0F00800000A062
:100E3000B2F5807F02D1184E336802E0164E20369C
:100E4000336803EA010403EAD10514B10DB10120AE
:100E500000E0002070BD102808D14FF02042526EF3
:100E600022EAD1024FF020435A6614E0B0F5807FA9
:100E700008D1094A126822EAD1024FF02043C3F890
:100E8000842008E0044A2032126822EAD1024FF09E
:100E90002043C3F8A4207047840000A010B5044686
:100EA0008C48844208D10121084600F000FB002153
:100EB000012000F0FCFA5EE08748844208D101215D
:100EC000022000F0F4FA0021022000F0F0FA52E0D3
:100ED0008248844208D10121042000F0E8FA002170
:100EE000042000F0E4FA46E07D48844208D1012164
:100EF000082000F0DCFA0021082000F0D8FA3AE0DF
:100F00007848844208D10121102000F0D0FA002155
:100F1000102000F0CCFA2EE07348844208D1012161
:100F2000202000F0C4FA0021202000F0C0FA22E0C6
:100F30006E48844208D10121402000F0B8FA002117
:100F4000402000F0B4FA16E06948844208D101213B
:100F5000802000F0ACFA0021802000F0A8FA0AE01E
:100F60006448844207D10121801500F0A0FA0021D5
:100F7000A01500F09CFA10BDF0B50A460021002330
:100F8000002400BF3DE0012505FA01F3156805EADC
:100F900003049C4234D105684F000326BE40B5438C
:100FA000056015794E00B540066835430560157932
:100FB000012D02D01579022D16D185684F00032628
:100FC000BE40B543856055794E00B54086683543CF
:100FD0008560456801268E40B54345604568967931
:100FE0008E40B6B235434560C5684F000326BE400B
:100FF000B543C560D5794E00B540C6683543C56078
:10100000491C1029BFD3F0BD4FF6FF7101600021CC
:10101000017141718171C171704708B54FF480321F
:101020000092009A0A430092009AC261C161009A3C
:10103000C261C2690092C269009208BD02460020E6
:1010400013690B400BB1012000E0002070470146FE
:10105000086980B270470246002053690B400BB10B
:10106000012000E0002070470146486980B27047C7
:1010700001837047418370470AB1018300E04183D7
:1010800070474161704742694A4042617047F0B51C
:10109000002300244D07ED0E02FA05F3CE1000F1F7
:1010A000200555F826504E07F70E0F26BE40B543D3
:1010B000CF1000F1200646F82750CE1000F1200591
:1010C00055F8265045EA0304CE1000F1200545F8F6
:1010D0002640F0BD0000024000040240000802402B
:1010E000000C0240001002400014024000180240B0
:1010F000001C024000200240FA48006840F0010055
:10110000F84908600020F74908310860F548006890
:10111000F5490840F3490860F448091D0860081FB4
:10112000006820F48020091F08600020ED490C3180
:10113000086070470021EB4A921C1170114608703C
:10114000704710B501460022002300204A11012AF1
:1011500002D1E44C236808E0022A03D1E14C703448
:10116000236802E0DF4C7434236801F01F0201247D
:1011700094401C400CB1012000E0002010BD38B5A7
:10118000002000900024002500BF3120FFF7D9FF88
:1011900005460098401C00900098B0F5A06F01D063
:1011A000002DF2D03120FFF7CCFF08B1012400E080
:1011B0000024204638BD01460020CA4A106820F0AD
:1011C000F80040EAC10010607047C94908607047E4
:1011D0000021C44A703211701170012802D0042815
:1011E0000AD104E00121BF4A7032117005E00521E7
:1011F000BC4A7032117000E000BF00BF7047BD49AB
:101200000860704770B5049C41EA82150126C6EB60
:10121000530645EA0645054345EA0465B14E361DC9
:10122000356070BDB24908667047820142EA0172BA
:10123000AC4B84331A607047AD4988667047AC493F
:10124000C864704702460020A64B0833186820F097
:10125000EC6042EA01031843A24B08331860704760
:10126000024600209F4B0833186820F0784042EA7D
:10127000010318439B4B0833186070470146002058
:10128000984A0832106820F0030008431060704745
:1012900094480830006800F00C00704701460020B8
:1012A000904A0832106820F0F00008431060704740
:1012B000014600208B4A0832106820F4E0500843B1
:1012C0001060704701460020864A0832106820F4FA
:1012D000604040EAC10010607047F0B50021002274
:1012E00000240225002602237E4F08373F6807F0BE
:1012F0000C0121B1042905D0082937D105E07E4F22
:10130000076036E07D4F076033E0764F3F1D3F6852
:10131000C7F38056734F3F1D3F6807F03F036EB120
:10132000764FB7FBF3F7DFF8BCC10CF1040CDCF827
:1013300000C0CCF3881C07FB0CF40CE06E4FB7FB2D
:10134000F3F7DFF8A0C10CF1040CDCF800C0CCF31B
:10135000881C07FB0CF4634F3F1D3F68C7F3014730
:101360007F1C7D00B4FBF5F7076002E0624F076069
:1013700000BF00BF5B4F08373F6807F0F001090965
:101380005F4F7A5C0768D7404760564F08373F6821
:1013900007F4E051890A5A4F7A5C4768D740876062
:1013A000504F08373F6807F46041490B544F7A5C4F
:1013B0004768D740C760F0BD002100F44072B2F525
:1013C000407F0AD1474A0832116821F4F8114D4A8A
:1013D00002401143434A08321160424A7032126897
:1013E000C0F30B031A433F4B70331A6070474149F7
:1013F0004439086070473F494039086070474249A6
:101400000860704739B1374A303212680243354BB1
:1014100030331A6006E0334A303212688243314B6F
:1014200030331A60704739B12E4A343212680243A1
:101430002C4B34331A6006E02A4A34321268824355
:10144000284B34331A60704739B1264A3832126853
:101450000243244B38331A6006E0224A38321268BD
:101460008243204B38331A60704739B11D4A4032ED
:10147000126802431B4B40331A6006E0194A40329F
:1014800012688243174B40331A60704739B1154ACE
:10149000443212680243134B44331A6006E0114A87
:1014A0004432126882430F4B44331A60704739B19B
:1014B0000C4A1032126802430A4B10331A6006E0DD
:1014C000084A103212688243064B10331A60704784
:1014D000E1B1044A143212680243024B14331A6019
:1014E00019E0000000380240FFFFF6FE1030002433
:1014F00000004742800E47420024F40040787D01FE
:1015000024000020FFFCFF0F5C0147425B4A126889
:1015100082435A4B1A60704739B1584A121D1268FB
:101520000243564B1B1D1A6006E0544A121D1268F6
:101530008243524B1B1D1A60704739B14F4A0C321F
:10154000126802434D4B0C331A6006E04B4A0C32D2
:1015500012688243494B0C331A60704739B1474ACD
:10156000103212680243454B10331A6006E0434ABA
:10157000103212688243414B10331A60704739B100
:101580003E4A3C32126802433C4B3C331A6006E050
:101590003A4A3C3212688243384B3C331A607047F7
:1015A00039B1364A403212680243344B40331A6034
:1015B00006E0324A403212688243304B40331A60B0
:1015C000704739B12D4A4432126802432B4B4433E1
:1015D0001A6006E0294A443212688243274B44339A
:1015E0001A60704739B1254A4C3212680243234BC6
:1015F0004C331A6006E0214A4C32126882431F4B7A
:101600004C331A60704739B11C4A50321268024399
:101610001A4B50331A6006E0184A5032126882435F
:10162000164B50331A60704739B1144AD21F1278E2
:101630000243124BDB1F1A7006E0104AD21F1278C9
:1016400082430E4BDB1F1A7070470C4860300068F5
:1016500040F0807009496031086070470146002001
:10166000064A083A12680A400AB1012000E0002048
:1016700070470249891F0870704700001438024003
:1016800010B50446F748844208D101218014FFF7C1
:1016900065FF0021A014FFF761FF16E0F2488442C5
:1016A00008D101210014FFF748FF00212014FFF7A3
:1016B00044FF0AE0ED48844207D10121C013FFF73F
:1016C0003CFF0021E013FFF738FF10BD10B50022EA
:1016D000028802F441520B884C8823438C882343B0
:1016E000CC8823430C8923434C8923438C8923438F
:1016F000CC8923431A430280838B4FF2FF7423402B
:1017000083830B8A038210BD2DE9F04F002502234D
:101710000024012700220026944690469146B0F806
:101720001CA04FF2400B0AEA0B0AA0F81CA04FF0D5
:10173000020AA0F820A0858BD1F808A0BAF1020F08
:1017400001D100BF6CE0B1F804A0BAF1000F01D1E3
:10175000012700E00227DFF818A3DAF800A00AF456
:10176000000ABAF1000F09D0DFF804A3DAF800A0EC
:101770002AF4000ADFF8F8B2CBF800A0DFF8F0A2F4
:101780000AF17C0ADAF800A0CAF38818DFF8E0A2B0
:101790000AF17C0ADAF800A0CAF30279DFF8D0A2D5
:1017A000AAF1040ADAF800A00AF03F0CDFF8C4A29C
:1017B000BAFBFCFA0AFB08FABAFBF9F6B1F806A084
:1017C000BAF5007F0ED14FEA162A0AEB8A0A4FEAD1
:1017D0004A0AD1F808B0BAFBFBFA0AF1050A1FFA67
:1017E0008AF20FE04FEA471AB6FBFAFA0AEB8A0AC6
:1017F0004FEA4A0AD1F808B0BAFBFBFA0AF1050A27
:101800001FFA8AF24FF00A0AB2FBFAF202F0010460
:10181000A2EB040ACAF34F034FF6FF7A0AEA042444
:10182000022B01DBFF2B01DD02230024B1F806A00F
:101830004AEA040A4AEA030AA0F820A0B1F804A080
:10184000B1F80CB04AEA0B0AB1F802B04AEA0B0A46
:10185000B1F800B04AEA0B0A4AF4006A4AEA050500
:101860008583BDE8F08F0021018041808180C180A7
:10187000018141818181C18107210182704700215D
:10188000018041808180C1800221816000218181AD
:10189000704721B1028842F04002028004E00288D1
:1018A0004FF6BF731A400280704721B1828B42F419
:1018B0008062828304E0828B4FF6FF331A4082837A
:1018C000704702884FF2FF731A40028002880A4371
:1018D00002807047B1F5804F04D1028842F4804203
:1018E000028004E002884BF6FF731A4002807047C2
:1018F0004FF6FF62914204D0028842F48072028067
:1019000004E002884FF6FF631A400280704721B15D
:10191000828842F00402828004E082884FF6FB73E2
:101920001A408280704721B1828842F01002828082
:1019300004E082884FF6EF731A408280704730B51A
:1019400000220023848B4FF240052C408483022424
:101950000484828B0C88B4F5007F01D00C8814B904
:101960004FF4807308E00C88B4F5407F03D00C88F6
:10197000B4F5807F00D100238C888D892C434D885D
:101980002C431C4344F400642243828330BD01464F
:10199000888970478181704721B1028842F40052E2
:1019A000028004E002884DF6FF731A4002807047FF
:1019B000018841F4805101807047024600200129CE
:1019C00001D0108B00E0908A70470146088A70476A
:1019D0001AB183880B43838002E083888B43838022
:1019E000704730B5002400230C110125A540ABB28F
:1019F0001AB185881D43858002E085889D438580D6
:101A000030BD0246002013890B400BB1012000E0DD
:101A100000207047CA4302817047F0B5024600209B
:101A200000240023002501F00F070126BE40B4B2B8
:101A30000B1101269E40B3B2968806EA030516896B
:101A4000264016B10DB1012000E00020F0BD10B518
:101A5000002201F00F040123A3409AB2D343038173
:101A600010BD00000030014000380040003C004044
:101A70000838024040787D0110B501218803FFF746
:101A80006DFD00214FF48040FFF768FD10BD1A493D
:101A90000860704730B500228B071C0F0F2303FA34
:101AA00004F2154B08338C1053F824309343124C36
:101AB00008348D1044F8253023468C1053F8243018
:101AC0008C07240F00FA04F423430B4C08348D10C8
:101AD00044F8253030BD094908607047084908605E
:101AE0007047002004492031096801F4807109B170
:101AF000012000E00020704700380140DC00274250
:101B00000004274210B50446FE48844208D1012152
:101B10000846FFF723FD00210120FFF71FFD9DE090
:101B2000B4F1804F08D101210846FFF706FD0021DE
:101B30000120FFF702FD91E0F348844208D1012122
:101B40000220FFF7FAFC00210220FFF7F6FC85E0F7
:101B5000EE48844208D101210420FFF7EEFC002169
:101B60000420FFF7EAFC79E0E948844208D101212A
:101B70000820FFF7E2FC00210820FFF7DEFC6DE003
:101B8000E448844208D101211020FFF7D6FC00214F
:101B90001020FFF7D2FC61E0DF48844208D1012128
:101BA0002020FFF7CAFC00212020FFF7C6FC55E0EB
:101BB000DA48844208D101210220FFF7CFFC00213E
:101BC0000220FFF7CBFC49E0D548844209D101212E
:101BD0000804FFF7C3FC00214FF48030FFF7BEFC80
:101BE0003CE0D048844209D101214804FFF7B6FC0B
:101BF00000214FF40030FFF7B1FC2FE0CA488442C7
:101C000009D101218804FFF7A9FC00214FF48020AD
:101C1000FFF7A4FC22E0C548844208D101214020FE
:101C2000FFF78BFC00214020FFF787FC16E0C0483F
:101C3000844208D101218020FFF77FFC0021802011
:101C4000FFF77BFC0AE0BB48844207D101218015E5
:101C5000FFF773FC0021A015FFF76FFC10BD0022F9
:101C60000288A84B98420ED0AC4B98420BD0B0F1F2
:101C7000804F08D0A44B984205D0A44B984202D084
:101C8000A34B984204D14FF68F731A404B881A43E6
:101C9000A04B984207D0A04B984204D04FF6FF4388
:101CA0001A400B891A4302804B68C3620B88038574
:101CB000944B984202D0994B984201D18B7A03867B
:101CC0000123838270474FF0FF3141600021018082
:101CD00001814180817270470185828270470A4686
:101CE000002101884FF68F7319401143018070471E
:101CF00041627047C16270470146486A70470146B9
:101D0000088D704721B1028842F00202028004E08F
:101D100002884FF6FD731A400280704721B1028895
:101D200042F00402028004E002884FF6FB731A407E
:101D30000280704721B1028842F08002028004E0F4
:101D400002884FF67F731A400280704702884FF670
:101D5000F7731A40028002880A43028070470288A3
:101D60004FF6FF431A40028002880A430280704700
:101D700021B1028842F00102028004E002884FF69D
:101D8000FE731A400280704770B5002400220023C1
:101D9000058C4FF6FE7635400584028C8388048BD3
:101DA0004FF68F752C40B51E2C400D882C43751EA8
:101DB0002A408D892A434D882A43524DA84202D099
:101DC000564DA84213D14FF6F7752A40CD892A43C4
:101DD0004FF6FB752A408D882A434FF6FF652B404E
:101DE0004FF6FF552B400D8A2B434D8A2B438380A2
:101DF00004838D684563028470BD70B500240022A1
:101E00000023058C4FF6EF7635400584028C8388DD
:101E1000048B48F6FF752C404FF6FF452C400D888B
:101E20004FF6FF7606EA05252C434FF6DF752A406C
:101E30008D8906EA05152A434D8806EA05152A43C9
:101E4000304DA84202D0354DA8421DD14FF67F75C6
:101E50002A40CD894FF6FF7606EA05152A434FF64C
:101E6000BF752A408D8806EA05152A434FF6FF35CF
:101E70002B404FF2FF752B400D8A06EA85052B4358
:101E80004D8A06EA85052B43838004838D6885632C
:101E9000028470BD70B5002400220023058C4FF62B
:101EA000FF6635400584028C8388848B4FF68F75DE
:101EB0002C404FF6FC752C400D882C434FF6FF55F7
:101EC0002A408D894FF6FF7606EA05252A434D887C
:101ED00006EA05252A430B4DA84202D00F4DA84221
:101EE00038D14FF2FF752A40CD894FF6FF7606EACA
:101EF00005252A434FF6FF352A408D8806EA052539
:101F00002A4319E00000014000040040000800409E
:101F1000000C00400010004000140040000401408C
:101F200000400140004401400048014000180040CA
:101F3000001C0040002000404EF6FF752B404DF67F
:101F4000FF752B400D8A06EA05152B434D8A06EADC
:101F500005152B43838084838D68C563028470BD1F
:101F600070B5002200230024058C4EF6FF76354024
:101F70000584038C8488828B48F6FF752A404FF6CF
:101F8000FF452A400D884FF6FF7606EA05252A43CD
:101F90004DF6FF752B408D8906EA05352B434D889C
:101FA00006EA05352B43FE4DA84202D0FD4DA8425E
:101FB00008D14BF6FF752C400D8A4FF6FF7606EAE6
:101FC00085152C43848082838D680564038470BDED
:101FD000002101804180818081608181C1810182F5
:101FE0004182704770B5034600200024184618301F
:101FF00001258D40ACB21D8CA5431D8409B1082973
:102000000AD100EB610005684FF68F763540056018
:102010000568154305600FE00D1FC5F34E05284404
:10202000056848F6FF763540056005684FF6FF768F
:1020300006EA02263543056070BD4163704781633F
:102040007047C1637047016470470A460021018BE5
:102050004FF68F7319401143018370470A460021E0
:10206000018B48F6FF7319404FF6FF7303EA022312
:102070001943018370470A460021818B4FF68F7305
:1020800019401143818370470A460021818B48F62D
:10209000FF7319404FF6FF7303EA0223194381834C
:1020A00070470A460021018B4FF6F7731940114320
:1020B000018370470A460021018B4FF2FF731940DC
:1020C0004FF6FF7303EA02231943018370470A4660
:1020D0000021818B4FF6F7731940114381837047BC
:1020E0000A460021818B4FF2FF7319404FF6FF73B0
:1020F00003EA02231943818370470A460021018BBA
:102100004FF6FB7319401143018370470A460021C3
:10211000018B4FF6FF3319404FF6FF7303EA02239A
:102120001943018370470A460021818B4FF6FB73E8
:1021300019401143818370470A460021818B4FF675
:10214000FF3319404FF6FF7303EA022319438183DB
:1021500070470A460021018B4FF67F7319401143E7
:10216000018370470A460021018BC1F30E014FF62F
:10217000FF7303EA02231943018370470A460021D3
:10218000818B4FF67F7319401143818370470A4654
:102190000021818BC1F30E014FF6FF7303EA022386
:1021A0001943818370470A460021018C4FF6FD7365
:1021B00019401143018470470A460021018C4FF6F3
:1021C000F77319401143018470470A460021018CBE
:1021D0004FF6DF7319404FF6FF7303EA02131943FA
:1021E000018470470A460021018C4FF67F73194025
:1021F0004FF6FF7303EA02131943018470470A463E
:102200000021018C4FF6FF5319404FF6FF7303EA8C
:1022100002231943018470470A460021018C4FF2C2
:10222000FF7319404FF6FF7303EA02231943018439
:1022300070470A460021018C4DF6FF7319404FF696
:10224000FF7303EA023319430184704730B500235A
:1022500001248C40A3B2048C9C430484048C02FAB5
:1022600001F5ADB22C43048430BD30B50023042405
:102270008C40A3B2048C9C430484048C02FA01F5C4
:10228000ADB22C43048430BD828B4FF2FF331A4031
:102290008283828B4FF6FF7303EA01231A43828302
:1022A0007047F0B50C461546002100220026078C29
:1022B0004EF6FF7C07EA0C070784818B028C4FF6F1
:1022C000FF7707EA043640F6FF4739404FF6FF77BD
:1022D00007EA052739434FF6FF7707EA0337394303
:1022E00045F6FF773A4046F480573A4381830284AB
:1022F000F0BD828B4FF6F3731A408283828B0A43C0
:1023000082837047F0B50C46154600210022002656
:10231000078C4FF6FF6C07EA0C070784818B028C51
:102320004FF6FF7707EA04264FF60C7739404FF651
:10233000FF7707EA03172F4339434FF2FF573A401D
:1023400046F480773A4381830284F0BD028B4FF2DA
:10235000FF331A400283028B4FF6FF7303EA012317
:102360001A4302837047F0B50C461546002100223F
:102370000026078C4FF6EF7C07EA0C070784018BD9
:10238000028C4FF6FF7707EA041640F6FF47394004
:102390004FF6FF7707EA033739434FF6FF7703E03D
:1023A000000001400004014007EA052739434FF6C9
:1023B0005F773A4046F010073A4301830284F0BD4C
:1023C000028B4FF6F3731A400283028B0A43028397
:1023D0007047F0B50C46154600210022068C4FF6DA
:1023E000FE773E400684018B028C4FF60C7631401E
:1023F0007E1C06EA03162E4331434FF6F576324033
:1024000044F00106324301830284F0BD70B50546F5
:102410000C46208850B92389A28861882846FFF796
:10242000D8FFE1882846FFF7CBFF25E02088042865
:102430000AD12389A28861882846FFF794FFE188A2
:102440002846FFF783FF17E0208808280AD1238950
:10245000A28861882846FFF755FFE1882846FFF7E4
:1024600048FF09E02389A28861882846FFF719FF01
:10247000E1882846FFF708FF70BD002101804180F8
:10248000012181800021C180018170472DE9F04147
:1024900005460C4600260127608808B9022600E0A0
:1024A0000026A088012801D1022700E0012720880A
:1024B000A0B92389A28861882846FFF78AFFE188AE
:1024C0002846FFF77DFF23893A4631462846FFF725
:1024D0004AFFE1882846FFF739FF13E02389A288E5
:1024E00061882846FFF73FFFE1882846FFF72EFF67
:1024F00023893A4631462846FFF76BFFE188284694
:10250000FFF75EFFBDE8F0810146486B704701466A
:10251000886B70470146C86B70470146086C70476E
:102520000A884B881A438B881A43CB881A430B8935
:102530001A434B891A438B891A43A0F844207047E9
:102540000021018041808180C180018141818181A0
:10255000704731B1B0F8442042F40042A0F8442062
:1025600005E0B0F84420C2F30E02A0F84420704702
:1025700021B1828842F00402828004E082884FF612
:10258000FB731A408280704721B1828842F00102B9
:10259000828004E082884FF6FE731A408280704782
:1025A0001AB183890B43838102E083898B43838142
:1025B00070478182704702460020138A0B400BB19E
:1025C000012000E000207047CA430282704730B506
:1025D0000246002000230024158A05EA010395899C
:1025E00005EA010413B10CB1012000E0002030BD68
:1025F000CA430282704741EA0203A0F8483070479C
:102600001AB183890B43838102E083898B438381E1
:10261000704721B1828842F00802828004E08288FB
:102620004FF6F7731A408280704701894FF6F872AF
:102630001140018170470A46002101894FF68F73CE
:10264000194011430181704730B504460D462946B3
:102650002046FFF7F0FF208940F00700208130BDC1
:102660002DE9F04104460D4616461F46602D06D161
:102670003B46012231462046FFF775FE05E03B460A
:10268000012231462046FFF7A4FE29462046FFF7E7
:10269000D2FF208940F007002081BDE8F08130B5ED
:1026A0000C4600210189C9B24FF6FF7505EA0325E2
:1026B000154325432943018130BD2DE9F0410546ED
:1026C0000E4617469846002443463A463146284669
:1026D000FFF7E5FF2C894FF6F870044044F007043B
:1026E0004FF68F70044044F070042C81BDE8F081F7
:1026F000F0B504460D4616461F463B46324629466F
:102700002046FFF7CCFF208940F480402081F0BDB7
:1027100082884FF68F731A40828082880A438280B3
:10272000704702894FF6F8731A40028102890A4302
:102730000281704702894FF67F731A400281028935
:102740000A4302817047F0B50C4615461E4600212B
:10275000002200230189028B038C4FF6F877394061
:1027600021434FF6FC473A4040F201173A434FF6F7
:10277000DD773B404FF6FF7707EA06172F433B43D1
:10278000018102830384F0BD21B1828842F080027E
:10279000828004E082884FF67F731A4082807047FF
:1027A000A0F850107047000010B50446F748844266
:1027B00008D101211020FEF7D1FE00211020FEF7E4
:1027C000CDFE3EE0F248844209D101214804FEF7E3
:1027D000B4FE00214FF40030FEF7AFFE31E0ED48CB
:1027E000844209D101218804FEF7A7FE00214FF49D
:1027F0008020FEF7A2FE24E0E748844209D10121AF
:10280000C804FEF79AFE00214FF40020FEF795FE63
:1028100017E0E248844209D101210805FEF78DFE48
:1028200000214FF48010FEF788FE0AE0DC48844265
:1028300007D101212020FEF791FE00212020FEF784
:102840008DFE10BD2DE9FF4705460E460024A1462A
:1028500000BFA046B08900B100BF2C8A24F44054C8
:10286000F08804432C82AC8941F20C608443B08828
:1028700031890843718908430443AC81AC8A24F44C
:102880004074B0890443AC826846FEF726FDBF4819
:10289000854202D0C248854202D1DDF80C9001E0A9
:1028A000DDF80890A88900F4004040B109EBC900A8
:1028B00000EB091031684900B0FBF1F707E009EBC4
:1028C000C90000EB091031688900B0FBF1F7642002
:1028D000B7FBF0F004012009642101FB1078A889FE
:1028E00000F4004040B1322000EBC800B0FBF1F032
:1028F00000F00700044308E0322000EB08106421D8
:10290000B0FBF1F000F00F0004432C81BDE8FF871D
:102910004FF41651016000218180C18001810C219A
:10292000418100218181704710B502460020108A44
:1029300020F470600B884C8823438C882343CC8818
:1029400023431843108210BD002101804180818003
:10295000C180704721B1828942F40052828104E033
:1029600082894DF6FF731A4082817047028B02F410
:102970007F420283028B0A430283704721B182891E
:1029800042F40042828103E08289C2F30E02828116
:10299000704721B1828A42F40062828204E0828A16
:1029A0004FF2FF731A4082827047C1F3080282809F
:1029B000704701468888C0F308007047028A4FF6C6
:1029C000F0731A400282028A0A430282704721B1E0
:1029D000828942F00202828104E082894FF6FD730F
:1029E0001A408281704782894FF2FF731A408281B8
:1029F00082890A4382817047028A4FF6DF731A4048
:102A00000282028A0A430282704721B1028A42F49A
:102A10008042028204E0028A4BF6FF731A4002826F
:102A20007047818941F001018181704721B1828A1B
:102A300042F00802828204E0828A4FF6F7731A405D
:102A400082827047028BD2B20283028B42EA012259
:102A50000283704721B1828A42F02002828204E020
:102A6000828A4FF6DF731A408282704721B1828AD0
:102A700042F01002828204E0828A4FF6EF731A401D
:102A800082827047828A4FF6FB731A408282828A62
:102A90000A438282704721B1828A42F00202828216
:102AA00004E0828A4FF6FD731A40828270471AB1A1
:102AB000838A0B43838202E0838A8B43838270473D
:102AC000F0B50346002400260025002040F66A17D2
:102AD000B94200D100BF1846C1F3421401F01F06ED
:102AE000012707FA06F5012C01D10C3004E0022C75
:102AF00001D1103000E014301AB107682F4307608D
:102B000002E00768AF430760F0BD02460020B1F560
:102B1000007F00D100BF13880B400BB1012000E003
:102B20000020704701F40072B2F5007F00D100BFB1
:102B3000CA430280704770B5024600240023002576
:102B4000002040F66A16B14200D100BFC1F3421521
:102B500001F01F03012606FA03F3012D02D1968925
:102B6000334006E0022D02D1168A334001E0968AF6
:102B700033400C12012606FA04F41688344013B1CF
:102B80000CB1012000E0002070BD000000100140E9
:102B90000044004000480040004C0040005000400D
:102BA0000014014010B50022002340F66A14A1422F
:102BB00000D100BF0A1201249440A3B2DC43048078
:102BC00010BD000030B5254800684FF47A72B0FBA4
:102BD000F2F1481EB0F1807F01D301201BE0481EB6
:102BE0004FF0E022506150170F22002807DA130738
:102BF0001D0E1B4B00F00F04241F1D5503E013078F
:102C00001C0E184B1C5400BF00204FF0E0229061B6
:102C100007201061002008B100BFFEE730BD124957
:102C2000086000BF104909680029FBD170470021E6
:102C300006E0082100BF0A1EA1F1010399B2FAD1F2
:102C4000021EA0F10100F4D170470748006820B1CE
:102C500005480068401E04490860704700000020D5
:102C600018ED00E000E400E0340000201CB5012174
:102C70002020FEF7C7FBFF20009001208DF8040004
:102C800000208DF8060003208DF8050000208DF847
:102C9000070069461148FEF76FF901210F48FEF75A
:102CA000E7F902210D48FEF7E3F904210B48FEF78E
:102CB000DFF908210948FEF7DBF910210748FEF784
:102CC000D7F920210548FEF7D3F940210348FEF744
:102CD000CFF980210148FEF7CBF91CBD001402405A
:102CE00000B587B00020794948724860087278487A
:102CF000086001210420FEF785FB01218804FEF70E
:102D0000B4FB02208DF8180000208DF81A00012075
:102D10008DF81B0000208DF819004FF4006005901D
:102D200005A96C48FEF728F94FF48060059005A9C5
:102D30006848FEF721F907220A216648FEF7A7F93D
:102D400007220B216348FEF7A2F94FF4E13001900E
:102D50000020ADF80800ADF80A00ADF80C00ADF8A1
:102D600010000C20ADF80E0001A95B48FFF76AFDCA
:102D700001215948FFF7EEFD012240F22551564846
:102D8000FFF79EFE4FF4A060FDF786FC27208DF82C
:102D9000000000208DF801008DF8020001208DF860
:102DA00003006846FDF77DFC01214B48FFF7D2FD8B
:102DB00007B000BD70B504460D460BE014F8011BCA
:102DC0004548FFF7F2FD00BF40214348FFF79DFE55
:102DD0000028F9D0281EA5F10105EFD170BD10B56E
:102DE00088B0044600203D494872486008723C485B
:102DF000086001210420FEF705FB01212020FEF7D9
:102E000045FB02208DF81C0000208DF81E000120DB
:102E10008DF81F0000208DF81D00C020069006A927
:102E20002C48FEF7A9F8082206212A48FEF72FF9B8
:102E3000082207212748FEF72AF902940020ADF85E
:102E40000C00ADF80E00ADF81000ADF814000C2029
:102E5000ADF8120002A92348FFF7F4FC0121214834
:102E6000FFF778FD012240F225511E48FFF728FEAA
:102E70004FF4A060FDF710FC47208DF804000020FF
:102E80008DF805008DF8060001208DF8070001A8D7
:102E9000FDF707FC01211348FFF75CFD08B010BDEA
:102EA00070B504460D460BE014F8011B0D48FFF702
:102EB0007CFD00BF40210B48FFF727FE0028F9D01A
:102EC000281EA5F10105EFD170BD000020030020F0
:102ED000BC0000200008024000480040140300200D
:102EE000E8010020001401401CB501212020FEF75C
:102EF00089FA4FF4E060009000208DF80400032070
:102F00008DF8050001208DF8070069464D48FEF751
:102F100033F81CBD38B50020009000244FF48071B8
:102F20004848FEF78BF88DF800004FF400714548D3
:102F3000FEF784F88DF801004FF480614148FEF7F8
:102F40007DF88DF802004048007800284AD09DF8AE
:102F5000000028B19DF8010010B19DF80200E8BB07
:102F60000020394908706420FFF759FE4FF4807142
:102F70003448FEF763F88DF800004FF400713148D3
:102F8000FEF75CF88DF801004FF480612D48FEF7E4
:102F900055F88DF802009DF8000040B99DF8010039
:102FA000012804D19DF80200012800D101249DF8D8
:102FB0000000012807D19DF8010020B99DF802000A
:102FC000012800D102249DF80000012818D19DF8A5
:102FD0000100012814D19DF8020000E002E078B958
:102FE00003240DE09DF80000012809D19DF801009F
:102FF000012805D19DF80200012801D1124908706D
:10300000204638BD38B5012400254FF6FF7002F088
:103010001DFE4FF6FF7000230CA24FF48C71009040
:10302000642004F088F909E0FFF774FF0A4908708A
:103030000846007810B1084605780024002CF3D12A
:10304000E8B238BD0014024039000020C7EBCAE4E2
:10305000C8EBB0B4BCFC00003800002008B54FF647
:10306000FF7002F0F3FD4FF6FF700023FEA24FF455
:103070008C710090C82004F05EF94FF6FF700023B9
:10308000FDA24FF4BE710090B42004F054F94FF645
:10309000FF700023FAA24FF4BE7100904FF48C70C1
:1030A00004F049F908BD08B54FF6FF7002F0CEFDF7
:1030B0004FF6FF700023F4A24FF48C710090DC20D7
:1030C00004F039F94FF6FF700023F2A24FF4BE71FD
:1030D0000090B42004F02FF94FF6FF700023EFA208
:1030E0004FF4BE710090E62004F025F94FF6FF7012
:1030F0000023ECA24FF4BE7100904FF48C7004F0EA
:103100001AF908BD08B54FF6FF7002F09FFD4FF6A3
:10311000FF700023E5A24FF48C710090DC2004F0D6
:103120000AF94FF6FF700023E3A24FF4BE7100903E
:10313000642004F000F94FF6FF700023E2A24FF480
:10314000BE710090E62004F0F6F84FF6FF70002301
:10315000E0A24FF4BE7100904FF4A57004F0EBF8BC
:1031600008BD08B54FF6FF7002F070FD4FF6FF7016
:103170000023DAA24FF48C710090DC2004F0DBF81D
:103180004FF6FF700023D8A24FF4BE710090642068
:1031900004F0D1F84FF6FF700023D7A24FF4BE71B0
:1031A0000090E62004F0C7F84FF6FF700023BDA2A0
:1031B0004FF4BE7100904FF4AA7004F0BCF808BD43
:1031C00008B54FF6FF7002F041FD4FF6FF70002387
:1031D000CDA24FF48C710090DC2004F0ACF84FF6D7
:1031E000FF700023CBA24FF4BE710090642004F066
:1031F000A2F84FF6FF700023C9A24FF4BE710090F1
:10320000C82004F098F84FF6FF700023A5A24FF4F1
:10321000BE7100904FF4967004F08DF808BD08B5AB
:103220004FF6FF7002F012FD4FF6FF700023BFA2B1
:103230004FF48C710090C82004F07DF84FF6FF70B9
:103240000023BEA24FF4BE710090782004F073F802
:103250004FF6FF700023B9A24FF4BE710090DC203E
:1032600004F069F84FF6FF700023B4A24FF4BE716A
:1032700000904FF4A07004F05EF808BD08B54FF65A
:10328000FF7002F0E3FC4FF6FF700023ACA24FF496
:103290008C710090C82004F04EF84FF6FF700023A8
:1032A000A6A24FF4BE710090782004F044F84FF6C7
:1032B000FF700023A1A24FF4BE710090DC2004F047
:1032C0003AF84FF6FF7000239CA24FF4BE710090B5
:1032D0004FF4A07004F02FF808BD08B54FF6FF704A
:1032E00002F0B4FC4FF6FF7000239BA24FF4BE71B6
:1032F0000090DC2004F01FF808BD38B54FF6FF70D1
:1033000002F0A4FC4FF6FF70002395A24FF48C71DD
:103310000090642004F00FF801F070FE044694B9A8
:103320004FF6FF7002F092FC4FF6FF7000238FA261
:103330004FF48C710090642003F0FDFF4FF4FA60AD
:10334000FFF76DFC02E0204601F074FE38BD38B591
:103350004FF6FF7002F07AFC4FF6FF70002389A24F
:103360004FF48C710090642003F0E5FF00BF4FF62E
:10337000FF7002F06BFC4FF6FF70002385A24FF444
:103380008C710090642003F0D6FF4FF4FA60FFF7D1
:1033900046FC01F05EFD0446F02CE8D2A0B201210B
:1033A00001F0FAFD054695B94FF6FF7002F04EFCAC
:1033B0004FF6FF70002381A24FF48C7100906420BF
:1033C00003F0B9FF40F6B830FFF729FC02E02846C9
:1033D00001F030FE38BD7FB500200646054621E2EB
:1033E000052E3AD2DFE806F0033F3E3D3C00681C64
:1033F00085B24FF6FF7002F029FC4FF6FF700023F4
:1034000075A24FF48C710090642003F094FF01F0DA
:1034100072FC0446002C21D1012001F08CFC0446F2
:10342000002C1CD14FF6FF7002F010FC4FF6FF701D
:10343000002370A24FF48C710090642003F07BFF96
:1034400003ABF0220021012001F035FD04461CB938
:10345000BDF80C206CA1D9E0F9E0CDE1FEE0F9E087
:103460008FE167E130E1FDE0D6B8CEC6C3C5BDFB54
:10347000CFB5CDB300000000312EBDE2CBF8000087
:10348000332EC9E8D6C30000BDE2CBF8B7BDCABD34
:1034900000000000312ED6B8CEC60000322EC3DCAC
:1034A000C2EB0000332EB7B5BBD80000B9DCC0EDCD
:1034B000D4B1C9E8D6C30000312ED0DEB8C4BDE215
:1034C000CBF8C3DCC2EB0000322ED6B8CEC6B9DCD6
:1034D000C0ED0000332ECDCBB3F60000C9BEB3FD66
:1034E000D6B8CEC600000000312EC9BEB3FDB5A5CA
:1034F000B8F6D6B8CEC60000322EC7E5BFD5D6B8CE
:10350000CEC6BFE200000000B9DCC0EDD6B8CEC622
:1035100000000000312ECCEDBCD3D6B8CEC60000E2
:10352000322EC9BEB3FDD6B8CEC60000CAE4C8EB81
:10353000B9DCC0EDD4B1C3DCC2EB00002D0000004B
:10354000CAE4C8EBD0DEB8C4BAF3B9DCC0EDD4B17C
:10355000C3DCC2EB00000000CDCBB3F600000000DE
:10356000C7E5BFD5D6B8CEC6BFE20000C7E5BFD518
:10357000D6B8CEC6BFE2B3C9B9A6A3A1A3A1A3A1E1
:1035800000000000C9BEB3FDD6B8B6A8D3C3BBA720
:10359000494400002A2A2AC3FCC1EEA3BAC7EBCAD9
:1035A000E4C8EBB4E6B4A24944A3ACB7B6CEA7CE08
:1035B000AA307E3233392A2A2A000000C9BEB3FD60
:1035C000D6B8B6A8D3C3BBA7D6B8CEC6B3C9B9A61A
:1035D000A3A1A3A1A3A100002A2A2A2A2A2AC3FC64
:1035E000C1EEA3BAC7EBB0B4CAD6D6B82A2A2A2AE3
:1035F0002A2A0000CAE4C8EBD6B8CEC631D5FDB33E
:10360000A3A3A1A3A1A3A1002564000001A805F024
:1036100041F94FF6FF7002F019FB4FF6FF700023DF
:10362000FEA24FF48C710090642003F084FE4FF6EC
:10363000FF70002301AA4FF48C7100904FF4967034
:1036400003F079FE4FF4FA60FFF7E9FA7FBD002539
:10365000012606E0204601F0EDFC02E0204601F0E4
:10366000E9FCC9E0681C85B24FF6FF7002F0EEFA83
:103670004FF6FF700023EFA24FF48C71009064208E
:1036800003F059FE01F037FB0446CCB9022001F0EB
:1036900052FB044684B94FF6FF7002F0D7FA4FF69A
:1036A000FF700023ECA24FF48C710090642003F0B3
:1036B00042FE0025022606E0204601F0BBFC02E0A7
:1036C000204601F0B7FC97E04FF6FF7002F0BEFA1B
:1036D0004FF6FF700023E5A24FF48C710090642038
:1036E00003F029FE01F07DFB04467CB94FF6FF7024
:1036F00002F0ACFA4FF6FF700023E2A24FF48C7197
:103700000090642003F017FE032612E04FF6FF70CE
:1037100002F09CFA4FF6FF700023E0A24FF48C7188
:103720000090642003F007FE204601F083FC002592
:10373000002661E04FF6FF7002F088FA4FF6FF7046
:103740000023DEA24FF48C710090642003F0F3FD9F
:1037500001F063FB04467CB94FF6FF7002F076FA85
:103760004FF6FF700023DAA24FF48C7100906420B2
:1037700003F0E1FD042603E00026204601F05AFC98
:103780003AE000BF4FF6FF7002F060FA4FF6FF70AC
:103790000023AFF200224FF48C710090642003F0FC
:1037A000CAFD4FF4FA60FFF73AFA01F052FB80B21B
:1037B0000390BDF80C00F028E4DABDF80C100220EC
:1037C00001F04DFB044694B94FF6FF7002F03EFA4B
:1037D0004FF6FF700023C4A24FF48C710090642058
:1037E00003F0A9FD4FF4FA60FFF719FA2EE700265F
:1037F000204601F01FFC00BF00BF4FF47A70FFF7B6
:103800000EFA042D0ED14FF6FF7002F01FFA4FF69C
:10381000FF700023BAA24FF48C710090642003F073
:103820008AFD00E0DCE500BF00BF0FE708B5B8483F
:103830000078B849097888421AD1B5484078B54926
:103840004978884214D1B2488078B2498978884250
:103850000ED14FF6FF700023AFA2B4210090C82014
:1038600003F069FD4FF47A70FFF7D9F9012008BD24
:103870004FF6FF700023AEA2B4210090C82003F0E1
:103880005AFD4FF47A70FFF7CAF90020EFE72DE9EF
:10389000FC410024002500260027A046A848006817
:1038A00040B94FF48061A748FDF7C8FB10B1012073
:1038B000A34908604FF48061A248FDF7BFFB0028D0
:1038C00041D1002F3FD19E48006801283BD13220D2
:1038D000FFF7A5F900BF2EE09B48007803282ADCFB
:1038E00003242246AFF2E02101A804F0D3FF4FF6F3
:1038F000FF7095490090097801EBC10202EB0111BC
:10390000142202EB8100002301AA4FF4BE7103F0E0
:1039100012FD8D480078401E7D490C544FF48061A3
:103920008848FDF78BFB30B187480078401C8649FA
:103930000870012706E04FF480618248FDF77EFBA6
:103940000028C9D000BF4FF400717E48FDF776FB18
:1039500098BB96BB3220FFF762F900262EE07A482A
:10396000007803282ADC02242246AFF2643101A841
:1039700004F090FF4FF6FF7073490090097801EB57
:10398000C10202EB0111142202EB8100002301AA03
:103990004FF4BE7103F0CFFC6B480078401E5C49C9
:1039A0000C5421026748FDF749FB38B1664800789E
:1039B000401C65490870002607E007E04FF40071DD
:1039C0006048FDF73BFB0028C9D000BF4FF4807171
:1039D0005C48FDF733FBF8B9F5B93220FFF71FF962
:1039E0000125C8E058480078032816DC0124224647
:1039F000AFF2EC3101A804F04DFF4FF6FF705249D1
:103A00000090097801EBC10202EB0111142202EBD4
:103A10008100002301AA99E0B6E0ACE0D6B8CEC69A
:103A2000D2D1B4E6D4DAA3ACD6B8CEC64944A3BA50
:103A3000000000002A2A2A2A2A2AC3FCC1EEA3BABF
:103A4000C7EBD4D9B0B4D2BBB4CECAD6D6B82A2A22
:103A50002A2A2A2A00000000CAE4C8EBD6B8CEC63B
:103A600032D5FDB3A3A3A1A3A1A3A100D5FDD4DAB0
:103A7000B6D4B1C8C1BDB4CECAE4C8EBB5C4D6B8DB
:103A8000CEC60000CAE4C8EBD6B8CEC6B6D4B1C81C
:103A9000B3C9B9A6A3A1A3A1A3A10000B6D4B1C87C
:103AA000CAA7B0DCA3ACC7EBD6D8D0C2C2BCC8EBA7
:103AB000D6B8CEC6A3A1A3A1A3A10000D5FDD4DA98
:103AC000C9FAB3C9D6B8CEC6C4A3BFE90000000086
:103AD000C9FAB3C9D6B8CEC6C4A3BFE9B3C9B9A69B
:103AE000A3A1A3A1A3A10000C2BCC8EBD6B8CEC6B7
:103AF000C4A3BFE9B3C9B9A6A3A1A3A1A3A1000010
:103B0000C2BCD6B8CEC6CAA7B0DCA3A100000000D4
:103B10004A0000204D000020D3EBC9CFB4CEC3DC57
:103B2000C2EBCFE0CDACA3A1A3A1A3A100000000F4
:103B3000D0DEB8C4B3C9B9A6A3A1A3A1A3A10000B4
:103B40005400002000140240490000204FF4BE71D0
:103B500003F0F1FBFC480078401EFC490C542102A4
:103B6000FB48FDF76BFA30B1F7480078401CF64986
:103B70000870012507E04FF48071F548FDF75EFA03
:103B800000283FF42FAF00BFBDE8FC812DE9F043D2
:103B90008BB00024A1460B26002009900A90ED4925
:103BA00003C9CDE907010025A0460027EA490868B6
:103BB00080474FF6FF7002F049F84FF6FF70002380
:103BC000E6A29B210090872003F0B5FB002040F285
:103BD000FD2340F29F1240F2A321009040F24510D5
:103BE00003F0D0F9002040F2FD2340F21D1240F214
:103BF000A3210090C32003F0C5F9002040F2771301
:103C00009B2240F21D110090412003F0BBF90020DF
:103C100040F2771340F21D1211460090C32003F0CA
:103C2000B1F9002040F2771340F29F1240F21D11CB
:103C3000009040F2451003F0A5F9002040F2F9137E
:103C40009B2240F29F110090412003F09BF900203D
:103C500040F2F91340F21D1240F29F110090C32070
:103C600003F090F9002040F2F91340F29F12114640
:103C7000009040F2451003F085F9002040F27B23CC
:103C80009B2240F221210090412003F07BF900208B
:103C900040F27B2340F21D1240F221210090C3200C
:103CA00003F070F9002040F27B2340F29F1240F2B3
:103CB0002121009040F2451003F064F9002040F209
:103CC000FD239B2240F2A3210090412003F05AF9EA
:103CD0004FF6FF700023A6A240F2C62100904FF4D9
:103CE000B47003F028FB4FF6FF700023A2A240F24D
:103CF000C6210090EB2003F01EFB4FF6FF7000235F
:103D00009EA24FF4A0710090692003F014FB4FF6BF
:103D1000FF7000239AA24FF4A0710090EB2003F0F3
:103D20000AFB4FF6FF70002396A24FF4A07100909B
:103D300040F26D1003F0FFFA4FF6FF70002392A2DD
:103D40004FF4E1710090692003F0F5FA4FF6FF702F
:103D500000238EA24FF4E1710090EB2003F0EBFA08
:103D60004FF6FF7000238AA24FF4E171009040F2F9
:103D70006D1003F0E0FA4FF6FF70002385A24FF4B8
:103D800011710090692003F0D6FA4FF6FF700023FE
:103D900081A24FF411710090EB2003F0CCFA4FF6A2
:103DA000FF7000237DA24FF41171009040F26D105E
:103DB00003F0C1FA4FF6FF70002379A240F2C6214A
:103DC0000090692003F0B7FAACE363484168002033
:103DD0008847002455E2604890F820000121A14066
:103DE000084020B35C480C3030F814006E49098854
:103DF00088421CDA5848163030F814006A4949885D
:103E0000884214DA02A830F824004FF6FF71884285
:103E10000DD151480C3030F8140002A921F82400CB
:103E20004D48163030F8140001EB840148804A48B0
:103E30000C3030F81400412815DD47480C3030F8BC
:103E400014009B280FDA4448163030F81400B0F5FF
:103E5000297F08DB4048163030F81400B0F53F7F6A
:103E600001DC07B901273C480C3030F81400C328A6
:103E700021DD39480C3030F81400B0F58E7F1ADCA3
:103E80003548163030F81400B0F5297F13DB32487E
:103E9000163030F81400B0F53F7F0CDC07B9EEE1C6
:103EA0006D1C042D00DD04250021681E09AA22F8DE
:103EB00010108846002728480C3030F8140041289C
:103EC00024DD25480C3030F814009B281EDA2248E7
:103ED000163030F81400B0F58F7F17DB1E4816300F
:103EE00030F81400B0F5BB7F10DC07B9C7E16D1CDA
:103EF000042D00DD04250121681E09AA22F81010F6
:103F00004FF0000800273220FEF789FE12480C30DF
:103F100030F81400C32858DD0F480C3030F8140076
:103F2000B0F58E7F51DC0C48163030F81400B0F537
:103F30008F7F4ADB0848163030F81400B0F5BB7F9D
:103F400043DC07B99BE131E0490000204A00002032
:103F500000140240A88B000880000020B0B4BCFC14
:103F6000C7B0CFC8B0B4CFC2C8B7C8CFBCFC000080
:103F7000C9BEB3FD000000003000000031000000A9
:103F80003200000033000000340000003500000063
:103F90003600000037000000380000003900000043
:103FA000C8B7C8CF00000000940300206D1C042D8A
:103FB00000DD04250221681E09AA22F810104FF026
:103FC000000800273220FEF72AFEFD4830F81400D2
:103FD000B0F5A37F24DBFA4830F81400B0F5CF7FAA
:103FE0001EDCF7480A3030F81400B0F58F7F17DB7D
:103FF000F3480A3030F81400B0F5BB7F10DC07B985
:104000003DE16D1C042D00DD04250321681E09AA75
:1040100022F810104FF0000800273220FEF7FFFDB5
:10402000E74830F81400412823DDE54830F8140053
:104030009B281EDAE2480A3030F81400B0F5D07F31
:1040400017DBDF480A3030F81400B0F5FC7F10DCD5
:1040500007B914E16D1C042D00DD04250421681E40
:1040600009AA22F810104FF0000800273220FEF7AE
:10407000D6FDD34830F81400C32824DDD04830F8EA
:104080001400B0F58E7F1EDCCD480A3030F81400E5
:10409000B0F5D07F17DBCA480A3030F81400B0F50D
:1040A000FC7F10DC07B9EAE06D1C042D00DD04255F
:1040B0000521681E09AA22F810104FF000080027F9
:1040C0003220FEF7ACFDBE4830F81400B0F5A37FF7
:1040D00024DBBB4830F81400B0F5CF7F1EDCB848B5
:1040E0000A3030F81400B0F5D07F17DBB4480A303E
:1040F00030F81400B0F5FC7F10DC07B9BFE06D1C90
:10410000042D00DD04250621681E09AA22F81010DE
:104110004FF0000800273220FEF781FDA84830F854
:104120001400412825DDA64830F814009B2820DA29
:10413000A3480A3030F8140040F22121884218DDEB
:104140009F480A3030F8140040F27B21884210DA90
:1041500007B994E06D1C042D00DD04250721681EBD
:1041600009AA22F810104FF0000800273220FEF7AD
:1041700056FD934830F81400C32826DD904830F8E7
:104180001400B0F58E7F20DC8D480A3030F8140022
:1041900040F22121884218DD89480A3030F81400A5
:1041A00040F27B21884210DA07B968E06D1C042DCB
:1041B00000DD04250821681E09AA22F810104FF01E
:1041C000000800273220FEF72AFD7D4830F8140051
:1041D000B0F5A37F26DB7A4830F81400B0F5CF7F26
:1041E00020DC77480A3030F8140040F22121884260
:1041F00018DD73480A3030F8140040F27B21884201
:1042000010DA07B93BE06D1C042D00DD04250921FF
:10421000681E09AA22F810104FF00008002732206B
:10422000FEF7FDFC664830F81400B0F5A37F25DBEF
:10423000634830F81400B0F5CF7F1FDC60480A30C7
:1042400030F81400B0F5297F18DB5D480A3030F8EB
:104250001400B0F53F7F11DC6D1E002D00DA002543
:10426000002009A921F81500804600BF54480C38E9
:1042700040680128FAD03220FEF7D1FC00BF601C54
:10428000C4B2052CFFF6A7AD95BBB8F1000F0BD15A
:104290004FF6FF70EB234FF4E172CD2100906420C4
:1042A00002F0F2FD4FF001080020464908800B267D
:1042B00005E0F2B2DC21B42002F0DEFE761E092E0B
:1042C000F7DA0B2605E0F2B2DC21084602F0D4FE54
:1042D000761E092EF7DA0B2606E0F2B2DC214FF447
:1042E000827002F0C9FE761E092EF6DA0B2607E070
:1042F00009E0F2B2DC214FF4967002F0BDFE761EAA
:10430000092EF6DA07E1012D37D1B8F1000F0AD1F5
:104310004FF6FF70EB234FF4E172CD210090642043
:1043200002F0B2FDA84600202649088000230B2297
:10433000DC21B42003F08BF80B2605E0F2B2DC217F
:10434000084602F099FE761E092EF7DA0B2606E0E3
:10435000F2B2DC214FF4827002F08EFE761E092E3E
:10436000F6DA0B2606E0F2B2DC214FF4967002F08A
:1043700083FE761E092EF6DACDE0022D39D1B8F192
:10438000000F0BD14FF6FF70EB234FF4E172CD21FC
:104390000090642002F078FD4FF0010800200949E8
:1043A000088000230B22DC21B42003F050F8002306
:1043B0000B22DC21084603F04AF80B260BE0000034
:1043C0008C00002060000020F2B2DC214FF48270EB
:1043D00002F052FE761E092EF6DA0B2606E0F2B245
:1043E000DC214FF4967002F047FE761E092EF6DAB5
:1043F00091E0032D30D1B8F1000F0BD14FF6FF70D3
:10440000EB234FF4E172CD210090642002F03CFDDB
:104410004FF001080020FE49088000230B22DC2118
:10442000B42003F014F800230B22DC21084603F02B
:104430000EF800230B22DC214FF4827003F007F802
:104440000B2606E0F2B2DC214FF4967002F014FE67
:10445000761E092EF6DA5EE0042D5CD1B8F1000F6D
:104460000BD14FF6FF70EB234FF4E172CD2100909A
:10447000642002F009FD4FF001080020E4490880A3
:1044800000230B22DC21B42002F0E1FF00230B22E9
:10449000DC21084602F0DBFF00230B22DC214FF475
:1044A000827002F0D4FF00230B22DC214FF49670BF
:1044B00002F0CDFFBDF82400BDF81C1088421FD1CA
:1044C000BDF82600BDF81E10884219D1BDF828009D
:1044D000BDF82010884213D1BDF82A00BDF8221083
:1044E00088420DD14FF6FF700023CAA278210090B8
:1044F000DC2002F020FF4FF4FA70FEF790FB12E090
:1045000000250020ADF82400ADF82600ADF8280005
:10451000ADF82A0080461E20FEF781FB09F101005C
:1045200000F0FF0951E400BF0BB0BDE8F0831FB5F8
:10453000002003904FF6FF7001F088FB4FF6FF70EC
:104540000023B7A24FF48C710090642002F0F3FEB8
:1045500000F0D1FB0446002C3DD1012000F0EBFB24
:104560000446002C33D103ABF0220021012000F0DF
:10457000A2FC04463CBBBDF80C20AFF6747101A848
:1045800004F088F94FF6FF7001F060FB4FF6FF7002
:104590000023ADA24FF48C710090642002F0CBFE9A
:1045A0004FF6FF70002301AA4FF48C7100904FF476
:1045B000967002F0C0FE0120A94908604FF4FA602D
:1045C000FEF72DFB0AE0204600F034FD06E0204611
:1045D00000F030FD02E0204600F02CFD1FBD08B5C4
:1045E000A0480078A049097888421AD19D484078AF
:1045F0009D494978884214D19A4880789A498978A7
:1046000088420ED14FF6FF70002398A2B42100908B
:10461000C82002F090FE4FF47A70FEF700FB0120F4
:1046200008BD4FF6FF70002394A2B4210090C8206B
:1046300002F081FE4FF47A70FEF7F1FA0020EFE706
:1046400038B50024FEF766FC0446904800780D2833
:1046500020D2DFE800F01F0720427290A3C5DBDA0A
:10466000D9D8D7008A48007820B9FEF7F7FC012096
:1046700087490870012C05D1022084490870012067
:1046800084490870032C05D103208049087001205B
:1046900081490870CDE17F480078012804D1FEF7F8
:1046A00002FD00207B490870012C05D104207749C8
:1046B0000870012079490870022C05D10520734942
:1046C0000870012076490870032C05D101206F493C
:1046D000087000206E490870ABE16F48007801282F
:1046E00006D1FEF79CFD00206B4908706D490860FB
:1046F0000A20FEF794FA03F035F9FFF7C8F86A4884
:104700000078042818D16420FEF789FAFFF767FFC4
:104710006649087008460078012808D16249087087
:1047200006205A49087001206149087004E0012000
:104730005D490870584908707BE1584800780128A5
:1047400006D1FFF7F4FEFEF7C8FD002053490870BC
:1047500043480068012805D11E2003F031FA0020EB
:104760003F490860012C05D101204849087000200C
:10477000474908705DE14A480078012804D1FFF7F5
:1047800005FA0020464908701E2003F019FA01209E
:104790003E49087000203E4908704AE144480078CC
:1047A000012804D1002042490870FEF7ABFC012C1F
:1047B00005D107203549087001203E490870022CB8
:1047C00005D108203149087001203B490870032CAD
:1047D00005D101202D49087000202D49087028E1DD
:1047E00034480078012807D1002032490870FEF7CC
:1047F00045FD00202B4908600A20FEF710FA03F05F
:10480000B1F85BE001E1ECE0C9E0B4E091E0000068
:1048100060000020BDE2CBF8B3C9B9A600000000DB
:104820002A2A2A2A2A2AC3FCC1EEA3BAB6D4B1C8BE
:10483000D6B8CEC6A3ACC7EBB0B4CAD6D6B82A2A6F
:104840002A2A2A2A00000000B6D4B1C8D6B8CEC69B
:10485000B3C9B9A6A3ACD6B8CEC64944A3BA000022
:10486000580000204A0000204D000020C3DCC2EBAD
:10487000D5FDC8B7A3A1A3A1A3A10000C3DCC2EBCF
:10488000B4EDCEF3A3A1A3A1A3A100003C0000209E
:104890003D0000203E0000203F000020400000209E
:1048A000410000205400002049000020500000205A
:1048B000420000204300002044000020FEF7E7FFF4
:1048C00064480078042833D16420FEF7A8F9FEF785
:1048D000ADFF6149087008460078012814D15D4990
:1048E00008704FF6FF704FF478435CA24FF4A57147
:1048F0000090C82002F01FFD4FF47A70FEF78FF988
:1049000001205E49087013E0002004E05C49095C66
:104910005C4A1154401C0328F8DB02F0F1FF01202F
:104920004C49087006205849087001205749087002
:104930007FE057480078012804D1FEF741FC0020B1
:1049400053490870012C05D109204F4908700120F6
:1049500050490870022C05D10A204B4908700120EB
:104960004D490870032C05D10620474908700120E5
:10497000464908705DE047480078012806D1FEF7F7
:104980002AFDFEF7AAFC002042490870012C05D13F
:1049900001203D49087000204049087049E03E4828
:1049A0000078012804D1FEF7DCFB00203A490870AA
:1049B000012C05D10B2034490870012038490870BA
:1049C000022C05D10C2030490870012035490870AF
:1049D000032C05D106202C49087001202B490870B2
:1049E00027E02F480078012806D1FEF7B0FCFEF73B
:1049F00074FC00202A490870012C05D101202249AD
:104A0000087000202549087013E026480078012826
:104A100006D1FEF772FCFEF760FC00202149087009
:104A2000012C05D101201849087000201B4908708D
:104A300000BF00BF38BD10B51B4800F09CF918B18D
:104A40001AA003F017FF04E024A003F013FFFEF701
:104A500044FC10BD4900002050000020D3EBC9CF1A
:104A6000B4CEC3DCC2EBCAE4C8EBD2BBD6C2A3ACA3
:104A7000C7EBD6D8D0C2CAE4C8EB00004300002080
:104A80004A0000204D0000203C0000204200002091
:104A90004400002045000020460000203D0000208A
:104AA00047000020480000205C0000203C3C2D41D5
:104AB000533630382D494E464F2D3E3E20CEB4BCA5
:104AC000ECB2E2B5BDD6B8CEC6C4A3BFE9C7EBBC55
:104AD000ECB2E9C1ACBDD30D0A0A00003C3C2D414B
:104AE000533630382D494E464F2D3E3E20CDA8D16D
:104AF000B6B3C9B9A60D0A0A0000000008B54FF404
:104B0000A060FBF7C9FD35208DF8000000208DF86E
:104B1000010001208DF802008DF803006846FBF7C4
:104B2000C0FD17208DF8000001208DF80100022043
:104B30008DF802006846FBF7B4FD08BD00B589B0EA
:104B400001210220FCF75EFC01218803FCF79EFC9A
:104B500001210C20FCF756FC01210805FCF785FC1F
:104B6000FFF7CCFF4FF48070079000208DF82000F5
:104B70008DF8230007A9F648FCF7FEF9082101206B
:104B8000FCF788FF4FF48070059000208DF8180026
:104B900010208DF8190001208DF81A0005A8FBF7E8
:104BA000F9FD00208DF8220001208DF8230002205D
:104BB0008DF821008DF82000C002079007A9E54874
:104BC000FCF7DAF902208DF820000420079007A9ED
:104BD000E148FCF7D1F908220221DF48FCF757FA37
:104BE00008220C21DB48FCF752FA4FF46140019097
:104BF0000020ADF80800ADF80A00ADF80C00ADF8E3
:104C000010000C20ADF80E0001A9D448FDF71AFEE3
:104C1000FFF774FF012240F22551D048FDF750FF05
:104C2000012240F22441CD48FDF74AFF0121CB4843
:104C3000FDF790FE09B000BD10B504462146C748F7
:104C4000FDF7B3FE00BF8021C448FDF75EFF0028DA
:104C5000F9D010BD10B5EF20FFF7EEFF0120FFF7F0
:104C6000EBFFBF490968080EFFF7E6FFBC48006884
:104C7000C0F30740FFF7E0FFB9480088C0F3072002
:104C8000FFF7DAFFB6490878FFF7D6FF10BD10B579
:104C900004462046FFF7D0FF10BD10B50446201291
:104CA000FFF7CAFFE0B2FFF7C7FF10BD10B504461B
:104CB0002046FFF7C1FF10BD10B504462012FFF7D4
:104CC000BBFFE0B2FFF7B8FF10BD70B50446A548C2
:104CD00000F0C7FC054655B100BF286800BF286832
:104CE000407A20809F4800F0D6FC208870BDFF20CD
:104CF00020802088FAE738B50020009040F6B830D0
:104D0000FDF78DFFFFF7A6FF0120FFF7C0FF03208F
:104D1000FFF7C3FF0120FFF7C9FF05242046FFF777
:104D2000CBFF4FF4FA70FDF77AFF6846FFF7CDFF2F
:104D30000546284638BDF8B5044600200090FFF728
:104D400089FF0120FFF7A3FF0420FFF7A6FF022041
:104D5000FFF7ACFF2046FFF76FFFE51D2846FFF782
:104D6000ABFF4FF4FA70FDF75AFF6846FFF7ADFF4F
:104D700006463046F8BD38B50546FFF76BFF012003
:104D8000FFF75AFF0020FFF757FF0020FFF754FFFF
:104D90006420FDF744FF734800F063FC0446002CD8
:104DA0001DD000BF206800BF20680078EF2811D117
:104DB0002068407801280DD120688079072809D122
:104DC00020684079009020680379C278817866A0D5
:104DD00003F050FD634800F05EFC002038BD012068
:104DE000FCE738B500200090FFF734FF0120FFF703
:104DF0004EFF0320FFF751FF0320FFF757FF072463
:104E00002046FFF759FF4FF4FA70FDF708FF684698
:104E1000FFF75BFF0546284638BD38B500200090F7
:104E2000FFF718FF0120FFF732FF0320FFF735FFE0
:104E30000520FFF73BFF09242046FFF73DFF4FF415
:104E4000FA70FDF7ECFE6846FFF73FFF054628467F
:104E500038BD10B5FEF7D6F80446204610BDF8B5AB
:104E600005460C4600200090FFF7F4FE0120FFF7F6
:104E70000EFF0620FFF711FF0620FFF717FF284659
:104E8000FFF7DAFE2012FFF7D7FEE0B2FFF7D4FEFD
:104E900005F10D0000EB2420E1B246183046FFF783
:104EA0000BFF4FF4FA70FDF7BAFE6846FFF70DFFEF
:104EB00007463846F8BD2DE9F04780460C461546B2
:104EC0009946FFF7C7FE0120FFF7E1FE0820FFF734
:104ED000E4FE1B20FFF7EAFE4046FFF7ADFE20127E
:104EE000FFF7AAFEE0B2FFF7A7FE2812FFF7A4FE25
:104EF000E8B2FFF7A1FE08F1240000EB2420E1B2A4
:104F0000084400EB2520E9B200EB010A5046FFF708
:104F1000D3FE4FF4FA70FDF782FE124800F0A1FBB9
:104F2000064696B100BF306800BF3068477A3068E7
:104F3000C07A3168897A00EB0120A9F8000009489D
:104F400000F0A9FB3846BDE8F087FF273846FAE7AE
:104F50000004024000080240000C024000500040E3
:104F60005C0000203C0300203C3C2D41533630388F
:104F70002D494E464F2D3E3E20D6B8CEC6C4A3BFC7
:104F8000E9B5C4B5D8D6B7CEAA3A30782578257811
:104F9000257825780D0A0A00F8B504460D4600204C
:104FA0000090FFF757FE0120FFF771FE0720FFF783
:104FB00074FE0C20FFF77AFE2012FFF73DFEE0B2F0
:104FC000FFF73AFE2812FFF737FEE8B2FFF734FE8C
:104FD000142000EB2420E1B2084400EB2520E9B2C4
:104FE00046183046FFF768FE4FF4C870FDF717FE0D
:104FF0006846FFF76AFE07463846F8BD38B5002018
:105000000090FFF727FE0120FFF741FE0320FFF786
:1050100044FE0D20FFF74AFE11242046FFF74CFE08
:105020004FF4C870FDF7FBFD6846FFF74EFE0546DE
:10503000284638BD38B50446212C71D2DFE804F08B
:105040001124374A5D718497AABDD0E370707070E7
:10505000FDFC707070FB7070FAF9F8F7F67070F57F
:10506000F4004FF6FF7000F0F1FD4FF6FF700023E3
:10507000DDA24FF48C710090642002F05CF94FF4D3
:10508000FA60FDF7CCFDADE14FF6FF7000F0DEFDFC
:105090004FF6FF700023D5A24FF48C71009064206E
:1050A00002F049F94FF4FA60FDF7B9FD9AE14FF6C5
:1050B000FF7000F0CBFD4FF6FF700023CFA24FF43E
:1050C0008C710090642002F036F94FF4FA60FDF71D
:1050D000A6FD87E14FF6FF7000F0B8FD4FF6FF70B8
:1050E0000023CDA24FF48C710090642002F023F9CC
:1050F0004FF4FA60FDF793FD74E14FF6FF7000F096
:10510000A5FD4FF6FF700023C8A24FF48C710090EC
:10511000642002F010F94FF4FA60FDF780FD61E1C0
:105120004DE14FF6FF7000F091FD4FF6FF70002348
:10513000C6A24FF48C710090642002F0FCF84FF48A
:10514000FA60FDF76CFD4DE14FF6FF7000F07EFD5B
:105150004FF6FF700023C5A24FF48C7100906420BD
:1051600002F0E9F84FF4FA60FDF759FD3AE14FF625
:10517000FF7000F06BFD4FF6FF700023C2A24FF4EA
:105180008C710090642002F0D6F84FF4FA60FDF7BD
:1051900046FD27E14FF6FF7000F058FD4FF6FF7017
:1051A0000023C7A24FF48C710090642002F0C3F872
:1051B0004FF4FA60FDF733FD14E14FF6FF7000F095
:1051C00045FD4FF6FF700023C0A24FF48C71009094
:1051D000642002F0B0F84FF4FA60FDF720FD01E121
:1051E0004FF6FF7000F032FD4FF6FF700023C0A2B3
:1051F0004FF48C710090642002F09DF84FF4FA6037
:10520000FDF70DFDEEE04FF6FF7000F01FFD4FF6CD
:10521000FF700023BAA24FF48C710090642002F05A
:105220008AF84FF4FA6009E0B6E0A2E08EE07AE096
:1052300066E052E03EE02AE016E002E0FDF7EFFC17
:10524000D0E04FF6FF7000F001FD4FF6FF70002335
:10525000B4A24FF48C710090642002F06CF84FF40B
:10526000FA60FDF7DCFCBDE04FF6FF7000F0EEFCED
:105270004FF6FF700023AFA24FF48C7100906420B2
:1052800002F059F84FF4FA60FDF7C9FCAAE04FF6B6
:10529000FF7000F0DBFC4FF6FF700023A9A24FF473
:1052A0008C710090642002F046F84FF4FA60FDF72C
:1052B000B6FC97E04FF6FF7000F0C8FC4FF6FF70A9
:1052C0000023A9A24FF48C710090642002F033F8FF
:1052D0004FF4FA60FDF7A3FC84E04FF6FF7000F096
:1052E000B5FC4FF6FF700023A3A24FF48C71009021
:1052F000642002F020F84FF4FA60FDF790FC71E0B2
:105300004FF6FF7000F0A2FC4FF6FF7000239DA245
:105310004FF48C710090642002F00DF84FF4FA60A5
:10532000FDF77DFC5EE04FF6FF7000F08FFC4FF65E
:10533000FF70002397A24FF48C710090642001F05D
:10534000FAFF4FF4FA60FDF76AFC4BE04FF6FF708E
:1053500000F07CFC4FF6FF70002393A24FF48C7199
:105360000090642001F0E7FF4FF4FA60FDF757FC6E
:1053700038E04FF6FF7000F069FC4FF6FF70002335
:105380008EA24FF48C710090642001F0D4FF4FF492
:10539000FA60FDF744FC25E04FF6FF7000F056FC84
:1053A0004FF6FF70002388A24FF48C7100906420A8
:1053B00001F0C1FF4FF4FA60FDF731FC12E04FF647
:1053C000FF7000F043FC4FF6FF70002381A24FF402
:1053D0008C710090642001F0AEFF4FF4FA60FDF78D
:1053E0001EFC00BF00BF38BD4F4B0000CAFDBEDD34
:1053F000B0FCBDD3CAD5B4EDCEF30000D6B8CEC64E
:10540000C4A3BFE9C3BBD3D0BCECB2E2B5BDD6B830
:10541000CEC6A3A100000000C2BCC8EBD6B8CEC661
:10542000CDBCCFF1CAA7B0DC00000000D6B8CEC614
:10543000CDBCCFF1CCABB8C9A1A2CCABB5ADB6F861
:10544000C9FAB2BBB3C9CCD8D5F70000D6B8CEC61E
:10545000CDBCCFF1CCABCAAAA1A2CCABBAFDB6F8F9
:10546000C9FAB2BBB3C9CCD8D5F70000D6B8CEC6FE
:10547000CDBCCFF1CCABC2D2B6F8C9FAB2BBB3C97E
:10548000CCD8D5F700000000D6B8CEC6CDBCCFF141
:10549000D5FDB3A3A3ACB5ABCCD8D5F7B5E3CCABB6
:1054A000C9D9A3A8BBF2C3E6BBFDCCABD0A1A3A9CD
:1054B000B6F8C9FAB2BBB3C9CCD8D5F70000000022
:1054C000D6B8CEC6B2BBC6A5C5E40000B6D4B1C836
:1054D000D6B8CEC6CAA7B0DCA3ACD6B8CEC6BFE29B
:1054E000B2BBB4E6D4DAB4CBD6B8CEC6A3A1000022
:1054F000CCD8D5F7BACFB2A2CAA7B0DC0000000062
:10550000B7C3CECAD6B8CEC6BFE2CAB1B5D8D6B731
:10551000D0F2BAC5B3ACB3F6D6B8CEC6BFE2B7B612
:10552000CEA70000C9BEB3FDC4A3B0E5CAA7B0DCD6
:1055300000000000C7E5BFD5D6B8CEC6BFE2CAA7F7
:10554000B0DC0000BBBAB3E5C7F8C4DAC3BBD3D044
:10555000D3D0D0A7D4ADCABCCDBCB6F8C9FAB2BBC3
:10556000B3C9CDBCCFF10000B6C1D0B420464C4188
:10557000534820B3F6B4ED00CEB4B6A8D2E5B4EDEE
:10558000CEF30000CEDED0A7BCC4B4E6C6F7BAC5E1
:1055900000000000BCC4B4E6C6F7C9E8B6A8C4DA87
:1055A000C8DDB4EDCEF30000BCC7CAC2B1BED2B3F1
:1055B000C2EBD6B8B6A8B4EDCEF30000D6B8CEC6CE
:1055C000BFE2C2FA00000000B5D8D6B7B4EDCEF302
:1055D00000000000C4A3BFE9B7B5BBD8C8B7C8CFA7
:1055E000C2EBD3D0CEF300000160002242608260A3
:1055F00070470146D1E9002050408A68904201D1AD
:10560000012070470020FCE70146D1E901209042CB
:1056100001D1012070470020FCE7024610684000DD
:10562000401E4B1C1840704710B504462046FFF73B
:10563000E0FF08B1002010BD2169A068884204D1B4
:105640002046A168FFF7E9FF20612168491E206913
:10565000084004F1140151F82000ECE70169816071
:10566000704710B504462046FFF7CEFF08B1002072
:1056700010BDE1686068884204D120466168FFF788
:10568000CCFFE0602168491EE068084004F1140185
:1056900051F82000ECE700230268521EC168114057
:1056A00000F1140252F821108B80C16841607047EC
:1056B000002000BF08E03A4951F8301019B100212C
:1056C000374A42F83010401C0228F4D3704710B516
:1056D000002433480021016041608160C1600221E3
:1056E0003048FFF781FF00BF17E0C4EB04102E49DC
:1056F00001EB40002A4941F83400084600EBC401A0
:105700002848143040F8241000BF00BF244951F845
:1057100034001E2103F031F8641C022CE5D300BFD5
:1057200000BF00BF00BF10BD2DE9F04106460F4687
:10573000002517E01B48FFF777FF044654B1705D62
:1057400021684855A088401CA080A18817A003F0BC
:1057500091F801E0BDE8F08100BF00BF00BF00BFCD
:10576000681CC5B2BD42E5DB0E48FFF777FF00BFFE
:1057700000BF00BF00BF00BFECE710B50948FFF74E
:1057800070FF04465CB10020A2882168885400BFE5
:1057900000BF00BF206800BF0248FFF77CFF10BDBC
:1057A0002C0300203C030020580300200D0A6461F4
:1057B00074615F702D3E6C656E203D2564000000B5
:1057C00000B587B001210846FBF71CFE01218804C3
:1057D000FBF75CFE00208DF81A0001208DF81B00FD
:1057E00002208DF819008DF818004002059005A9D7
:1057F0004648FBF7C1FB02208DF818008002059097
:1058000005A94248FBF7B8FB07220A213F48FBF7EE
:105810003EFC072209213D48FBF739FC4FF4E130FB
:1058200001900020ADF80800ADF80A00ADF80C00BA
:10583000ADF810000C20ADF80E0001A93448FDF7BA
:1058400001F801213248FDF785F807B000BD70B5B9
:1058500004460D4629462046FDF7A7F800BF8021E3
:105860002046FDF752F90028F9D070BD70B5064604
:105870000C46002500BF615D3046FFF7E8FF6D1C58
:10588000605D0028F7D100BF40213046FDF73DF9AB
:105890000028F9D070BD2DE9F04105460C46260AD6
:1058A000E7B231462846FDF780F800BF8021284640
:1058B000FDF72BF90028F9D039462846FDF775F891
:1058C00000BF80212846FDF720F90028F9D0BDE867
:1058D000F08170B504460D46E1B20D48FDF765F85C
:1058E00000BF80210A48FDF710F90028F9D02046B2
:1058F00070BD10B5044600BF20210548FDF705F92D
:105900000028F9D00248FDF754F810BD000002400D
:1059100000480040002106E0082100BF0A1EA1F156
:10592000010399B2FAD1021EA0F10100F4D170472F
:1059300008B50AE00021009102E00099491C00919D
:1059400044F6206200999142F7D3011EA0F10100B4
:10595000F0D108BDFE4908807047FD49891C0880C8
:10596000704708B5FA48801C00880090BDF8000018
:1059700008BDF74A1080921C1180704710B504468C
:105980002046FFF7E7FF0520FFF7C4FFFFF7E9FF19
:1059900010BDF0480089EE4908807047EC49891C29
:1059A0000880704700B502460B46EA48808845F2F9
:1059B000105188421FD1E7494889FFF7CBFF1012E9
:1059C000FFF7CBFFE3494989491C88B2FFF7C2FFC3
:1059D000D0B2FFF7C2FFDF498889FFF7BBFF18127B
:1059E000FFF7BBFFDB498989491C88B2FFF7B2FF8B
:1059F000D8B2FFF7B2FF00BD30B504460023002542
:105A0000D448808845F2105188427CD1082C1CD2A1
:105A1000DFE804F00406090C0F12151800BF14E0AB
:105A200043F0800311E043F040030EE043F0C00375
:105A30000BE043F0200308E043F0600305E043F08F
:105A4000A00302E043F0E00300BF00BFC14880882C
:105A500045F21051884201D14FF45855BD48808815
:105A600045F21051884201D043F0080319462846F8
:105A7000FFF77FFFB748808845F21051884253D125
:105A8000B4494889FFF766FF0020FFF766FFB14978
:105A90004989491C88B2FFF75DFF0020FFF75DFFD1
:105AA000AC494989891C88B2FFF754FFA949098884
:105AB000491EC1F30F20FFF750FFA6494989C91CB1
:105AC00088B2FFF747FFA3490978491EC8B2FFF71C
:105AD00044FFA0498889FFF73DFF0020FFF73DFF05
